:20000000A43C00203999000001C9011001C9011001C9011001C9011001C9011001C90110EC
:1C00200001C9011001C9011001C9011001C9011001C9011001C901103FC9011089
:20003C0000B5ADF1140D02928DF80E10ADF80C0000208DF80F004BE29DF80E00102805D1B6
:20005C000299AC48102206F01FFD81E218208DF80F007DE29DF80E00102805D10299AF48E0
:20007C00102206F011FD73E218208DF80F006FE29DF80E00042804D10298B04900680860B5
:20009C0066E218208DF80F0062E29DF80E00012844D1AD48007801283CD0AC4800788DF878
:2000BC0010000298A949007808709DF81000B0B1A648007898B9AF480078022804D0AD4879
:2000DC000078052840F04482AB480178502009F09DFB02468221102006F09CFB38E29DF8A5
:2000FC001000002840F0348298480078002800F02F82A0480078012808D09E4800780428BA
:20011C0004D09C480078052840F0228201200AF0ABFF1DE212208DF80F0019E218208DF850
:20013C000F0015E29DF80E0001284CD187480078012844D0844800788DF8100002988249F2
:20015C00007808709DF81000D0B17F480078B8B988480078032808D086480078072804D029
:20017C0084480078052840F0F38183480178502009F04CFB02468221102006F04BFBE7E13B
:20019C009DF81000002840F0E3816F480078002800F0DE817748007801280CD075480078CB
:2001BC00042808D073480078062804D071480078052840F0CD8101200AF056FFC8E11220C3
:2001DC008DF80F00C4E118208DF80F00C0E19DF80E00022804D10298B94900880880B7E177
:2001FC0018208DF80F00B3E19DF80E001F2821DCB44800211F2207F0AFFB02999DF80E203F
:20021C00B04806F041FC9DF80E00AF4908705A480178502009F0FAFA0246AB4800780090C9
:20023C00A848832101230190102006F0F3FA8DF80F008DE118208DF80F0089E19DF80E006B
:20025C001F2821DCA14800211F2207F085FB02999DF80E209D4806F017FC9DF80E00BE4986
:20027C00087045480178502009F0D0FA0246BA48007800909548832100230190102006F004
:20029C00C9FA8DF80F0063E118208DF80F005FE19DF80E00012808D102980078042804DCD8
:2002BC000298AE490078087052E118208DF80F004EE19DF80E00012808D102980078032891
:2002DC0004DC0298A6490078087041E118208DF80F003DE19DF80E00062806D10298A14971
:2002FC0002680A608088888032E118208DF80F002EE1C046C82200209DF80E00012808D15B
:20031C0002980078072804DC02989749007808701EE118208DF80F001AE1C046D822002050
:20033C009DF80E0001280BD102980078032807DC02988E49007808700AE1C046C022002085
:20035C0018208DF80F0003E1E5090020E40900209DF80E00012808D102980078062804DAF3
:20037C000298834900780870F2E018208DF80F00EEE0C046BC220020B42200200298008883
:20039C00ADF810009DF80E0002280DD1BDF81000062809DBBDF81000B0F5486F04DCBDF854
:2003BC00100074490880D3E018208DF80F00CFE002980088ADF810009DF80E0002280DD11C
:2003DC00BDF81000062809DBBDF81000B0F5486F04DCBDF8100068490880B9E018208DF8D5
:2003FC000F00B5E002980088ADF810009DF80E00022809D1BDF81000B0F5FA7F04DABDF849
:20041C0010005E490880A3E018208DF80F009FE002980088ADF810009DF80E0002280DD131
:20043C00BDF810000A2809DBBDF81000B0F5486F04DCBDF810005249088089E018208DF8B6
:20045C000F0085E0029800788DF810009DF80E00012819D19DF81000012815D149480AF070
:20047C00C1FB68B94249002005F00EFC8DF80F009DF80F0000286BD143480AF0EBFD67E089
:20049C0016208DF80F0063E018208DF80F005FE0BDF80C0028280EDA9DF80E0002280AD187
:2004BC000298BDF80C2003887D21102006F0B2F98DF80F004CE002208DF80F0048E0C04607
:2004DC00E609002088090020E8090020A7090020BDF80C00A0F201301A28D9D801A151F8FD
:2004FC002000874655000000710000008D000000AD040000A7000000EB0100000502000055
:20051C0059020000AD020000CF020000F1020000150300003D030000AD040000AD04000037
:20053C006D03000099030000CD030000010400002D040000AD040000AD040000AD0400007A
:20055C00AD04000061040000AD040000410100009DF80F0005B000BDE9090020C422002048
:20057C00C5220020D90C0020C6220020C72200200C0C00200E0C0020100C0020120C002056
:20059C00140C00207C2100203421002010B5ADF1200D019100900198C00B2CD300F0A2FA2C
:2005BC0004908D480AF029FE02900298806905900598800817D20298A8B10299059A8869BF
:2005DC0090438861049800F091FA0298406868B1029802994468059A0298B1F91C10C068B9
:2005FC000023A04702E0049800F080FA019820F48040019038E201988008C0F0B180AB48E0
:20061C000AF0FBFD0028029000F09A80029808F0FBF9029880690490029800218161029834
:20063C004068002830D00498002106AA40F0020082E8030014E000204FF0005106AA82E804
:20065C00030017E000204FF0804106AA82E8030010E000204FF0805106AA82E8030009E021
:20067C000298C07F00F00700401EE4D0401EE9D0801EEED006AA0CCA029802994468029808
:20069C00B1F91C10C068A04700F02CFA05909A489949B0F90000401C6FF31F3008808348E1
:2006BC0000680021C17781480AF056F8059800F01DFA0298C0689049B0F9B800B1F90010F2
:2006DC0088423DD1AB480078002839D10298C06890F8BA0018B90298C068006840B90298F7
:2006FC00C068002180F8BA10002006F043F827E0B54800680068B0F1FF3F21D00299B348C8
:20071C00C96800680968B1FBF0F0012807D90299AE48C96800680968B1FBF0F000E00120F6
:20073C0006900298C06870300AF0E8FD069900F0E1F90298C06870300AF0E0FD00F0DEF95D
:20075C00019820F00200019058480AF056FD0028029000F08981019840F00200019083E1E0
:20077C000198800FC0F0BA8000988068008840F60201814209D1009880681030018821F40F
:20079C007C7141F43471018008E0009880681830018821F47C7141F434710180A34800680C
:2007BC00002839D0A2480068016804208847002832D0B2480068006B804704909B4804996C
:2007DC00006888420AD2994801680498401A0099000BC8600BE0C0466C2200209348016800
:2007FC000498401A009900F1FF30000BC86000990098CA68408A8018C8600098C06840F618
:20081C00C411814204D30098C068B0F5FA7F03D2009840F6C411C16000988069D0B100983C
:20083C0097498069814215D09648007810F00F0F10D10098408C40F6090181420AD10098FC
:20085C0080690590059C00986FF4807100224FF00073A0478C480AF04BFD8C4900220AF0AF
:20087C00B1FD8B4803908B48007860B10220ADF8140005A80AF086F8BDF81C000399888275
:20089C0084490020087084490120087083490878401C087082490020087082480AF0ADFC81
:2008BC0030B119200AF09AFC06E0C04670220020019840F0020001900098406948B10098A6
:2008DC0040690590059C0098002100224FF08063A047019820F000500190C5E072480078D8
:2008FC0060B10198000909D36F4900200870019820F008000190B7E07622002001980009CA
:20091C00C0F09880644900200870684901200870002005F0F8F866480AF02EFB5A480AF0F2
:20093C00E7FC644900220AF04DFD6348007810B15848007800B36049012008705F4940F6D6
:20095C00090008804F484F49007820F00F0040F0010008705A49002008805A49087820F0FD
:20097C000F00087058490020086054485749086053E0C0461A0A002055480068002845D048
:20099C003E480068006B8047524908602748016850480068401A4F49000B08604E494D48AF
:2009BC000A6800688018086049484B4900680968B1EBC01F0CD249480AF0C4FC4FF000510F
:2009DC000AF00AFA29E0C0463420002070BA0000414900200860394940F609000880294884
:2009FC002849007820F00F0040F0010008703449002008803349087820F00F0008703249F7
:200A1C00002008602D483149086006E033480AF099FC4FF000510AF0DFF9044900200860B4
:200A3C00019820F0080001901EE0C04644200020E00100100198800B16D329480AF0DDFB8F
:200A5C000290029860B10298406848B10298029944680298B1F91C10C06800222023A0473D
:200A7C00019820F400500190019828B11B480AF069FC01990AF0B0F908B010BD8C01001039
:200A9C00D9B1000099220020DC210020CD3B00004C22002055200020382000204120002094
:200ABC00562000206422002059200020572000206D7600000DA40000542000208C220020B8
:200ADC008E22002098220020902200200010044050200020482000204C200020CC1F00207B
:200AFC0068220020DFF800F085BF0110DFF800F061C00110DFF800F0E5C00110DFF800F0D7
:200B1C001FBE011000B5ADF11C0DB548B54906F055F8B2490860B148B34900680AF0A6FBB6
:200B3C00B248B34905F02CFAB2490A6802A802608988818010204C2102AA05F06BFEAF485F
:200B5C000AF074FAAC4908600020AE49009004200190AB484FF47A72002307F025FF0020D8
:200B7C0000904FF48070A7490190A7483222002307F01AFF002000904FF48060A149019051
:200B9C00A248C8224FF4487307F00EFF10207D211F22052305F03EFE01208DF81A0000201B
:200BBC00ADF8100001208DF81B000820ADF812004FF44870ADF814000020ADF816004FF4F2
:200BDC007A70ADF8180001210DF11A0240F20530FFF726FA40F20630022104AAFFF720FA50
:200BFC008B4A4FF442701E21FFF71AFA894A40F207301421FFF714FA4FF4447001210DF13A
:200C1C001B02FFF70DFA40F2113002210DF11202FFF706FA40F21230022105AAFFF700FACA
:200C3C0040F2133002210DF11602FFF7F9F94FF44570022106AAFFF7F3F9774800686A21A3
:200C5C00002215230090102005F0E4FDA020ADF81000BDF810307D210622102005F0DAFD5C
:200C7C00BDF8103010207D21072205F0D3FDBDF8103010207D21082205F0CCFDBDF8103007
:200C9C0010207D21092205F0C5FD0020049001208DF8140000208DF8150003208DF81600A2
:200CBC0001208DF8170004A870214FF4816204230090102005F0AEFD05A870214FF480620E
:200CDC0001230090102005F0A5FD0DF11500702140F2024201230090102005F09BFD0DF1F4
:200CFC001600702140F2034201230090102005F091FD0DF11700702140F20642012300907F
:200D1C00102005F087FD10206B214FF0FF3205F081FD1020C8214FF0FF3205F07BFD09F080
:200D3C00D3FC4FF0FF3005F06FF84FF0FF3004F091FA08F0BBF809F01BF909F017FA09F056
:200D5C002BFB0AF001F835490020087034490020087000208DF8100004AA0220012104F098
:200D7C00AFFD30490020087009F000FB2E4809F039FE2E4809F0C6FD2D4A0020012104F021
:200D9C009FFD2C4A0120012104F09AFD2A4A0220012104F095FD294809F0BEFB284A102054
:200DBC00742105F037FD11480178502008F02EFD02467C21102005F02DFD0C480178502083
:200DDC0008F024FD0246A621102005F023FD0348054900680AF04AFA07B000BD7423002020
:200DFC001C2300201C0A002075A60000812300207823002048BA00002C23002004230020E0
:200E1C00EC2000200DB000005C20002058210020C60900201E0B0020100A002030230020B3
:200E3C002823002082230020EC0C0020E80C0020090A00200A0A00200B0A0020F80C00207A
:200E5C005C0C002080B502AFADF1180D029301920091ADF80C0000208DF8100000990098F5
:200E7C00496840680978407801F0FF0100F0FF0001EB0021ADF80E108AE03888082803D9DE
:200E9C0007208DF81000A1E03888B988C0F10800884201D9B88802E03888C0F10800029965
:200EBC0008803A884B498918029A0198128805F0EBFD8BE00098C0680AF0EAF8ADF814002B
:200EDC003988BDF81400884203DA07208DF810007CE03988BDF81400401AB988884201DDE0
:200EFC00B88803E03988BDF81400401A029908800099CA6839888918029A0198128805F0BB
:200F1C00C3FD63E0344839880078884203DA07208DF810005AE0304839880078401AB98814
:200F3C00884201DDB88803E02B4839880078401A0299088029490A6839888918029A019826
:200F5C00128805F0A1FD41E03888072803D907208DF810003AE03888B988C0F10700884203
:200F7C0001D9B88802E03888C0F10700029908803A881B498918029A0198128805F084FDB2
:200F9C0024E00298002101800A208DF810001DE0BDF80E0042F62321401A072802D92D3831
:200FBC00D2D0EEE701A151F820008746970E0000D10E0000D10E0000D10E0000D10E0000A5
:200FDC00D10E0000D10E0000210F00009DF8100006B080BD440C0020CC0B0020C80B002015
:040FFC00C40C002001
:20100000B41200001810000015AB0110FDB301106DC00110FDAE011099B5011000000000F7
:08102000000000002F00000099
:20102800B01200003C100000B1C00110A9BF011067C0011069B80110000000000000000035
:041048002D00000077
:20104C00B012000060100000BDC00110CDB30110D9BD01106DB3011000000000000000005B
:04106C002E00000052
:2010700000000000640C002004000000000000000000000020000000E8C9011030000000BA
:20109000281000006C0C00200400000000000000000000000C000000D8CA01101800000095
:2010B0004C100000740C002004000000000000000000000024000000F0CA01101800000019
:2010D000000000007C0C00200400000000000000000000001000000018CA01102C00000025
:2010F00000100000840C0020040000000000000000000000200000006CCA01102400000091
:20111000FFFFFFFF8C0C00200400000000000000000000002800000090CA01102400000050
:20113000FFFFFFFF940C00200400000000000000000000001400000008CB011018000000CF
:20115000FFFFFFFF9C0C002004000000000000000000000058000000B4C90110340000009D
:20117000FFFFFFFFA40C00200400000000000000000000001000000020CB0110180000006B
:20119000FFFFFFFFAC0C00200400000000000000000000001C000000B4CA01102400000098
:2011B000FFFFFFFFB40C00200400000000000000000000003800000044CA011028000000C0
:2011D000FFFFFFFFBC0C00200400000000000000000000005400000078C901103C00000035
:0811F0000100000074BA0000C8
:0411F80001000000F2
:0411FC0000000E00E1
:0412000000000F00DB
:0412040032000000B4
:0412080001000000E1
:04120C00340A002080
:0412100000020000D8
:0412140000000000D6
:0412180001C90110F7
:04121C0000000000CE
:0412200000000000CA
:0412240008000000BE
:04122800000023009F
:04122C004008002056
:0412300001000000B9
:041234004C0A002040
:0412380008000000AA
:04123C00680900201D
:0412400000000000AA
:0412440000000000A6
:04124800080000009A
:04124C00000000009E
:04125000000000009A
:041254000000000096
:041258000000000092
:04125C00010000008D
:041260000809002059
:041264000600000080
:041268000100000081
:04126C0068070020EF
:04127000000000007A
:041274000000000076
:041278000002000070
:04127C00000000006E
:02128000290043
:02128200010069
:02128400250043
:021286002D0039
:021288002E0036
:02128A002F0033
:02128C0001005F
:01128E00015E
:0812900003000000CCB90000CE
:0812980000000000000000004E
:0412A0000000010049
:0412A4000000030043
:0412A80013C401105A
:0412AC0051AE00003F
:0412B000B812000070
:0412B400B81200006C
:0412B8000000000032
:0412BC004C0A0020B8
:0412C00055B1000024
:0412C4002000000006
:0412C80036B8000034
:0412CC0064B7000003
:0412D00029C101101F
:0412D400E7790000B6
:0412D800EF7E0000A5
:0412DC00A1C7011095
:0412E000A3C701108F
:0412E4000000000006
:0412E80063B70000E8
:0412EC0078B60000D0
:0412F00090B60000B4
:0412F40060B60000E0
:0212F8000200F2
:0212FA000900E9
:0212FC000100EF
:0212FE000000EE
:0113000001EB
:04130400C1B0000074
:04130800159E00002E
:04130C00B9A800007C
:0413100091A00000A8
:04131400C5A0000070
:041318004D9E0000E6
:04131C00097E000046
:0413200033B20000E4
:04132400098D00002F
:0413280015C70110D4
:04132C0025C70110C0
:2013300000B5ADF1240D029000208DF80C003BE202980490049840788DF814009DF81400F5
:2013500058BBAA48ED21022210230090102005F067FAA748ED21032210230090102005F0F3
:201370005FFA0498A749C01C02680A6080888880A54801210170A5480178502008F04CFA24
:201390000246A34800780090A248832101230190102005F045FA8DF814009DF8140010B158
:2013B00099480821017001208DF80C0028E20298049004984078002830D10498C07890B126
:2013D00092480178502008F027FA0246A84800780090A848832100230190102005F020FA5A
:2013F000049948701AE088480078022816D086480078072812D084480078062803D1AA48A7
:20141000007801280AD180480078032806D0A74809F0EEFB10B9012009F02CFE04984078CD
:20143000002800F0ED8178480821017001208DF80C00E5E1029804900498407800283CD18D
:2014500002988078032812D16F480078062803D16D480721017033E0AE48007818B16A4861
:20147000022101702CE068480321017028E0AA48008858B1A748007810B98B48007880B140
:20149000A5480188894808F0D3F80AE0A1480078012803D19F490020087002E0824900209D
:2014B000087059480078072803D157480621017006E055480421017002E053480821017021
:2014D00001208DF80C009BE10298049004984078002842D10498B249001D02680A60808881
:2014F00088800498AF49408908804748062101700498B749C08908800498B649008A0880AE
:201510000498B549408A08800498B449C0780870B3480078012803D0B148007802280ED19D
:2015300010207E211F2205F07BF9ADF81400BDF814004FF47A714143AA4808F079F80498F7
:2015500040890090042001900498049BC27872211B1D102005F064F90DE004984078312811
:2015700006D16C490020087027480421017002E025480821017001208DF80C0040E10298DC
:201590000490049882887321102005F049F984480021062206F0E6F98D49002008808D49C8
:2015B000002008808C490020088004989E49807908708C4809F054FD9C4809F051FD012098
:2015D0008DF80C0077494FF6FF7008803648007818B10D480321017012E10498807908280D
:2015F00008D109480521017007E0C046C8220020D8220020044804210170012009F03AFDD6
:20161000FEE0C04631230020BC220020B4220020E80900208809002002980490834809F0BA
:201630001FFD04984078002840F0EA8004986849C0880880049867490089088004986649A3
:2016500040890880674809F0D3FA002840F0D88077480068002800F0D38075485D490068A7
:201670005D4A036809885A48128800889847C7E0E9090020A70900200298049004988288B7
:201690008C210523102005F0CBF8B9E00298049004988088ADF8140051480078052807D143
:2016B00000208DF81E0074E0E50900201021002001208DF81E004B4809F0D2FC484800787E
:2016D000012803D046480078042839D1594804990088C988884202DD5648008801E004985F
:2016F000C088ADF816005448049900880989884202DD5148008801E004980089ADF81800F7
:201710004E48049900884989884207DD4B48008806E0C046E4090020E609002004984089F6
:20173000ADF81A004648049900888989884202DD4348008801E004988089ADF81C0028E00A
:2017500027480078032803D025480078022810D138480088ADF8160037480088ADF818001D
:2017700036480088ADF81A0035480088ADF81C000FE00498C088ADF8160004980089ADF876
:20179000180004984089ADF81A0004988089ADF81C001020872105AA05F042F830E0C046CB
:2017B000DF0C0020EA0900200298807805281BDC05283FF489AE00283FF4BAAD801E3FF41B
:2017D000F6AD401E3FF436AE401E3FF433AE17E0EC090020EE090020F0090020F209002018
:2017F0000C0C002034210020801F3FF4C8AE401E3FF412AF08383FF43FAF801E3FF446AF6B
:201810009DF80C0001280CD10E48006848B10D480068006828B10B48006801680A4800786E
:20183000884709B000BDC046F30900207C210020FC0900200E0C0020100C0020120C00209B
:20185000140C0020F8090020BC220020BB492DE9F84F00254820C1F8F35FB94CC1F8FF0F54
:2018700094F8E200002800F06581012800F02F81B44E02283CD0032840F05C8151F8310C2D
:20189000D4F8B8100029A0F5C060C4F8D400B8BF49420028B8BF4042814226DA4FF080573A
:2018B000D7F8A4014568B4F8BC0030214FF47F42082300903046A847D7F8A4014568B4F84D
:2018D000C00004214FF4F802122300903046A847D7F8A401B4F8D070456820214FF4406279
:2018F0000A2330460097A847012584F8D8501CE151F8318C09F0AEFC2F4600B9012739466A
:20191000914F38680028FCD0B146012609F10409D9F82CA03E6009B109F0A2FCCAF30720AE
:20193000C4F8BC0009F096FCAA4600B9B2463B68002BFCD0D9F800B0BAF1000F3E6001D0AF
:2019500009F08EFCCBF38440C4F8C00009F082FCAA4600B9B2463B68002BFCD0D9F81C90C7
:20197000BAF1000F3E6001D009F07AFCC9F38120C4F8D000B8F5C061C4F8B81000F09C8078
:2019900094F8D80068B9C4F8D410D4F8C000C4F8C800D4F8BC70C4F8C470D4F8D030C4F892
:2019B000CC30D4F8D410D4F8BC30002954BF02206FF0010004F1C802176801EB4101401831
:2019D000411000EB917107EBA1001060D4F8C810C4F8C43000291CDD1E293CDDD4F8CC0048
:2019F00030B93429B4BF15391E21C4F8C81025E02A29BABFD4F8C8000B381E20C4F8C80093
:201A1000D4F8C4003F28B4BF401C3F20C4F8C4001FE0D4F8CC00032812D011F10B0FC6BFCC
:201A3000D4F8C8000B30301CC4F8C800D4F8C4000028C4BF401E051CC4F8C450032508E05D
:201A500011F1150FC6BFD4F8C8001530301CC4F8C800C4F8CC504FF08057D7F8A401B4F814
:201A7000C43030214FF47F424568364800930823A847D7F8A40104214FF400321123456846
:201A900030480096A847B4F8C860D7F8A40104214FF4F802122345682A480096A847D7F8E7
:201AB000A40120214FF440620A23B4F8CC60456824480096A84701E084F8D85040F2FF50A2
:201AD000404502D8801C40452FD2082030E051F8311C1E4F4BF2F5204843060A3868C0F3FA
:201AF000814001280CD11A4800680068804708F0BFF809F0BBFB3111C010484306EBE03614
:201B100094F8E50030B91348006820F07F408019460801E084F8E5500F48310C066001272E
:201B300041600E4D8760287808B90B2000E0052084F8E40001F086FCBDE8F88F39400C405D
:201B50006804002000A00C4000800C40B43F0050EC010010102009403C600C4016B90000C1
:201B700090B503AFADF11C0D02938DF8162001910090FEF7BDFF04908B48B0F90010894883
:201B9000B0F90000401A00F580506FF31F30082811DA84488349B0F90000401C6FF31F3053
:201BB000088080480088ADF81400BDF9140007F073FB039005E00498FEF79EFF6FF001004F
:201BD000EDE00098703009F09FFB09F0F1FC0198039988609DF816000399887702980399DE
:201BF0004860BDF814000399888300980399C86097E818006D49039820222240103019403C
:201C100080E8060003980021C1776948006800282FD06748039906F07BFD70B961486149DD
:201C3000B0F9000000F6FF706FF31F3008800498FEF762FF6FF00100B1E0BDF81400009908
:201C5000A1F8B8000399C87F40F08000C877009890F8BA00012806D10099002081F8BA008B
:201C70005449002008700498FEF746FFBDF9140095E04F48039906F04BFD70B9494849494D
:201C9000B0F9000000F6FF706FF31F3008800498FEF732FF6FF0010081E0BDF81400009908
:201CB000A1F8B8000399C87F40F08000C877009890F8BA00012806D10099002081F8BA002B
:201CD0003C49002008703C48007878B13B48007860B13B49012008703749002008703549F3
:201CF0000020087037490878401C08700498FEF703FF3548006800284FD13048007818B1EF
:201D1000192009F071FA48E030480078002844D1FEF7EEFE04902E48007830B12D490120E6
:201D300008700498FEF7E8FE37E00398806807F01DFE2949086038B328480068C1682648C4
:201D50000068401A26490968B0FBF1F001280AD922480068C16820480068401A204909683A
:201D7000B0FBF1F000E0012006901E4809F0CCFA0699FEF7C5FE1B4809F0C6FAFEF7C4FEE1
:201D90000498FEF7B9FE08E00498FEF7B5FE164809F0DEFA042109F025F8BDF9140007B0D4
:201DB00090BDC0467422002076220020F1EFFF9F6422002055200020582000203820002089
:201DD00059200020412000206822002056200020572000204220002050200020342000207C
:201DF00070BA000080200020CC1F00200EB50091ADF8040000208DF80600A8E07948009954
:201E100000780870EAE000987749102204F042FEE4E000987549102204F03CFEDEE0744846
:201E3000009900680860D9E0724900980A68026089888180D2E07048009900780870CDE097
:201E50006E48009900780870C8E06D48009900880880C3E06B4900980A786B4904F01AFEFC
:201E7000BCE06A4900980A78694904F013FEB5E06848009900780870B0E067480099007814
:201E90000870ABE0654900980A68026089888180A4E063480099007808709FE0614800998A
:201EB000007808709AE0604800990088088095E05E4800990078088090E05D48009900886D
:201ED00008808BE05B4800990088088086E05A4800990088088081E0584800990088088058
:201EF0007CE0574900980A6802608988818075E0544800990088088070E0534800990088B2
:201F100008806BE0514800990088088066E0504800990078087061E04E48009900780870D5
:201F30005CE04D4800990078087057E0BDF80400282808DABDF8042010207E2104F070FC0D
:201F5000009908804AE002208DF8060046E0BDF80400A0F540701D28E8D802A151F8200044
:201F70008746C0460D1E0000171E0000231E00002F1E0000391E0000471E00005B1E00005B
:201F9000651E0000731E0000811E00008B1E0000951E0000A31E0000AD1E0000B71E0000C1
:201FB0003D1F0000C11E0000CB1E0000D51E0000DF1E0000E91E0000F31E0000011F0000C5
:201FD0000B1F0000151F00003D1F0000291F0000511E00001F1F0000331F00009DF8060055
:201FF0000EBDC046BD220020C8220020D8220020C022002031230020E4090020E50900204C
:20201000E6090020E809002088090020E9090020A7090020C4220020C5220020D90C0020EB
:20203000C6220020C7220020EA0900200C0C00200E0C0020100C0020120C0020140C002040
:20205000DF0C0020EC090020EE090020F0090020F2090020BC220020F309002000B5ADF198
:20207000240D8DF81620ADF814100090854809F0CAF80190844802909DF816100020490868
:2020900000D301208DF8170003208DF81800FEF72FFD0390BDF91400B0F1FF3F11D17B48DE
:2020B000006828B179480068808BADF8140005E07748B0F90000401CADF8140002980021C5
:2020D000C175BDF9140006F08DF904900498002840D06E480499006888423BD19DF81600D0
:2020F000800805D36748006801906649002008609DF81720049901209040CA7F1043C8775C
:2021100009F052FA07909DF8170008B1614800E0614808F03DFC0398FEF7EEFC9DF81600E6
:20213000800810D3019870B10199C87F40F00400C87701A808F016FB0146584806F0E8FAA5
:2021500001980028F0D1079809F02AFA83208DF8180093E00498002800F08D800498019987
:2021700088422AD14E4809F0CFF809F021FA9DF81600800803D343490020086004E0414896
:2021900000684049006808600398FEF7B5FC0199C87F40F00400C87701A808F0E3FA014614
:2021B0003E4806F0B5FA019818B19DF816008008EDD283208DF8180047E0019800283DD05B
:2021D000019904980968884232D1354809F09CF809F0EEF90198006807909DF816008008C6
:2021F00005D30198002101600798019008E00798019900680860079800210160079801906A
:20221000019870B10199C87F40F00400C87701A808F0A8FA0146214806F07AFA0198002882
:20223000F0D10398FEF768FC83208DF8180005E001980068019001980028C1D19DF8180022
:20225000832802D00398FEF757FC16480078A8B91548007890B9154808F094FE144809F07D
:2022700077F8022108F0BEFD1248007830B9124808F088FE02E00398FEF73EFC9DF818001D
:2022900009B000BD642200204C220020682200207622002001000204010001047022002063
:2022B000802000205620002057200020A9050000CC1F002038200020054E00002DE9F04F48
:2022D0008246DAF800600C465FEA0208ADF11C0D14BF00214FF0FF3106F14800834609F024
:2022F0005BF9002808BF0B2000F00681002565708448F460B8F1010F057004D065700220D6
:20231000F46007F021FF2078012840F2AB80801E012868D9801E012833D9801E012800F290
:20233000DF80FEF7E5FB06904FF0805000F5EE77D0F8DC01A378466A009321782846062921
:2023500008BF0120019001200290A068228AE1686368B04781460698FEF7CEFBB9F1000FA6
:2023700040F0C080B8F1000F02D008F00BFD02E0504608F08AF9002800F0A4803868806A9A
:202390002AE0FEF7B5FB06904FF0805000F5EE77D0F8DC01012306680093A168A2786068CA
:2023B0002478AC46042C08BF9C466346B04781460698FEF7A1FBB9F1000F40F09380B8F16B
:2023D000000F02D008F0DEFC02E0504608F05DF9002877D03868406880474949C1F8B051AA
:2023F0000D6081467EE0FEF783FB06904FF0805000F5EE76D0F8DC01E38A87690093E068ED
:202410000190208B0290A0780390207D04900121059122782846022A08BF081CE178626808
:20243000A368B84781460698FEF766FBB9F1000F58D1B8F1000F02D008F0A4FC02E050464B
:2024500008F023F900283DD03068006A80475FEA000947D13068C569A168E28A2369E078D1
:20247000A847BEE7FEF744FB06904FF0805000F5EE76D0F8DC01E38AC7680093E0680190D9
:20249000208B0290A0780390207D2946049001200590257805B9014608466268A368E178D0
:2024B000B84781460698FEF727FBB9F1000F19D1B8F1000F02D008F065FC02E0504608F09B
:2024D000E4F808B9142017E03068406980475FEA000907D1306802692169E078904780E7CF
:2024F0004FF0FF39B8F1010F02D0022007F014FE584609F04DF8484607B0BDE8F08FC04654
:20251000504502403B2300202DE9F04F0128ADF1140D40F0E780DFF8D891D9F8DC0001286C
:2025300040F0DD800220C9F8DC0009F02DF80290012007F03DFA5FEA000806D00120C9F837
:20255000DC00029809F01CF8CEE009F02DF8002403906848684D0460A86A01680120884731
:20257000012818BF009404D1204606F069FB012000906248624F04603868112008F088FE63
:2025900000280CBF261C0126102008F081FE08B146F002060F2008F07BFE08B146F0040698
:2025B0000B2008F075FE20B12868564F016B388888470A2008F06CFE20B12868524F016B7A
:2025D000388888475148012707602868816946F0200088474E48076008F054FE00F001015C
:2025F000DFF834B10191400814D2286A8168494888478246BAF1040FF7D0BAF1010F04D197
:20261000286A42684348032190475946086820F003000860204600F083F839482B68006811
:20263000986B8047019801280CD0BAF1010F04D1286A42683748394690475946086840F042
:20265000030008602D48076028684169304688470B2008F01DFE20B128682A4BC16A1888C5
:2026700088470A2008F014FE20B12868264BC16A18888847254807600322C9F8DC20244BB6
:202690001C602868416B304688470128F9D1042007F08EF904461A4E164820490760306820
:2026B00008688009FCD30098012802D1384606F0C7FA08F0D5FD082007F07AF90646039836
:2026D000C9F8DC7008F06CFF05F08CFF029808F057FF56EA040018BF4FF0FF3804E06FF03E
:2026F000040801E06FF00108404605B0BDE8F08F680400200C400940B801001000022243C5
:202710002C200940F6B50000F2B500002820086080010443004003402422084014100940CC
:202730002DE9F84FDFF8F0B10746ABF13500DFF8DC910068800880F0D88070480068006812
:20275000804779490831D1F8008000254FEA28725FEA985102F101020AD2C0F13E0110F171
:202770000A0F4FEAE101D8BF08218A42B8BF0A1C634BD3F87C11C1F304611629A8BF2039CE
:202790001B68C3F30443162BA8BF203B9A465118162905DA11F10A0FB8BF6FF0090100E064
:2027B0001521584B584E01F01F0242F4F8521A80326812F0030F18BF0125D20828BF45F0BD
:2027D00002050FB145F004054A4692F90730C31A052B04DA9379AB4208BF918865D0DFF8C2
:2027F00030E10F28A0F10F0C25DB0CEB0013A3F1F00C4FEA2C26072E88BF07263446062C5B
:2028100088BF06245EF82470042303EB84037446E358DB1B03F0FF04EF0824BFC3F3072712
:202830003C44AF0824BFC3F307473C446F0828BF04EB136401E0002426465EF826E0EF0862
:202850000EF0FF0324BFCEF307273B44AF0824BFCEF307473B446F0828BF03EB1E63A4B2CC
:20287000ACEB0626BAEB010104FB06F404F1800403EB1423D8BF0121342408F0FF074C43A9
:202890007C43B4FBF3F14FF6FF738B4238BF191C802889B2918005DA10F1800FB8BF6FF0ED
:2028B0007F0000E07F20D07195711A4800681F2910604FF0000008D340F2FF128A4206D240
:2028D0004908401C8A42FBD301E01F219180134F0F39090940EAC10047EA0001CBF8FB1FB9
:2028F0000026CBF8FF6FBDE8F88F0D490D4F4A4608200F60921D1070BDE8F88FEC01001014
:202910003C1100506E620840242208403C2300209C130050082009403500094000E7A480EC
:2029300030100940FDFDA400AC3F00500EB500928DF805108DF8040000208DF80600BBE067
:202950009DF80500082806D100999DF80520694804F0A0F8CAE018208DF80600C6E09DF88E
:20297000050014280BDC64480021152204F0FAFF00999DF80520604804F08CF8B6E01820ED
:202990008DF80600B2E09DF8050014280BDC5B480021152204F0E6FF00999DF80520574887
:2029B00004F078F8A2E018208DF806009EE09DF8050014280BDC52480021152204F0D2FF6C
:2029D00000999DF805204E4804F064F88EE018208DF806008AE09DF8050014280BDC4948C5
:2029F0000021152204F0BEFF00999DF80520454804F050F87AE018208DF8060076E09DF89A
:202A1000050014280BDC40480021152204F0AAFF00999DF805203C4804F03CF866E0182084
:202A30008DF8060062E09DF8050014280BDC37480021152204F096FF00999DF805203348CE
:202A500004F028F852E018208DF806004EE09DF8050008F091FB02900298B0B12C482D499A
:202A70000068814203D02A48006808F0E7FB029800999DF8052004F00DF80298244908603F
:202A90009DF805002449087030E013208DF806002CE09DF80500072806D100999DF80520DA
:202AB0001E4803F0F7FF21E018208DF806001DE002208DF8060019E09DF804000828F7D8B8
:202AD00001A151F820008746512900006F29000097290000BF290000E72900000F2A00000B
:202AF000372A00005F2A0000A32A00009DF806000EBDC046440C0020A30A0020B80A002084
:202B1000640A0020790A0020CD0A00208E0A0020C80B0020B20B0020CC0B0020C40C00200E
:202B30002DE9F0411C4615468C4208BF854282BF00230022E5E0002C08BF002D0AD10029B6
:202B50000EBF00286FF000006FF0000100F0E1F8BDE8F0815FF000085FF0000E002C08BF2B
:202B70008D429CBF2C1C0025070C47EA01470E0CB44208BFBD429EBF5FEA044444EA1544D7
:202B90005FEA0545070A47EA01670E0AB44208BFBD429EBF5FEA042444EA15645FEA05252C
:202BB000470847EAC1774E08B44208BFBD4200F29380870847EA81778E08B44208BFBD422C
:202BD0007CD8C70847EA4177CE08B44208BFBD4266D8070947EA01770E09B44208BFBD427D
:202BF00050D8470947EAC1674E09B44208BFBD423AD8870947EA81678E09B44208BFBD42D3
:202C100024D8C70947EA4167CE09B44208BFBD420DD8E60146EA5566EF01B14208BFB84211
:202C300001D3C01BB14158EB08085EEB0E0EA60146EA95664FEA8517B14208BFB84201D3FC
:202C5000C01BB14158EB08084EEB0E0E660146EAD5666F01B14208BFB84201D3C01BB14158
:202C700058EB08084EEB0E0E260146EA15762F01B14208BFB84201D3C01BB14158EB0808E2
:202C90005EEB0E0EE60046EA5576EF00B14208BFB84201D3C01BB14158EB08084EEB0E0EF2
:202CB000A60046EA9576AF00B14208BFB84201D3C01BB14158EB08084EEB0E0E660046EAE1
:202CD000D5766F00B14208BFB84201D3C01BB14158EB08085EEB0E0EA14208BFA84201D3B5
:202CF000401BA14158EB08085EEB0E0EA34208BFAA423EBF2D0A45EA0465240A89D3734628
:202D100042461E4617460B46024631463846BDE8F081704700B5ADF12C0D049303920291B4
:202D30000190019878B1029868B1039858B1049848B10C9838B10D9828B10D98006A10B169
:202D50000D98406A48B90D9820B10D986FF0010180F82C106FF00100CDE00D98816A674897
:202D7000006808F019FC0D9981F82C000D9890F92C0038B90D986FF0020180F82C106FF01E
:202D90000200B8E00D980D9A016A0D985288007800EB80008018143080B28847584908608A
:202DB00058B95648006808F0F3FB0D984FF0FF3180F82C104FF0FF309DE0514801680D98AC
:202DD0004088401805900D9805990078001D091806910D9806990078001D091807910D9867
:202DF00007990078001D091808910D9808990078001D091809910D9805F0BCFC0D980078CF
:202E1000C01C411000EB91700599801008600D980078C01C411000EB917006998010086026
:202E30000D980078C01C411000EB91700799801008600D980078C01C411000EB91700899DD
:202E5000801008600D980078C01C411000EB91700999801008600D9A059801991278001D15
:202E700003F018FE0D9A069802991278001D03F011FE0D9A079803991278001D03F00AFE2C
:202E900009980090089B0699079A059808F074FB8DF828000D9A089904981278091D03F0D6
:202EB000F9FD0D98099902780C98091D03F0F2FD0D9802780D98408802EB82021218104820
:202ED0000068002104F04EFD0D98416A0C48006888470A48006808F05BFB9DF828009928B9
:202EF00002D100208DF828009DF928000D9981F82C009DF928000BB000BDC0465416002053
:202F1000884F002000B5ADF12C0D019100900198800FC0F0C480002004F0A4FC6149002062
:202F30000860624860490860012002F0F2FD604808F028F85F4940F60A0008805E49002065
:202F500008805E49087820F00F0008705C49002008605C485B49007820F00F0040F00100DE
:202F700008700098806806900698002141805648007810B10098407CC0B10098806800888F
:202F900040F60201814205D10699088A20F47C70088204E00699088B20F47C70088300985B
:202FB000002141740098806802F033FF0098806802A907F0FDFC02A808F0F6F806980790A7
:202FD00002E00798406807900798406830B107984068008840F60A018142F2D13549079846
:202FF00041600799487B20F00F004873374808F00AF9806809900998008840F603018142C2
:2030100005D00998008840F60401814203D130490020086020E00098008CE8B1009820302A
:2030300008900898002141800898002141600899087B20F00F00087308980D30017821F0DF
:203050000F0141F0010101701D49089808601D49087820F00F000870124800680028FBD00C
:203070001049002008601B48006801680120884701280AD007980D30017821F00F0141F091
:2030900001010170144807F07DFF00988168487C20F00400487400980349806808600BB0DA
:2030B00000BDC0461C1004400010044001010E04A90500008C2200208E220020982200203F
:2030D0009022002099220020542000206422002044200020E0010010F17800002DE9F04FC6
:2030F000ADF1840D209001F051F907F003F90026012804D107F0F2FD022808BF01265B49ED
:203110000868C0F38150012806D151F80C0C0127010E07FA01F006435548007807F010FBC1
:20313000544D2C46286038B1FF2204F1400107467F1E01F8012BFBD1209909684FF0000957
:2031500001F0FF02FE2A1DD0DDF880C001F0FF074A460123FF2F0ED0B84203D903FA07F7BB
:203170003E4201D002207EE001F0FF0147EA0909611881F840205CF8041F521C01F0FF070C
:20319000FE2FE7D1092002F03FFB2098002124220823606017A808F0EBF94FF0010804F103
:2031B000240017AA8DF87480414608F0DDF9236843B3002794354FF0040BBA4608FA07F094
:2031D000064219D119EA000F04BF07F0FF0141F4C04105D0E019209B90F8401053F82110CE
:2031F000254801F0CFFFF8B24FF0FF3107F0C8FC2368C5F800A001E0C5F800B07F1C2D1DA4
:203210009F42DBD301A800213022082308F0A8F91A4E30780025102101AB0990184A00958D
:2032300004F1080008F098F90DA828220823294608F08EF90DAA7068124914952B46139039
:2032500004F1600008F080F90F4951F80D0C474620F4F85040F4005041F80D0C0B4EC1F80D
:20327000FF7F2846376021B0BDE8F08FB43F00503A230020101A0020007FC767E0B9000076
:20329000ADAB0000B19800000D3009400800094000B5ADF1140D8DF8000000208DF8010007
:2032B000A7E01420052104F01BFE4FF4417001A9FEF79CFD9DF804008DF80C009DF8050020
:2032D0008DF80D009DF806008DF80E0000208DF8100000208DF80F009DF809008DF813007F
:2032F0009DF808008DF812009DF807008DF81100082103AA0020FFF719FB8CE0494807F064
:2033100077FC10B9474807F0A1FE002007F084FA81E04548007840B144490220087001F038
:20333000F3FB43490020087004E040490120087006F0D8FA3B4807F05BFC10B9394807F08B
:2033500085FE3C4800681321002206F007FD394800681421002206F001FD04F044FA5AE0FE
:203370003249002008700DF101020120012102F0ADFA2D49002008700DF1010200200121FC
:2033900000F022FE07F030FE2A4800681421002206F0E4FC2848007800283CD006F0A2FA33
:2033B00039E02249032008700DF101020120012102F08CFA1C49002008700DF10102002004
:2033D000012100F001FE07F00FFE1C48007820B101F09AFB16490020087007F019FE1AE096
:2033F00007F016FE134800681321012206F0B6FC11E09DF80000401E3FF453AF401E3FF446
:203410007DAF801EACD0401ECBD0401E81D0401E01D0401EE4D09DF800000949087005B059
:2034300000BDC046EC2000200A0A002028230020150A00207423002082230020090A002000
:20345000000A00202DE9F843634C5C4D5C4EDFF87881604F94F8E4100846401E0B2864D8C5
:20347000DFE800F07E2C43062343062343067967042907D001220A2945F8212C14BF022001
:20349000032004E0202045F8210C0120024684F8E200002045F8390C0827C5F8FF7FC5F8DB
:2034B000F37F45F8392CBDE8F883052914BF09200620002784F8E400376078E094F8E17025
:2034D000383D0120002FC5F81B0004BF0620002102D00021F160032084F8E400032045F80E
:2034F000010C31603068800861D294F8E4103548012703290ED000684568002160220523BC
:2035100000914046A84794F8E400062814BF0A200720CFE70068456800216022052302201B
:2035300000904046A8470420C4E708F009F8BDE8F8832648264F0026012506600E203D602E
:2035500002F034F8022006F0E7FD84F8E45084F8E360BDE8F883002038600C25786024E0ED
:203570004FF08059D9F8A0010168202088472C3D0F2045F8010C41F61D56C5F80360D9F8BC
:20359000A401466800214FF4C0720723022540460095B047D9F8A401C66800214FF4C07295
:2035B00007234046B0470120386084F8E45004F17800FDF7A9FABDE8F883C04639400C40FC
:2035D00038600C40A401001000A00C402C500C4004800C4034600C406804002000B5ADF1FF
:2035F000240D0393029201910090009858B1019848B1029838B1039828B10398006A10B14E
:203610000398406A48B9039820B103986FF0010180F82C106FF001009FE00398816A50483B
:20363000006807F0B9FF039981F82C00039890F92C0038B903986FF0020180F82C106FF0D1
:2036500002008AE00398039A016A03985288007800EB400080180C3080B28847414908606C
:2036700058B93F48006807F093FF03984FF0FF3180F82C104FF0FF306FE03A4801680398B0
:20369000408840180490039804990078001D09180591039805990078001D091806910398C1
:2036B00005F068F803980078C01C411000EB917004998010086003980078C01C411000EBB9
:2036D000917005998010086003980078C01C411000EB9170069980100860039A04980099AE
:2036F0001278001D03F0D6F904980499059A069B07F022FF8DF81C00039A059901981278C1
:20371000091D03F0C7F9039A069902981278091D03F0C0F9039802780398408802EB4202E5
:20373000121810480068002104F01CF90398416A0C48006888470A48006807F029FF9DF826
:203750001C00992802D100208DF81C009DF91C00039981F82C009DF91C0009B000BDC046C7
:2037700054160020884F002080B502AFADF1180DADF8123003920291ADF8100000208DF8A6
:203790001600FF208DF81700029805A904F0E0FB012840F081800120A1E0388838B9BDF8CF
:2037B0001200102806DD0D208DF8160002E00B208DF816009DF8160000287DD10298039905
:2037D000BDF81220C06803F065F900208DF8170072E0388838B9BDF81200052806DD0D20B6
:2037F0008DF8160002E00B208DF816009DF81600002861D10398007810280FDC0298039905
:20381000BDF81220C06803F045F902983549C068814251D101208DF817004DE080208DF824
:20383000160049E0388838B9BDF81200022806D00D208DF8160002E00B208DF816009DF8BC
:203850001600002838D10398007806280DDA02980399C0680988018002982349C068814288
:203870002AD102208DF8170026E080208DF8160022E03888009001200190BDF812300299A8
:20389000039ABDF8100003F0CFFA8DF8160013E00A208DF816000FE0BDF8140042F60211A4
:2038B000401AE6D048F2FF21401A3FF476AF401E8FD0401EB6D0EBE79DF81700FF280CD0BA
:2038D0000A48006848B109480068006828B10748006801689DF8170088479DF8160006B02F
:2038F00080BDC0464423002064230020CC0C002000B5ADF11C0D01910090FDF709F94F4824
:20391000504A006800214FF0FF3307F011FE4C4908604B4800680028F1D0002002900DF16C
:203930000E0102AA03A805F03AFE40BB01208DF81000BDF80C00102819D143489DF80E1012
:203950000078884213D102980590059800884FF6FF71814206D105984088C00F07D304F08C
:2039700029F904E0029806F071FB8DF81000029828B19DF8100010B1029807F0ADFB304816
:203990000068C00F13D30CE03048006806F042FE0490049828B1049806F095FC049807F039
:2039B0004DFC2A48006807F0BFFD0028ECD024480068400907D222480068800903D22048AF
:2039D0000068C00901D301F099F91D480068000A01D306F021FB1A480068400A01D306F0B4
:2039F000FBFB17480068C00A01D305F0FBF814480068000901D307F0A1F911480068C008B9
:203A1000FFF47DAF12480078062803D010480078022802D10F4807F019FB0D48007806287A
:203A300001D107F0C1FC0A48007802287FF467AF1420012104F054FA61E7C04678230020D2
:203A500070230020F70700C0812300202C230020000A0020EC20002000B5ADF1240D029145
:203A7000019000F049FE4748474A006800214FF0FF3307F05DFD039003980028F3D00020CA
:203A900004900DF1160104AA05A805F088FD30BBBDF8140010281DD13C489DF81610007807
:203AB000884217D104980690069800884FF6FF7181420CD106984088C00B0BD33448ED21FE
:203AD000042204230090102002F0AAFE02E0049804F0E4F8049810B1049807F0FDFA03985F
:203AF000400840D32B48007818B92B480078002839D02948007818B103208DF818000EE023
:203B1000264800788DF81800254800788DF8190024490A680DF11A000260898881802248BA
:203B300000788DF82000214800788DF8210017480178502005F070FE0246842106AB102058
:203B500002F06EFE78B11A49082008701948006848B118480068006828B1164800680168D1
:203B70001348007888470398800803D31249002002F090F80398C008FFF475AF05F09EFC9C
:203B900071E7C046B822002007000080B4220020C0220020E4090020E5090020C42200201D
:203BB000C5220020D90C0020C6220020C7220020BC220020F80900200C0C00200EB500902E
:203BD00007F098F802900298800829D349480068019028B3474900200860029A0198019952
:203BF000006910408A69104340F0020088610198414902690868904308600198103090E811
:203C10000C003E4908681A1C904308603C48019904F07EFD3B4807F09BFB022107F0E2F88F
:203C3000344800680190029880081DD201990298103106C90023014002EA0300002800D15E
:203C5000002911D0019830490860029A01980199006910408A69104388612A4807F078FB3D
:203C70004FF4804107F0BEF82248006800283FD1264807F0C8FA0028019039D0244801998A
:203C90000068C968884207D01E4807F061FB4FF4805107F0A7F82BE00198806805F066FE92
:203CB0001C49086020B11B48006802F069FD1FE0114901980A6800691043086001981030D2
:203CD00090E80C000D490A68181C1043086012490020086001981149806808600E480068B5
:203CF0000028FBD0094806F03DFD0198014908600EBDC04668220020141004400C100440B2
:203D100070220020CC1F00206C2200206422002034200020502000201C10044000100440BA
:203D30002DE9F04F04466568A7688846ADF1440DFCF7DEFE95F8DC10012903D1FCF7DCFE28
:203D500000208DE04FF0010B85F8DCB0FCF7D4FED8F80C00666828B9A06890F814A090F856
:203D7000159003E090F800A090F80190BAF1FF0FE6D0B9F1FF0FE3D03B4941EA0A000D903A
:203D9000FE230F9341EA090106F198000E910DA902F01AFFC6F8A400D6F8A4000028CFD091
:203DB00051460D2206F0BCFAD6F8A40049460E2206F0B6FA98F800002870D8F804006860E6
:203DD00098F80800002130220823E86001A807F0C7FB0026387B069401AB244A0096B968AF
:203DF000099005F1100007F0B7FB01A828220823314607F0ADFB38691D49059401AA334673
:203E1000079005F12C0007F09FFB01A824220823314607F0ADFB8DF81CB005F160005946D2
:203E300001AA07F0A1FB287838B905F17C00314601AA07F099FB0F4868602E72C5F8BC60EC
:203E5000C5F8C060786801F0DFFC204605F0C2FC094A05F1C8000421234606F08BFB20462F
:203E700011B0BDE8F08FC0460020008419480000BF8D0000A9B30000E9B1000000B5ADF1AD
:203E9000140DADF808000020009000208DF80C00BDF80800001DADF80800FFE7BDF80800B9
:203EB00000F003008DF810009DF8100038B19DF81010BDF80800401A001DADF8080006F050
:203ED000A9FF3E490860BDF80800102803DC3C480068019002E03B4800680190019800886B
:203EF000ADF80A00BDF80A00000C09D3BDF80A0080F40040ADF80A0000208DF80C0020E089
:203F10009DF80C0090B1009901980A880088801808800099BDF808000988884211DC00980D
:203F3000019001980088ADF80A001AE0BDF80800BDF80A10884214DD01208DF80C00019884
:203F500000900199BDF80A004018019001980088ADF80A00BDF80A000028C3D10020019083
:203F7000FFE7019810B3BDF80810BDF80A00401AADF80A00BDF80A0004280FDB0199BDF836
:203F9000080040180490BDF80A0004990880BDF80800019940F40040088004E001990888D8
:203FB00040F4004008800198001D01900348006806F048FE019805B000BDC04678220020F4
:203FD0007C2200208022002000B5ADF1140D03928DF811108DF8100000208DF8120072E004
:203FF0009DF81100012804D103983F490078087076E018208DF8120072E09DF811000228B3
:2040100008D103980078502804DC039837490088088065E018208DF8120061E09DF8110026
:20403000012812D10398324990F90000087013200090FF2001903048304B02902D482C496B
:204050000068002201F030F84AE018208DF8120046E09DF81100012812D10398284990F947
:204070000000087013200090FF2001902248234B0290244822490068002201F015F82FE06D
:2040900018208DF812002BE09DF81100012812D103981D4990F90000087013200090FF20A0
:2040B00001901548154B0290184817490068002200F0FAFF14E018208DF8120010E0022008
:2040D0008DF812000CE09DF81000002888D0401EA4D0401EBDD0401ED6D0401E8DD0EEE7D7
:2040F0009DF8120005B000BD390B00203C0B0020410B0020F8220020655D0000080200203A
:20411000420B0020FC220020430B00200023002000B5ADF1340D039302920191009007F05C
:20413000FFF90490049804F02BFA05900020069007F0DEF88DF828009DF8280018B19DF84E
:204150002800012802D16FF004007FE0059810B96FF004007AE0009810B90020079010E03E
:204170000098B0F1FF3F03D14FF0FF30079008E0009807A904F07EFC0990099808B10998AD
:2041900064E00120099007F0C7F90799081808904AE00DF12E000DF12F010AAA04F033FEA5
:2041B00009900998002829D19DF82E000BA904F08FFCC8B9019BBDF82C009DF82F100A9A27
:2041D000984788B1029818B1BDF82C0002990880039818B19DF82F00039908700A980E99CB
:2041F00008600020099029E00A9906A804F08BFF059840684FF0004107F08AF901200990BD
:204210000798B0F1FF3F0FD0079868B107F084F90899081A0C900C9880B107980C998842C3
:2042300000D20BE00C9807900598079B406800214FF0004207F07CF90028AAD105F035FEB6
:2042500005980699083005F085F909980DB000BD00B5ADF13C0D00F099F83449086840F012
:204270000200086001A806F043FE31480078079031493048002301AA07F066F901A806F0A7
:20429000F5FD0020ADF81C002C480078099000202C4A00902A48192101AB07F05DF901A842
:2042B00006F026FE2848007807902949274801AA002307F049F901A806F0D8FD0120ADF833
:2042D0001C002448007809900020244A009022481A2101AB07F040F921482249002200237D
:2042F00007F012F9204806F04DFE20480D900D984FF6FF7181821E49012008700D980021DB
:20431000C1751C49002008701B49002008701B49002008701A49002008701A49002008706C
:204330001949002008600FB000BDC0460020094066BA0000CC1F002039AC000064BA00006A
:20435000DC2100200DA4000067BA000000200020ED54000065BA0000F8210020217D0000E7
:2043700080200020F99C0000054E00004C22002055200020542000205620002057200020A1
:204390005820002059200020442000202DE9F0434A4D95F8E700ADF12C0D00287AD13F4F2C
:2043B000387B01240021242285F8E7407E6885F8E6000823C5F80C6101A807F0A1F800260D
:2043D00005F10C00069601ABADF8146034490796324607F099F8334905F1300001AB32468A
:2043F00007F092F8304905F1540001AB324607F08BF8B96820468847DFF8BC802B4808F1F6
:2044100004037A7B00781868C0F3815922B1B9F1030F04D185F8E140B9F1030F1ED0B9F1B5
:20443000020F1BD0B9F1010F2DD14FF08059D9F8A4011F4F456831464FF040521C23032065
:2044500000903846A847D9F8A40131464FF400720923456800943846A84714E0022005F0C8
:2044700073FEB9F1030F0CBF4FF47A7142F21071104800685435B1FBF0F12846FCF740FBDF
:204490002846FCF741FB40460068C00802D2304605F05AFE0BB00020BDE8F08308B900006E
:2044B0005F6F0000F1760000B57200003A23002000A00C4070BA0000B03F00506804002032
:2044D00080B502AFADF1200DADF8123003920291ADF8100000208DF81600FF208DF81700E1
:2044F000029805A903F034FD012852D1012070E03888A8B9BDF8120001280DD1BDF81400CB
:204510004AF6662181420ED10398007803280ADB80208DF8160006E00D208DF8160002E034
:204530000B208DF816009DF8160000283ED10298C06806900398069900780870BDF8140078
:204550004AF66621814208D102982349C06881422CD101208DF8170028E002981F49C0680B
:20457000814223D100208DF817001FE03888009001200190BDF812300299039ABDF81000C3
:2045900002F052FC8DF8160010E00A208DF816000CE0BDF8140042F60211401AE6D048F231
:2045B0006311401AA4D0401EA2D0EEE79DF81700FF280CD00A48006848B109480068006881
:2045D00028B10748006801689DF8170088479DF8160008B080BDC0465B0C0020590C0020A5
:2045F000540C002080B502AFADF1200DADF8123003920291ADF8100000208DF81400FF20DE
:204610008DF8150002980078022858D102980299406849684078097800F0FF0001F0FF01E4
:2046300001EB0021ADF818103FE0388878B9BDF81200012803DD0D208DF814000AE0039865
:204650000078022806DD80208DF8140002E00B208DF814009DF81400002833D10298C0684F
:204670000790039807990078087002982049C068814203D100208DF8150023E001208DF843
:2046900015001FE03888009001200190BDF812300299039ABDF8100002F0C6FB8DF81400B4
:2046B00010E00A208DF814000CE0BDF8180042F60211401AE6D0B0F58270B6D0F1E701200D
:2046D0008DF814009DF81500FF280CD00948006848B108480068006828B1064800680168BA
:2046F0009DF8150088479DF8140008B080BDC0461D0C0020180C00200EB53248324901F057
:2047100045FC32490020087031494FF6FF7008801020D72102F084F82E49087000202F4962
:204730000090012001902C480022002304F042F900202A49009002200190294800220023B3
:2047500004F038F90020254900900420019025480022002304F02EF9234904200870234811
:204770001022002103F0FEF821480021102203F0F9F82049002008601F49002008701F49F4
:20479000002008701E49072008701E4900200870164802221023EC210090102002F040F8C0
:2047B0001348EC21032210230090102002F038F81048EC21042204230090102002F030F8BB
:2047D0000EBDC046B4220020B8220020BC220020EA0900208023002010210020F5B200003C
:2047F000342100207C210020BD220020C8220020D8220020C0220020C4220020C522002045
:20481000C6220020C7220020B0B544688068006806F09AF93A4A012302F114052B6050B14D
:20483000217AFF2907D0FF214009217263D2042045F8180C44E0207A00285CD03149401E2E
:204850001AD0401E02D0FD3855D051E01568D4F8B4000570D4F8B870D4F8B400401CC4F8A5
:20487000B400781EC4F8B800D4F8B87027B3012F3BD9092202201BE0D4F8B000401EC4F87A
:20489000B000D4F8B070EFB9D4F8B870A7B10220D4F8A83020721B7C083A012F4FEA430398
:2048B00043F0010313609CBF0321516001D90B220A6006F08AFDB0BD0020207204230B606F
:2048D0000220F6E7D4F8AC0000781060D4F8AC00022F00F10100C4F8AC00F0D2D4F8B870B0
:2048F000002FECD100202072052342F8043CE7E7FF202072B0BD04F12C0006F0FDFDB0BDFE
:20491000082800400428004000B5ADF14C0D119310920F910E903948007820B9FFF798FC1F
:204930003649012008700F9818B10F980E99486001E000205FE0109818B110980E99886001
:2049500001E0002057E0FCF7D3F812902C480078002804DC2A490878401C087004E0129866
:20497000FCF7CAF8002046E01298FCF7C5F8119820B909A806F0D6F909A8119011980E9938
:204990000068086011980E994068C86011980E99007C087411980E99806848610E98012126
:2049B000417411980E99408A48821198C06818B111980E99C06888610E980021A02220307A
:2049D00002F0D0FF684606F088FA01208DF818000E9800216A46383006F0C6FD684606F0E6
:2049F00050FA0E9806900E98064900226B46703006F08AFD0E9813B000BDC0461B0A0020CB
:204A100040200020DDB2000080B502AFADF1200DADF8123003920291ADF8100000208DF85D
:204A30001400FF208DF8150002980078022852D102980299406849684078097800F0FF0084
:204A500001F0FF0101EB0021ADF8181038E0388890B9BDF81200012803DD0D208DF81400C4
:204A70000DE00398007850B103980078012806D080208DF8140002E00B208DF814009DF89F
:204A9000140058BB0298C0680790039807990078087000208DF8150020E038880090012030
:204AB0000190BDF812300299039ABDF8100002F0BBF98DF8140011E00A208DF814000DE081
:204AD000BDF8180042F60211401AE6D04DF29F61401ABCD0F0E701208DF814009DF815003E
:204AF000FF280AD00748006838B106480068006818B104480068006880479DF8140008B0DA
:204B100080BDC046340B002008B53748006805F041F936480078032830D126E0344901204A
:204B300008704FF4966001F091FC324901200870314806F08BFA1420012103F0D1F952E0E9
:204B50002B49022008704FF4FA6001F07FFC294901200870284806F079FA1420052103F0FD
:204B7000BFF940E004F0BEFE3DE0244800780028F8D0401ED2D0401EE2D0F3E71B480078E7
:204B9000022830D126E01A49012008704FF4966001F05CFC174901200870174806F056FAB8
:204BB0001420012103F09CF91DE01149022008704FF4FA6001F04AFC0E49012008700E48FC
:204BD00006F044FA1420052103F08AF90BE004F089FE08E00A4800780028F8D0401ED2D0B9
:204BF000401EE2D0F3E708BD742300202823002082230020140A002058210020090A002005
:204C10000A0A00202DE9F043DFF8E0808946054617464FF0FF31ADF13C0D404606F0BCFCCF
:204C3000334C04EBC50466682568FBF761FF2168096800290BD42968002905DCB9F1000F2A
:204C500009D04FF0FF3108E0B9F1000F03D0FBF753FF002442E02968491C2960FBF74CFF42
:204C7000286802283ADA1FB90DA806F091FB0DAF38686860B76800213022082301A806F0C7
:204C90006FFC4FF00009069401AB307B194A09903946CDF8009005F12C0006F05DFC01A876
:204CB00024220823494606F063FC012705F1640001AA8DF81C70494606F056FC05F148003C
:204CD00001AA394606F050FC706800F09DFD0A4A05F118002346042105F04CFC404606F04D
:204CF00057FC20460FB0BDE8F083C046C0210020D8B90000C1A60000C1B3000008B5364866
:204D10000068800903D313200A2103F0E9F832480068C00905D331480078062801D103F023
:204D3000BDFF30482E490078097888424FD02D4A0020012102F08CFE29480078400806D397
:204D500028480078400802D227490020088024480078800806D323480078800802D2234937
:204D7000002008801D480078022803D11D48007805F052FD1A480078400805D319480078AC
:204D9000400801D202F0FEFF15480078800809D314480078800805D210480078062801D0BE
:204DB00003F07CFF0F48007810F0030F0FD00C48007860B90E4805F01BFF40B90C4806F028
:204DD00045F90A4900200880074900200880054803490078087008BD70230020000A002067
:204DF000E50C0020522300205423002056230020C82000201FB5019100900198042858D1E1
:204E10002D4806F000FA029018B102982B49C06808602A48006840682949007808602748E1
:204E300000682749406809680078884210D023480068806960B121480068806903901F48CE
:204E5000039C00686FF0FF0100224FF00073A047022005F079F9112000F0D6FC1949012022
:204E7000087016480068007C10B11748007810B90E2000F0C9FC114800684068806820B9FA
:204E90000E4800684068C06828B110490020086010480F49086006F08FF90F490020086044
:204EB0000F480E4908600F4806F06CF8192006F01FFB00901FBDC046642200203420002046
:204ED000D021084056200020542000201C1004400010044051000706181004401410044069
:204EF00002000040152F000008B58DF800009DF80000012825D13149012004F06DFA2F48B9
:204F10000078022809D106F0CFF92D4908702C4A0020012101F022FD1AE0294A00200121E2
:204F300001F01CFD274800681321002204F016FF244800681421002204F010FF05F01CFAE8
:204F500006E09DF8000018B91D49002004F044FA1A480078012830D119480078400806D33F
:204F7000184800681321012204F0F8FE05E0154800681321002204F0F1FE114800788008DC
:204F900006D3104800681421012204F0E7FE05E00C4800681421002204F0E0FE08480078A5
:204FB000C00808D30748006804F0F4FE4FF4FA6001F04CFA01E005F0DFF908BD5A200020C0
:204FD0005B2000207423002030B5ADF1140D8DF808100090324801903BE001208DF80C00C6
:204FF0009DF80C00A8B1019801990079497901F027FB8DF80C009DF80C0050B101990198C0
:205010008A79007A009905F0E5FD8DF80C0005F0E1FF9DF80C0020BB00208DF8100009E013
:2050300000989DF81010FF220A549DF81000401C8DF8100001989DF8101080798842EFDC22
:205050000FE00199019A00988968927901F022FD07E0019800790028BFD0401EBDD0001FBE
:20507000EFD0019882790F49009805F0E7FB0025002400B1012404B101258DF809509DF899
:20509000090040B19DF8080028B1019800998279044801F0FFFC9DF8090005B030BDC046E5
:2050B00030220020540B002080B502AFADF1200D04938DF814200391029000208DF816000D
:2050D000029828B1039818B1049808B1B86808B9022052E000208DF8150046E09DF81510C5
:2050F000029800EB81000690069800884FF6FF71814235D006988078002831D03988049845
:20511000039A04F041F90790079848B306988078400810D338790090B868019006989DF89D
:205130001420079B0088012100F032FC9DF8161008438DF8160006988078800810D338796E
:205150000090B868019006989DF81420079B0088022100F01DFC9DF8161008438DF81600A0
:205170009DF81500401C8DF8150005489DF8151000788842B2DC9DF8160008B080BDC04602
:20519000802300202DE9F0470D4606465FFA85FA280824BF2E4845402E494FEA8A03C8580D
:2051B00085EA00023240C2F300672B4A06EA0504B043224006F4E0240243B4F5E02F01D150
:2051D000500E14D306F4E020074310D002F4E027B7F5A02707D0B7F5803704BF22F40032A1
:2051F00042F4A02203E022F4803242F4C022DFF86C80CA5008F1D00739680122002002FA57
:205210000AF40C4218BF101C5FEA000906D1F00D04D34146C5F3805001F80A00300E0BD304
:20523000FBF766FC290E34BF0021211C3A68A24311433960FBF760FCB9F1000F06D0F00D34
:2052500004D34046C5F3805100F80A10BDE8F087006000A000100840007F077F002002406B
:2052700000B5ADF1140D029000208DF810002B48007880000390BDF80C0005F07DFF2849C2
:2052900008602748006808B9132044E0BDF80C0005F072FF234908602248006828B9204891
:2052B000006805F0CBFF132035E0BDF80C0005F063FF1D4908601C48006848B918480068F4
:2052D00005F0BCFF1748006805F0B8FF132022E0134909684FF6FF7002F032FC11490968FA
:2052F0004FF6FF7002F02CFC0F4909684FF6FF7002F026FC029840080BD3102000900C4A69
:205310000A48C72113230190102001F089FA8DF810009DF8100005B000BDC0468023002063
:20533000F8220020FC2200200023002060B900000802002000B5ADF11C0D0293019200912A
:20535000ADF8180006F0ECF801F028F90490049810B96FF002004EE005F05CFD0590002009
:20537000039003980B283FD20399880000EBC1002249085A10BB0399204A880000EBC10009
:20539000BDF81810115203991D4A880000EBC1000499115003991B4A880000EBC1000099BA
:2053B00011509DF80C00019908700498029940680860059805F046FC00201CE0039988006E
:2053D00000EBC1000D49085ABDF81810884205D1059805F037FC6FF002000CE00398401CD3
:2053F000039003980B28BFD303F03CFE059805F029FC6FF0030007B000BDC046C81D0020E5
:20541000CC1D0020D01D0020F8B505F023FF02F019FF05F037FF054605F00C000C284CD0D1
:20543000E8081ED205F000F8264E376804460120014605F05CFB31686143884211D2224E24
:205450008220B0FBF7F0211A3046FBF759FB3046FBF75AFB0120FDF757F8304606F0A8F8E4
:205470002DE0280929D2194CA4F1200620688168174888470746042FF8D01648690905D235
:2054900027B101460A6822F0010203E001460A6842F001020A6098310A6842F003020A603F
:2054B00030688169202088470B4C37682068B86B804701202060206801E005F08CFF05F064
:2054D000CFFEF8BD70BA000074040020D8010010004003408C2108402C20094010B5ADF11F
:2054F000180D019100902F480290FBF701FB03900298006910F4602F45D002980069400CD1
:205510008DF810009DF81000400803D300208DF810000EE09DF81000800803D301208DF8D7
:20553000100006E09DF81000C00802D302208DF810009DF81000401D40B202F0BBFF9DF837
:205550001010029A0120113188401169814311610398FBF7D1FA9DF81010029800EB810091
:20557000406898B19DF81010029800EB8100446802989DF81010006800224FF00063491DE2
:2055900009B2A04702E00398FBF7B6FA0298006928B1054805F0DCFE002105F023FC06B057
:2055B00010BDC0464C220020002000202DE9F8430446FBF79DFA81462B48021992F8ED103A
:2055D000491ECFB2002F82F8ED7046D1294901EB84042578618835F07F07884618D1E909F6
:2055F0000FD24FF0805000F5DC76D0F8B8018169404688473068416B404688470228F9D117
:205610001EE000EB8800D0F800110020884717E04FF08056D6F8B801016A40468847D6F820
:20563000B801816A40468847D6F8B801016B404688470E49012008600D4908688008FCD31C
:2056500005F03F003F2801D0FFF7B0FF607800F03F003F2801D0FFF7A9FF4846FBF74CFA86
:205670000020BDE8F883C046680400202820086028200840C8B5000000B5ADF1140D039282
:205690008DF811108DF8100000208DF812003DE09DF81100062815D10398234902680A6056
:2056B0008088888008200090FF2001902048214B02901E481C4900680022FFF7F5FC8DF83B
:2056D00012002CE018208DF8120028E09DF81100082806D10398184902680A6040684860F8
:2056F0001DE018208DF8120019E09DF81100012804D1039811490078087010E018208DF89F
:2057100012000CE002208DF8120008E09DF810000028BDD0401ED9D0401EE6D0F2E79DF8F7
:20573000120005B000BDC046D30C002058230020397C000078050020340C0020430C002014
:2057500008B500208DF8000000208DF8010000208DF802000DF101010DF10202684603F0E7
:20577000A9FC26499DF9000091F90010401F884207DC22499DF9000091F90010401D884207
:2057900008DA9DF900001D4908701C4A01200121FEF71AFC1A499DF9010091F90010401FFC
:2057B000884207DC16499DF9010091F90010401D884208DA9DF9010011490870104A0220AE
:2057D0000121FEF701FC0F499DF9020091F90010401F884207DC0B499DF9020091F9001089
:2057F000401D884208DA9DF9020006490870054A03200121FEF7E8FB08BDC046170A0020B9
:20581000180A0020190A0020F8B50646FBF770F92A4D0746A91991F8ED00421C002881F8A4
:20583000ED2045D1264C04EB8604267806F03F003F2801D0FFF7E8FF607800F03F003F28F4
:2058500001D0FFF7E1FF648836F07F0018D1F0090FD24FF0805000F5DC75D0F8B8014169BD
:20587000204688472868416B204688470128F9D11EE005EB8405D5F800110120884717E043
:205890004FF08055D5F8B801C16920468847D5F8B801416A20468847D5F8B801C16A204682
:2058B0008847084901200860074908688008FCD33846FBF721F90020F8BDC0466804002027
:2058D000C8B50000282008602820084000B5ADF1140D03928DF811108DF8100000208DF812
:2058F00012003CE09DF81100012808D103980078022804DC039820490078087038E0182061
:205910008DF8120034E09DF81100012804D103981A49007808702BE018208DF8120027E059
:205930009DF81100012812D10398154990F90000087004200090FF2001901348134B0290FC
:2059500010480F4900680022FFF7AEFB10E018208DF812000CE002208DF8120008E09DF87D
:2059700010000028BED0401ECDD0401ED8D0F2E79DF8120005B000BD1D0C00201F0C0020CA
:20599000210C002060230020817000000008002090B503AFADF1240D06938DF821208DF844
:2059B0002010ADF81C00BDF81C001B214FF6FF720DF11E0304F03EF905900598002841D06E
:2059D00000200090BDF81E000190FF2002907C680699059ABDF81C000DF11203A0478DF880
:2059F00022009DF8220028BB06984089ADF810009DF8200040080CD39DF821000090BDF8E8
:205A10001C20A52104AB102000F00AFF8DF8220010E03978502003F0FFFE9DF8211000919D
:205A30000190BDF81C2004ABA421102000F0F8FE8DF822009DF8220038B104A81B2104F027
:205A50005BFE02E015208DF822009DF8220009B090BD2DE9F8430D46064668687468B768A7
:205A70004FF0000810B9E86800284FD02078012814D1FBF73DF8D4F8BC1049B1D4F8C01074
:205A90008D61C4F8C050FBF737F80120BDE8F883C4F8BC50C4F8C050FBF72EF8022004F018
:205AB00053FB04F160004FF0FF31814605F074FDB86805F019FD3046294601F021FB05462F
:205AD000B86805F015FD207888B9B5F1FF3F08D004F17C004FF0FF3105F05EFD207A48B137
:205AF00011E003202072022004F016FB0BE0B5F1FF3F02D04FF0010805E00320207204F151
:205B10002C0005F0F9FC484605F042FD4046BDE8F88370470EB52848001D20F0030001904C
:205B30002648029001990298401A2549086025490198086023482449006808602148006809
:205B5000009005E00098002101800098801C00901C4801681A480068401800998842F1D8A7
:205B70001748006881081848006800EB8100001F00900098002101801348006800900098BD
:205B9000E821018010480068E83000900C48006881086FF0EB0000EB8100009908800B4993
:205BB000009808600020FEF769F90949086006480649006808600EBD83230020A43C0020A6
:205BD0006C23002084220020882200207C2200208022002000B5ADF13C0D0393029201919E
:205BF00000900398006800282FD10C20FEF746F90490049810B96FF0030042E005A805F05B
:205C10004BF90020ADF8240000200A9004980B9000991D4805AA002305F062FC049908602E
:205C30000498006838B905F0AEFB049803F084FF6FF0030025E00198049948600298049933
:205C5000886004980399086011E00398006804900E480068804705900498006805F0A8FC6D
:205C70000298049988600A48016805988847049800990068FAF744FF04980068FAF744FFC5
:205C900000200FB000BDC046A9AF0000E80B0020EC0B002000B5ADF1140D00918DF8040042
:205CB0002649009809884088884211DC009823498088098888420BDB00982149C088098895
:205CD000884205D100981F490089098888422ED010207E21052200F0A3FDADF812001A4893
:205CF0000088ADF8080000984088ADF80A0000988088ADF80C000098C088ADF80E000098D4
:205D10000089ADF81000852102AA102000F088FD8DF805009DF8050060B99DF804000B4914
:205D30000870BDF812100A4803F082FC02E018208DF805009DF8050005B000BDEC0900207C
:205D5000EE090020F0090020EA090020F40900207C21002080B502AFADF1180D0293019245
:205D70000091ADF80C0000208DF810003888002801DD0B204BE00098007802283FD100981E
:205D90000099406849684078097800F0FF0001F0FF0101EB0021ADF80E1021E0029802215A
:205DB00001800098C0680199008800F0FF0008700098C06801990088C0F30720487024E091
:205DD0000298012101800098C0680199007808701BE00298002101800A208DF8100014E042
:205DF000BDF80E004FF6A171401AE9D0401ED5D0401EE5D0401EE3D0401EE1D0E9E70298C6
:205E10000021018001208DF810009DF8100006B080BD704700B5ADF1140D029000208DF820
:205E30000C00029840080BD310200090234A2248C72103230190102000F0F2FC8DF80C00B1
:205E50009DF80C0070B9029880080BD3102000901B4A1948C72103230190102000F0E0FC47
:205E70008DF80C009DF80C0010BB0298C0081FD315480078800005F07FF9124908601148E3
:205E9000006890B10F4909684FF6FF7001F058FE102000900D4A0848C7210423019010204E
:205EB00000F0BEFC8DF80C0002E013208DF80C009DF80C0005B000BD9CB90000A8080020B9
:205ED0007808002060230020802300200008002008B5009028480078800803D327490888F1
:205EF000401C088024480078400803D324490888401C088022480088062817DB1F480088CA
:205F1000062813DB1F4804F073FE002832D01D4805F0A6F81A490020088018490020088053
:205F300019480068202105F0F3FA23E013480088032812DB1248008878B9124804F058FEB0
:205F5000C0B1104805F08CF80C49002008800E480068402105F0DCFA0CE00948008848B942
:205F70000648008830B9074804F042FE10B1054805F076F808BDC046522300205623002065
:205F900054230020C82000207823002000B5ADF1140D0191009005F0C3FA00F0FFFA0390D3
:205FB000039820B903F05EF86FF003003EE004F031FF04900020029002980B282FD20299C1
:205FD000880000EBC1001A49085A10BB0299184A880000EBC1004FF6F87111520299154AB1
:205FF000880000EBC100039911500299124A880000EBC100002111509DF808000099087005
:206010000398019940680860049804F01BFE00200CE00298401C029002980B28CFD303F08C
:2060300021F8049804F00EFE6FF0030005B000BDC81D0020CC1D0020D01D00200EB58DF864
:2060500000009DF8000038B92349002002F052FC214802F08DF83DE09DF8000001280DD145
:20607000012001A902F046FC9DF804001B4908700DF105001A49006808602BE09DF80000C6
:20609000022827D1022001A902F034FC14497E2008609DF80400134908709DF8050012491B
:2060B000087010480078052803D10C490420087002E00A4902200870084800788DF8040076
:2060D000074909680DF10500016001AA0120052100F092FC0EBDC0463C2200203622002054
:2060F00038220020342200203522002080B502AFADF1200DADF8123003920291ADF81000B4
:2061100000208DF8160002990298496840680978407801F0FF0100F0FF0001EB0021ADF85B
:2061300014102DE03888009001200190BDF812300299039ABDF8100000F076FE8DF8160029
:206150009DF8160018BB039803994078097800F0FF0001F0FF0101EB0021ADF818100E4831
:206170000068A0B10C480168BDF8180008B9022000E0012088470AE00A208DF8160006E084
:20619000BDF8140042F60211401ACBD0F4E79DF8160008B080BDC0461023002080B502AF2C
:2061B000ADF1180D029301920091ADF80C0000208DF810003888002801DD0B2041E0009843
:2061D0000DF10E0101F0C4FE01282DD1029800210180012035E003F0E7FF1B480299007807
:2061F0000880029A009901981288C96800F052FC25E00298052101800098C16801980A681E
:206210000260097901711AE00298022101800098C16801980988018011E002980021018047
:206230000A208DF810000AE0BDF80E004AF60141401AD0D0401EDCD0401EE5D0EDE79DF8E0
:20625000100006B080BDC046442300201D4838B50468B4F1FF3F08BF002404F0CDFF2448E6
:20627000244B194A002501211038056003F15C000160164B11601868806C804714480068CE
:2062900020B114480068204600F0C6FF124813490560134C0A686FF35B4244EA02000860BB
:2062B00010490868C0F30130012806D10A680E48104040F400320A6008600C4908680028E4
:2062D000FCD138BD1C13005008220443F001001080012843000120438C210840482003400B
:2062F0000000390104000940FFFFFCFC0C0068429404604200600C4000B5ADF1140D02926D
:2063100001910090FAF7F4FBADF8100023480068007810B9214804F0ABFB019848B920489D
:20633000006803684FF4807101224FF4807098471CE0019802F06AFE70B1029818B1029804
:206350004FF0FF3101700820FFF730F9BDF81000FAF7D2FB00201FE0114801990068019A6E
:2063700003684968019892680068984704F0A2FF04F0A6FF4008FBD309480068416802204F
:2063900088470390029810B1029800210170BDF81000FAF7B1FB039805B000BD18B90000C4
:2063B000CC01001000B5ADF1140D00938DF80E208DF80D108DF80C0000980C3802909DF800
:2063D0000D000B2803DA9DF80C000B2802DB6FF0020037E004F01EFD01909DF80D1088008D
:2063F00000EBC1001849085828B9019804F02AFC6FF0020026E0019804F024FC9DF80C00D7
:20641000029908719DF80D00029948719DF80E00029988719DF80D10880000EBC1000A49F2
:2064300008580099083002F06EFE9DF80D10880000EBC1000449085840684FF0004105F00D
:2064500067F8002005B000BDCC1D002000B5ADF11C0DADF814002448006808B9002041E027
:20647000BDF81400032806DABDF81400B0F5FA5F01DD002036E01D48FF2104F047FBBDF8ED
:2064900014101B48B0FBF1F0009000986FF31F400190009800F47F00000C02900098C0F36B
:2064B0004F0003900098400800F47F00000C04900E48019AFF2103F0CDFF0C48029AFF2117
:2064D00004F007F80948039A4FF6FF7103F0D7FF0648049AFF2103F0E7FF0448FF2104F008
:2064F00024FB012007B000BD040D002000000140006CDC0280B502AFADF1180D029301924B
:206510000091ADF80C0000208DF810003888002801DD0B203DE00098009940684968407824
:20653000097800F0FF0001F0FF0101EB0021ADF80E10BDF80E0042F61921814215D102F04A
:2065500097FF8DF8140014489DF814100078884203DD9DF81400104908700298012101800E
:206570000D4801990078087011E0BDF80E0042F60811814208D10298022101800098C1688C
:2065900001980988018002E00A208DF810009DF8100006B080BDC046B10B002000B5ADF1D2
:2065B000140D009004F036FC029000200190019808283CD20199880000EBC1001F49085844
:2065D000E0B90199880000EBC1001C490918039100980399086003980021816000210020B0
:2065F00004F07AFF039948600398406808B902F039FD029804F026FB03981CE00199880046
:2066100000EBC1000D4908580099884209D1029804F018FB0198810001EBC00107484018BC
:2066300009E00198401C019001980828C2D3029804F008FB002005B000BDC046CC1E00204A
:2066500008B58DF801108DF800001E4804F074FE1B491A4A0968B2FBF1F104F09DFF08B96D
:20667000002029E09DF801001749087017489DF800100078884217D09DF8000013490870DD
:206690001348006804F075FE124804F06DFD0F480078012802D111480F4908600D490020AE
:2066B00003F0EAF90A490860094A12680020002102B1012101B1012008BDC04620A10700F0
:2066D00070BA00001422002051230020502300204C230020E8220020F4220020B2BA0000A8
:2066F000F0B520480127F84201D002F00DFF204D204F214EBD4206D203CD0478A4003459AD
:20671000401CA047F6E71D48002800D08047164D164FBD4202D210CDA047FAE7F0BD032510
:206730001BE0416808300A1C2A400BD11A1C2A40AB4305D0046804300C600431043BF9D154
:20675000131C05D0047801300C700131013BF9D1021C2A4001D0A84304300368002BE0D105
:206770007047C046FFFFFFFF0000000000000000ECBF000054C00000A8BF000015C4011040
:206790000EB50090FAF7B4F9019020480078002837D01E490878401EC0B20028087030D100
