:20000000F03B00208D6B000001C9011001C9011001C9011001C9011001C9011001C901107B
:1C00200001C9011001C9011001C9011001C9011001C9011001C901103FC9011089
:20003C002DE9F04FBE4C04F1400004F16C01ADF19C0D04F02BFEDFF8D4A26061514608F0AD
:20005C0037F8A01C04F1100106F088FAB04D6E1D31680DF12A000160B1880DF12A0281800D
:20007C0010204C2103F0DAF804F14C070021384600F0F8FE04214FF47A720023276204F140
:20009C00A400A44F0091394606F0E0FA4FF480713222002304F1C8000091394606F0D6FA8F
:2000BC004FF48069C8224FF4487304F1EC003946CDF8009006F0CAFA10207D211F2205236A
:2000DC0003F0ACF801270821ADF81C100020ADF81A004FF448738DF86B7080468DF86C70E7
:2000FC000DF16B02ADF81E304FF47A71ADF8208040F20530ADF82210394601F0E1FE40F254
:20011C00063002210DF11A0201F0DAFE04F184024FF442701E2101F0D3FE04F1580240F295
:20013C000730142101F0CCFE4FF444701BAA394601F0C6FE40F21130022107AA01F0C0FE96
:20015C0040F2123002210DF11E0201F0B9FE40F21330022108AA01F0B3FE4FF4457002211F
:20017C000DF1220201F0ACFE05F11D006A21424615230090102003F051F810207D21062256
:20019C00A02303F04BF810207D210722A02303F045F810207D210822A02303F03FF810204B
:2001BC007D210922A02303F039F88DF86D70404605908DF86E0003278DF86F7070214FF4A1
:2001DC0081620423012710208DF8707005AF009703F024F806F1180B0DF16D00009070213C
:2001FC004A460123102003F019F80DF16E00702140F2024201230090102003F00FF80DF1AC
:20021C006F00702140F2034201230090102003F005F81CA8702140F20642012300901020C4
:20023C0002F0FCFF10206B214FF0FF3202F0F6FF1020C8214FF0FF3202F0F0FF1026364884
:20025C000096C7211323354A0190304602F0E6FFB146954F934ECDF80090C72103234846C4
:20027C00019706F10C0202F0D9FFA8468F4DC0B2E8B94E468B4A00964846C72103230197EB
:20029C003C3202F0CBFFC0B288B92878800004F0C9FF8449886050B107F0EEFB814A48469A
:2002BC00C7210090042301976C3202F0B7FF28788000824604F0B6FFCB4F0028F86034D076
:2002DC00504604F0AFFF07F10C063168386148B3504604F0A7FF786120B9306807F078F9B1
:2002FC00386920E0F86807F0C7FB386907F0C4FB786907F0C1FBBD49484607F11802009007
:20031C0013230191C72102F089FF0EE005610000B4830000F97F0000BC87000054110020CC
:20033C000C070020084607F053F9012013215A4604F01CFB02200521424604F017FB0520E2
:20035C004246014604F012FB08F130020320192104F00CFB04204246014604F007FB08F14C
:20037C000B020620122104F001FB2878800004F059FFC849486158B107F07EFBC54AC6494E
:20039C0048460623009018320191C72102F046FFC248C049886007F05BFA08210091C048F6
:2003BC00C649642243F69823001D06F04FF92878800004F037FFC24E706058B107F05CFBBC
:2003DC00C049484632460523009008320191C72102F024FF07F094FDBB484FF0000A642217
:2003FC004FF47A73C749CDF800A0083006F02EF92878800004F016FFC64EB06058B107F09A
:20041C003BFBC549484606F10C02009005230191C72102F003FFDFF8048308F10400706098
:20043C00564688F8006088F8016006F07FFB48460090DFF8EC92BB48C721072309F120022F
:20045C000190102002F0EAFEDFF828B3D9F8043013B948465946416005F012FAB146267204
:20047C0002208DF871900DF17101E67106F0F8FA667007F001FA04F134030A49BB6004F1B2
:20049C00300048605046211D06F0EAFA611D012006F0E6FAA11D022006F0E2FAAF7868788C
:2004BC00E7B905E0EC150020D4870000280B002004F12C01696207F02DFACDF800A0024614
:2004DC0005F14800019005F15807029705F120030393EB787B21102002F0A0FE04F13802A6
:2004FC001020742102F09AFEA07807F013FA02467C21102002F092FEA07807F00BFA024682
:20051C00A621102002F08AFE6069BE4907F0D0FDBB4BBA4AA3F168001E90106819461F9080
:20053C001A4601F5A470229003F16800239002F55870C44B20905F462493C04D259301F5DF
:20055C000A7021902069BE4A31464FF0FF3300F08DFC0028A061F5D0304604900DF16A0101
:20057C0004AA06A806F0E8FE002837D1BDF81810A078012310292CD19DF86A10884228D1D6
:20059C0004990A884FF6FF7C944522D00A78B02A1ED1894699F80110162913D107F0BAF9FC
:2005BC0003464FF080400090049842885821102002F034FE30B9012007F08EF80498334678
:2005DC00E06106E099F8041009F1080007F0F0FA0123049810B10BB107F0EDFDA069C00F5A
:2005FC00C0F0FF82F7E2C0468412002098870000206A814600F03EFC814508BFB14603D028
:20061C00D0F8089006F0E4FFB9F1000F00F0E38299F8003048465B1E00F0F4815B1E40F0A1
:20063C00D78299F8010099F80230C01F00F0DE80801E00F0AF80C01E34D0401E1CD0401E7C
:20065C0040F0C6829BB15B1E40F0C282BA49012007F096F9637923B90120E07106F0E6FE1F
:20067C00B6E20220E07105F043F9A672B0E2CC49304607F085F9ABE2012B06D0022B40F08C
:20069C00A782C64807F0B2FDA2E2C44807F0ACFD9EE2C046C4170020A4870000B98100004B
:2006BC0070280020002B3FD1D549304606F010FE3B7E012B0AD95B1F26D089E23D7D000036
:2006DC0098180020EC870000801A002004F030FF002800F07D82CA49387FD54BBA7E18701D
:2006FC00D44832B1134611F801CB5B1E00F801CBF9D1CF48521CD1B206F070FC07F0EAFC63
:20071C0066E2C046F94E0000F869BA7EBC4904F06FFA5DE23C180020C8870000BC1B002034
:20073C0034170020E0870000012B25D0022B40F04F8202200DF13A0106F0CAFD7E209DF831
:20075C003B10F8619DF83A307976052B3B7614BF02200420BC49B876B87E8DF83A00096858
:20077C000DF13B030DF13A0201201960052106F0DDFB2DE2C019002001200DF1320106F009
:20079C00A7FD9DF83200B0490DF13303B876186808601DE2012B05D0022B40F0198206F0A1
:2007BC0001FF15E2D84A11680DF14200016053684360022100919DF842009DF845209DF872
:2007DC0047309DF849C09DF8431000EB01209DF8441001EB02219DF8462002EB03229DF85A
:2007FC00483003EB0C2306F0BDFCF1E1012B0BD093BBD849304607F065FB2DE08C88000063
:20081C0074020020056100000120414607F05AFB98F80000022817D0CE49304606F0F0FCBC
:20083C0060691321324606F0BDFB60691421324606F0B8FB07F020F80EE0C046080200202D
:20085C00F70700C02407002007F04AFCC14988F80100304606F0D4FC98F80000012840F086
:20087C00B78198F801106069490834BF321C0122132106F097FB98F801106069890834BF5B
:20089C00321C0122142106F08DFB98F801106069C90802D206F0F0FF05E006F057F84FF4B7
:2008BC00FA6005F0ABFE98F80100000902D206F0E3FF29E02E7030468100AD4840584FF470
:2008DC007A7292FBF0F0AA4A1E9B6870585853584FF47A7292FBF3F1C9B206F0EFFD6878E6
:2008FC004FF47A734630C1B2A97003FB01F01F99B0FBF1F000F0C2FA07F066FC2878401C76
:20091C00C0B228701A28D7DB98F801000FF2582B400902D206F0B0FF06E04E20E8700146F3
:20093C00304681423EDC287098F80100800905D206F0A2FF4CE1C046110700202E703820C7
:20095C00E87001463046814240F342812299800009584FF47A7292FBF1F1239A10588A467E
:20097C0006F0ACFD504606F006FE9BE80C0003F055FA06F041F9C1B24FF47A70A9704843E7
:20099C001F99B0FBF1F000F079FA07F01DFC2878E978401CC0B22870D5E7C046742800209F
:2009BC0010070020209A2870810050584FF47A7393FBF0F0219B6870585853584FF47A72AD
:2009DC0092FBF3F1C9B206F079FD687807F094F89BE80C0003F022FA06F00EF9C1B24FF4EF
:2009FC007A70A97048431F99B0FBF1F000F046FA07F0EAFB2878E978401CC0B291E7C046B0
:200A1C00E019002090F801A030468DF872005046401E00F0AF80401E00F09180801E75D0B6
:200A3C00401E59D0401E07D0801E00F09580CDE0502800205128002063793BB90120E0711B
:200A5C0006F0F4FC07E0C046DC1900200220E07104F04EFFA672AB4807F0C8FA10B9A94860
:200A7C0007F0C2FB60691321324606F09BFA60691421324606F096FA40F2163009A902F08E
:200A9C009FFE40F213300DF1260102F099FE4FF446700AA902F094FE9DF824009DF82620B6
:200ABC00BDF824308DF85A00BDF826108DF85C2018129DF828308DF85B0008128DF85D0053
:200ADC00BDF828208DF85E3010128DF85F000DF15A0006F059FE79E00320E0710DF1720101
:200AFC00012005F0BDFF667130460DF1720105F0B3FB07F06BFA237913B104F0F9FEA672E8
:200B1C0007F008FA62E0C046AA160020E67101200DF1720105F0A4FF667130460DF1720159
:200B3C0005F09AFB07F052FA60691421324606F039FA6378002B49D006F078FC46E07148C5
:200B5C0007F054FA10B96F4807F04EFB304607F0F3F83BE0BD1B002007F0DCF96069132140
:200B7C00012206F01FFA31E0CDCCCCCCCCCCF43F740200201420052105F0B6FF4FF441708C
:200B9C000DF14A0102F01CFE9DF84B308DF853308DF856608DF855609DF84F108DF8591075
:200BBC009DF84C208DF854209DF84E309DF84A008DF858309DF84D308DF8520008210DF110
:200BDC00520230468DF8573003F0D0FE84F800A0484606F0FDFC206A00F054F900283FF4A7
:200BFC0007ADA06900F0100100F060030B437AD0810905D313200A2105F076FF24980068E2
:200C1C00C00904D32078062801D105F0D5FB9148904900784978884261D006F0F1FD8D491B
:200C3C008C48497800784A0803D342083CBF894A56808A0803D382083CBF864A9680227808
:200C5C00022A05D107F078F882488249007849784A0826D3420824D263780BB106F0E6FB48
:200C7C00207806281AD102200DF1730106F088FE9DF973309B1D05D09B1F0FD16FF00500D3
:200C9C00052201E0304607228DF874004321102002F0C4FA02201DA905F0E2FE6D48417829
:200CBC000078890808D3810806D22178062903D005F082FB6748007810F0030F0FD0654900
:200CDC004B7863B95C4807F091F930B95A4807F08BFA6048868003465E805E4800785D4954
:200CFC00259B48701868000A14D306F0D1FF88B9E37A4BB95148037803B10670504807F0BA
:200D1C0075FA07E0B00700204C49012008704C4807F06AFAA069400A46D306F0B9FF00282B
:200D3C0042D1E37A002B3CD0454807F05DFA0DF162003146062204F0F6FC9DF963009DF9A1
:200D5C0065A09DF9679094F90C20411F914202DC411D914204DA3C492073012005F07CFA68
:200D7C0094F90D00AAF10501814203DC0AF10501814205DA354984F80DA0022005F06CFAB3
:200D9C0094F90E00A9F10501814203DC09F10501814209DA2E4984F80E90032005F05CFAB5
:200DBC0002E0274807F022FAA069C00A18D3607A012804D063789BB104F09AFD10E006F086
:200DDC005BFDA07A6672401CC0B20528A07204DAE079032804D0022802D01A4807F006FA15
:200DFC00A06900090DD31C48037853B1067006F02DF91A494978814203DD1849487004F09C
:200E1C00D5FBA069C008FFF49DAB2078062818BF022803D1124807F0E7F92078062802D175
:200E3C0003F046FE207802287FF48CAB1420012105F05AFEFFF786BB881A0020601C0020BB
:200E5C00D4070020F807002018070020190700201A070020801A002070280020C41700202F
:200E7C00B0070020DFF800F0A1B60110DFF800F0F99B0110DFF800F019BD0110DFF800F06F
:200E9C00A5A50110DFF800F04FBF01102DE9F0434A4D95F8E700ADF12C0D00287AD13F4FC9
:200EBC00387B01240021242285F8E7407E6885F8E6000823C5F8106101A800F081F8002659
:200EDC0005F10C00069601ABADF8146034490796324600F079F8334905F1300001AB3246DA
:200EFC0000F072F8304905F1540001AB324600F06BF8B96820468847DFF8BC802B4808F16D
:200F1C0004037A7B00781868C0F3815922B1B9F1030F04D185F8E140B9F1030F1ED0B9F1DE
:200F3C00020F1BD0B9F1010F2DD14FF08059D9F8A4011F4F456831464FF040521C2303208E
:200F5C0000903846A847D9F8A40131464FF400720923456800943846A84714E0022006F0F0
:200F7C004DFAB9F1030F0CBF4FF47A7142F21071104800685435B1FBF0F1284600F028F850
:200F9C00284600F029F840460068C00802D2304606F034FA0BB00020BDE8F0835C870000BC
:200FBC004B60000049530000A5500000DE28002000A00C408C880000B03F0050CC13002075
:200FDC00DFF800F0C1BF0110DFF800F069B20110DFF800F0E5C00110DFF800F01FBE011078
:040FFC0030BF70474B
:20100000B41200001810000015AB0110FDB301106DC00110FDAE011099B5011000000000F7
:08102000000000002F00000099
:20102800B01200003C100000B1C00110A9BF011067C0011069B80110000000000000000035
:041048002D00000077
:20104C00B012000060100000BDC00110CDB30110D9BD01106DB3011000000000000000005B
:04106C002E00000052
:2010700000000000DC1B002004000000000000000000000020000000E8C901103000000033
:2010900028100000E41B00200400000000000000000000000C000000D8CA0110180000000E
:2010B0004C100000EC1B002004000000000000000000000024000000F0CA01101800000092
:2010D00000000000F41B00200400000000000000000000001000000018CA01102C0000009E
:2010F00000100000FC1B0020040000000000000000000000200000006CCA0110240000000A
:20111000FFFFFFFF041C00200400000000000000000000002800000090CA011024000000C8
:20113000FFFFFFFF0C1C00200400000000000000000000001400000008CB01101800000047
:20115000FFFFFFFF141C002004000000000000000000000058000000B4C901103400000015
:20117000FFFFFFFF1C1C00200400000000000000000000001000000020CB011018000000E3
:20119000FFFFFFFF241C00200400000000000000000000001C000000B4CA01102400000010
:2011B000FFFFFFFF2C1C00200400000000000000000000003800000044CA01102800000038
:2011D000FFFFFFFF341C00200400000000000000000000005400000078C901103C000000AD
:0811F0000100000090880000DE
:0411F80001000000F2
:0411FC0000000E00E1
:0412000000000F00DB
:0412040032000000B4
:0412080001000000E1
:04120C00CC1A0020D8
:0412100000020000D8
:0412140000000000D6
:0412180001C90110F7
:04121C0000000000CE
:0412200000000000CA
:0412240008000000BE
:04122800000023009F
:04122C0088190020FD
:0412300001000000B9
:04123400E41A002098
:0412380008000000AA
:04123C00AC1A0020C8
:0412400000000000AA
:0412440000000000A6
:04124800080000009A
:04124C00000000009E
:04125000000000009A
:041254000000000096
:041258000000000092
:04125C00010000008D
:04126000201A002030
:041264000600000080
:041268000100000081
:04126C00F018002056
:04127000000000007A
:041274000000000076
:041278000002000070
:04127C00000000006E
:02128000290043
:02128200010069
:02128400250043
:021286002D0039
:021288002E0036
:02128A002F0033
:02128C0001005F
:01128E00015E
:081290000300000004880000C7
:0812980000000000000000004E
:0412A0000000010049
:0412A4000000030043
:0412A80013C401105A
:0412AC00B37E00000D
:0412B000B812000070
:0412B400B81200006C
:0412B8000000000032
:0412BC00E41A002010
:0412C000A77F000004
:0412C4002000000006
:0412C8008886000014
:0412CC00D8850000C1
:0412D00029C101101F
:0412D4007F71000026
:0412D8000B7900008E
:0412DC00A1C7011095
:0412E000A3C701108F
:0412E4000000000006
:0412E800D7850000A6
:0412EC00B0840000CA
:0412F000C8840000AE
:0412F40098840000DA
:0212F8000200F2
:0212FA000900E9
:0212FC000100EF
:0212FE000000EE
:0113000001EB
:041304006D7F0000F9
:04130800D970000098
:04130C002D7A000036
:041310002173000045
:0413140087730000DB
:04131800117100004F
:04131C00295800004C
:0413200075800000D4
:04132400BD610000A7
:0413280015C70110D4
:04132C0025C70110C0
:201330002DE9F04FD64C641EADF1540D601C04F11C0105F019F900264FF6FF70A670D72128
:201350006082102001F070FFD44D4FF0010A3246207029461346CDF800A004F1A8000C9032
:2013700005F07AF90221324604F1CC00009113460A90294605F070F94FF00408324604F190
:20139000F0002946CDF8008013460B9005F064F904F14809404610223146E070484604F00C
:2013B000C8F904F1580B10225846314604F0C1F904F120073E60267204F10B0566720720B9
:2013D000A072EC212E700222CDF8389010200346CDF8009001F028FF1020EC21CDF83CB0BB
:2013F0000322CDF800B0034601F01EFF1020EC21129742460097134601F016FF4FF003093D
:2014100005F12D0B05F17C000D9005F12100109005F15D0011902735139504F13E001490F9
:2014300001E006F0C5F8E069B84A31464FF0FF33FFF722FD071CF6D0029606A809A902AA33
:2014500005F080FF002840F0C681BDF818106078102940F0BC819DF82410884240F0B78113
:20147000029D29884FF6FF728A4200F0A5812B78A23B00F088812E3B40F0A981A978B04621
:20149000002900F04581891E00F01781491E012940F2E580891E00F0A980491E7ED0491E2A
:2014B0005FD0083900F05F81891E40F0628194F83E30A888052BADF80C004AD00A988DF8D6
:2014D00016A006F099FE94F83E00012820D004281ED003280DD002280BD00298C188ADF827
:2014F0000E100189ADF810104189ADF8121081892BE0B4F84000B4F84250ADF80E00B4F840
:201510004430ADF81050B4F84610ADF812301CE0B4F84000E9888842D8BF081CADF80E00C8
:201530002989B4F842008842D8BF081CADF810006989B4F844008842D8BF081CADF81200A3
:20155000A989B4F84600884200DC0846ADF8140001E08DF816601020872103AA01F064FEF6
:2015700007E10B9806F048FE6B78002B40F00181E888A0822889E082688920830A9806F003
:201590003BFD002840F0F580A56A002D00F0F1802B68A08AE18A228B9847EAE0AA881020B9
:2015B000732101F041FE58464146062204F0C1F8A682E6822683A87960730A9806F01CFE7E
:2015D0000B9806F019FED0464FF6FF70637960824BB9A879082814BF04200520A0705046AC
:2015F00006F01AFDC5E084F80290C2E06B787BBB291D0A6858460260898881800623A3705A
:2016100068896082E889A082288AE082688A2083E878207394F83E00012818BF02280BD1E8
:2016300010207E211F2201F0FFFD4FF47A7180B241430A9805F0F4FC6889009004230193F6
:20165000EA78722110202D1D2B4601F0EDFD93E06878312840F085802671042029E06B7837
:20167000002B7ED1A878238AA178032818D0207965793BB9012814BF6671267109E0C04623
:20169000290B0020054304D00C98194605F0C8FCA1780729E1D106200BE0C0462980000053
:2016B000062908D02579002D08BF84F8029063D00220A07060E00720FBE76B78002B50D196
:2016D000EB78A17893B902291DD007291BD0062902D16079012816D1032914D00C9806F06A
:2016F0008BFC80B9504606F097FC0CE006F018F90246E07900900D98832143460190102044
:2017100001F092FD68706D785DBB32E0070000806B7833BB0E980090ED2102221020034619
:2017300001F082FD0F98ED214A4600901020034601F07AFDED1C109829680160A98881809E
:20175000607884F802A006F0EBF80246119DA0798321534600901020019501F065FDC5B23E
:2017700055B10820A5E7AA8810208C21052301F05BFDB8F1010F2AD1656A45B32D6835B327
:20179000A078A84723E06879132820D12889012808D1A07B022805D10B9806F02DFD05F09C
:2017B00007FF14E010207E21052201F03DFD81B20B9805F035FC0AE06888C00B07D31298D9
:2017D0000422ED2100901346102001F02DFD029808B106F0F6FC6579207979082BD355EA21
:2017F000000328D02248007865B9217A657A8DF81A10139A8DF81B50136807AD2B60928844
:20181000AA8001E08DF81A90A17A8DF82210E17A8DF8231006F084F8024684210DF11A031F
:20183000102001F001FD30B10820656AA07015B12D6805B1A847B80803D31499304603F0E5
:20185000FDFDF808FFF4EFADA77B7F1E03D07F1E3FF4E7ADE7E550460090B4F84210B4F85D
:201870004420B4F84630B4F8400005F081FCDAE5290B00202DE9FF47C44C0F460646F80B51
:2018900080F05981B80880F04681207BDFF80893B90F80F0BA80A07A002840F09A803809AB
:2018B000C0F09980E07A20B10020E072052005F0E1FC00254FF00108B549657004F178000E
:2018D0002A4684F8088006F088FC607901281AD1A079C0B9DFF8BCA2DAF8000000283CD050
:2018F00048460068006B8047A1695346401A000BE0611968226A8018B0EBC11F98BF20626E
:201910002BD9256201E084F8058040F609002087A24994F845000A1D00F0F00040F0010070
:2019300084F845001368658794F8440000F0F00084F8440023F002001060E5636FF00202CF
:201950000A6004F1380341F8103C08688008FCD30A60486840F002004860914A1068914970
:2019700020F00200A56140F400701060032341F8043C41F230038B604046086050238B60EF
:2019900008604FF4CA638B60086041F80C0C0220156005F06FFC112002F02AFE307C10B904
:2019B0000E2002F025FE25726572A078012803D006F1400006F0F2FC7B4806F05BFB7B4964
:2019D0000878F8B10D7004F1D400042106F01AFA18E0380914D2B80BC0F0CE8004F128005C
:2019F00006F006FC061C08D0706830B17568F068B6F91C1000222023A84727F40057BBE0BB
:201A10000020A07227F00807B6E020B1042005F031FC00202073B168088840F602084FF0D6
:201A3000000A80450AD0B0F5C15F07D00A8B4FF61F60104040F43470088306E00A8A4FF686
:201A50001F60104040F434700882A069D8B14D46686D016804208847A8B12868006B8047D4
:201A7000A169814226BF401A401E401A000BF060708AF168401840F6C411F06081422CBF83
:201A9000B0F5FA7FF160B5699DB14948A84210D094F8450010F00F0F0BD1718D08F1070037
:201AB000884206D130466FF4807152464FF00073A847404904F17800524606F08EFBA0794C
:201AD00058B10220ADF80000684605F0DFFD84F806A0BDF80800A4F874000120607020792E
:201AF000401C207104F1240084F807A006F080FB002808BF47F0020702D0192006F09CFA76
:201B100075692DB1514630464FF080630A46A84727F0005730E004F13005284606F068FB1C
:201B300002F07CFA284606F063FB27F0020708B147F0020720E006F02DFC014604F12C00CB
:201B500006F056FB0646B569A80810D27EB125EA0500B061084606F019FC706850B12A463C
:201B7000F068B6F91C1075680023A84702E0084606F00CFC27F4804727B104F1D400394603
:201B900006F040F90090BDE8FF87C046700E0020C1790000CC2800208C0100101010044058
:201BB000000004600C410440193A0000C82800202B5F0000293B0000BB482DE9F84F00254A
:201BD000BA4CB849056094F8E200002800F06581012800F02F81B64E02283CD0032840F0BF
:201BF0005C8151F8250CD4F8B8100029A0F5C060C4F8D400B8BF49420028B8BF4042814296
:201C100026DA4FF08057D7F8A4014568B4F8BC0030214FF47F42082300903046A847D7F8D1
:201C3000A4014568B4F8C00004214FF4F802122300903046A847D7F8A401B4F8D07045683D
:201C500020214FF440620A2330460097A847012584F8D8501CE151F8258C06F01DFA2F46E2
:201C700000B901273946934F38680028FCD0B146012609F10409D9F82CA03E6009B106F06E
:201C900011FACAF30720C4F8BC0006F005FAAA4600B9B2463B68002BFCD0D9F800B0BAF171
:201CB000000F3E6001D006F0FDF9CBF38440C4F8C00006F0F1F9AA4600B9B2463B68002B5D
:201CD000FCD0D9F81C90BAF1000F3E6001D006F0E9F9C9F38120C4F8D000B8F5C061C4F837
:201CF000B81000F09C8094F8D80068B9C4F8D410D4F8C000C4F8C800D4F8BC70C4F8C470E3
:201D1000D4F8D030C4F8CC30D4F8D410D4F8BC30002954BF02206FF0010004F1C8021768CB
:201D300001EB41014018411000EB917107EBA1001060D4F8C810C4F8C43000291CDD1E290F
:201D50003CDDD4F8CC0030B93429B4BF15391E21C4F8C81025E02A29BABFD4F8C8000B3840
:201D70001E20C4F8C800D4F8C4003F28B4BF401C3F20C4F8C4001FE0D4F8CC00032812D048
:201D900011F10B0FC6BFD4F8C8000B30301CC4F8C800D4F8C4000028C4BF401E051CC4F87D
:201DB000C450032508E011F1150FC6BFD4F8C8001530301CC4F8C800C4F8CC504FF08057AD
:201DD000D7F8A401B4F8C43030214FF47F424568374800930823A847D7F8A40104214FF4D5
:201DF00000321123456832480096A847B4F8C860D7F8A40104214FF4F802122345682C48C1
:201E10000096A847D7F8A40120214FF440620A23B4F8CC60456826480096A84701E084F891
:201E3000D85040F2FF50404502D8801C40452FD2082030E051F8251C1F4F4BF2F52048435B
:201E5000060A3868C0F3814001280CD11B4800680068804704F0F8FF06F02AF93111C01038
:201E7000484306EBE03694F8E50030B91448006820F07F408019460801E084F8E550114801
:201E9000310C0660012741600F4D8760287808B90B2000E0052084F8E40001F031F8BDE8D3
:201EB000F88FC0462D400C402C500C40CC13002000A00C4000800C40B43F0050EC0100100D
:201ED000102009403C600C406A8700002DE9FC41A0F2013714468846022F40F234819B4E5A
:201EF0009B499C4A3F1F0F2F04D9143F4CD0BF1E1CD011E0DFE817F0D000C9000E01FB00F5
:201F1000C100B9002701AF00A700100010009D008F007F0073006600282880F21481B8F115
:201F3000020F40F0108123887D2108E1B8F1010F40F009813079012800F0058132462078C2
:201F50005179507189B9002800F0FD809078012800F0B680042800F0B380062800F0B0801B
:201F7000052800F0AD80BDE8FC812078002840F0EA809078032800F0B080072800F0AD80EC
:201F9000052840F0E080A8E0B8F1010F40F0DB802078012840F0D78006F1F00006F02CF85F
:201FB000002840F0D0803446002004F13E0103F045FA002840F0C78004F1CC0006F01CF9FE
:201FD000BDE8FC81B8F1020F40F0BD8020880A28C0F2B980B0F5486F00F3B58018E0B8F1BE
:201FF000020F40F0B0802088B0F5FA7F80F2AB800880BDE8FC81B8F1020F40F0A48020889D
:202010000628C0F2A080B0F5486F00F39C801146891C0E463EE0B8F1020F40F09480208831
:202030000628C0F29080B0F5486F00F38C801146EFE7B8F1010F40F086802078062880F2F1
:202050008280454E0EE0B8F1010F7CD12078042879DA0B3606E0B8F1010F74D120780828E3
:2020700071DA0A363070BDE8FC81B8F1010F6AD12078042867DA0936F4E7B8F1010F62D104
:20209000207804285FDC0836ECE7B8F1020F5AD1208810363146ABE7B8F1010F53D170797E
:2020B000012850D0324620781179107169B9002849D09078012803D0042818BF052842D102
:2020D000012005F0A9FFBDE8FC81207800283AD19078022818BF052835D1507805F020FC30
:2020F00002468221102001F09FF8BDE8FC8106F1870500211F22284603F01BFB21464246C0
:20211000284602F07BFD44467078F47105F008FC002311E006F1680500211F22284603F0CC
:2021300008FB21464246284602F068FD44467078B47105F0F5FB0123009483210195024622
:20215000102001F071F8BDE8FC81C046280B00206C0B0020680B0020660B00202DE9F04F5A
:202170008246DAF800600C465FEA0208ADF11C0D14BF00214FF0FF3106F14800834606F088
:2021900001F9002808BF0B2000F00681002565708448F460B8F1010F057004D06570022091
:2021B000F46005F031F92078012840F2AB80801E012868D9801E012833D9801E012800F2EA
:2021D000DF8006F0E7F806904FF0805000F5EE77D0F8DC01A378466A009321782846062983
:2021F00008BF0120019001200290A068228AE1686368B0478146069806F0C8F8B9F1000F10
:2022100040F0C080B8F1000F02D005F0B3FD02E0504605F05FFB002800F0A4803868806A82
:202230002AE006F0B7F806904FF0805000F5EE77D0F8DC01012306680093A168A27860682B
:202250002478AC46042C08BF9C466346B0478146069806F09BF8B9F1000F40F09380B8F1D4
:20227000000F02D005F086FD02E0504605F032FB002877D03868406880474949C1F8B05191
:202290000D6081467EE006F085F806904FF0805000F5EE76D0F8DC01E38A87690093E0684E
:2022B0000190208B0290A0780390207D04900121059122782846022A08BF081CE17862686A
:2022D000A368B8478146069806F060F8B9F1000F58D1B8F1000F02D005F04CFD02E050460F
:2022F00005F0F8FA00283DD03068006A80475FEA000947D13068C569A168E28A2369E07860
:20231000A847BEE706F046F806904FF0805000F5EE76D0F8DC01E38AC7680093E06801903A
:20233000208B0290A0780390207D2946049001200590257805B9014608466268A368E17831
:20235000B8478146069806F021F8B9F1000F19D1B8F1000F02D005F00DFD02E0504605F061
:20237000B9FA08B9142017E03068406980475FEA000907D1306802692169E078904780E759
:202390004FF0FF39B8F1010F02D0022004F072FF584606F003F8484607B0BDE8F08FC046A6
:2023B00050450240DF2800202DE9F04F0128ADF1140D40F0E980DFF808B2DBF8DC000128D0
:2023D00040F0DF800220CBF8DC0005F0D7FF0290012004F0F5FB5FEA000806D00120CBF830
:2023F000DC00029805F0C6FFD0E005F0BFFF4FF0000903906748684CC0F80090A06A016841
:2024100001208847012818BFCDF8009004D1484603F022FC012000906048614FC0F80090A2
:202430003868112005F056FE00280CBF4D460125102005F04FFE08B145F002050F2005F03B
:2024500049FE08B145F004050B2005F043FE20B12068544E016B308888470A2005F03AFE88
:2024700020B12068504E016B308888474F48012606602068816945F0200088474C480660AE
:2024900005F022FE00F001010191400814D2206A8168484888478246BAF1040FF7D0BAF19B
:2024B000010F04D1206A42684248032190474249086820F003000860484600F083F8236874
:2024D0003868986B8047019801280CD0BAF1010F04D1206A42683748314690473649086864
:2024F00040F0030008602D48066020684169284688470B2005F0EEFD20B12068294BC16AE4
:20251000188888470A2005F0E5FD20B12068264BC16A18888847254806600322CBF8DC2020
:20253000234BC3F800902068416B284688470128F9D13868042004F043FB044615481F4969
:202550000660386808688009FCD30098012802D1304603F081FB05F0A5FD082004F030FB46
:2025700007460398CBF8DC6005F0FCFE03F010FC029805F0FFFE57EA040018BF4FF0FF3858
:2025900004E06FF0040801E06FF00108404605B0BDE8F08F0C400940B8010010000222436F
:2025B0002C2009402E8400002A840000282008608001044300400340242208401410094020
:2025D000CC1300202DE9F84FDFF8F4B10746ABF13500DFF8E0910068800880F0D98071483B
:2025F0000068006880477A490831D1F8008000254FEA28725FEA985102F101020AD2C0F142
:202610003E0110F10A0F4FEAE101D8BF08218A42B8BF0A1C644BD3F87C11C1F304611629AE
:20263000A8BF20391B68C3F30443162BA8BF203B9A465118162905DA11F10A0FB8BF6FF0EF
:20265000090100E01521594B594E01F01F0242F4F8521A80326812F0030F18BF0125D2084E
:2026700028BF45F002050FB145F004054A4692F90730C31A052B04DA9379AB4208BF918813
:2026900066D0DFF834E10F28A0F10F0C25DB0CEB0013A3F1F00C4FEA2C26072E88BF072657
:2026B0003446062C88BF06245EF82470042303EB84037446E358DB1B03F0FF04EF0824BFAC
:2026D000C3F307273C44AF0824BFC3F307473C446F0828BF04EB136401E0002426465EF8DD
:2026F00026E0EF080EF0FF0324BFCEF307273B44AF0824BFCEF307473B446F0828BF03EB08
:202710001E63A4B2ACEB0626BAEB010104FB06F404F1800403EB1423D8BF0121342408F0C8
:20273000FF074C43A1B27943B1FBF3F14FF6FF738B4238BF191C802889B2918005DA10F1D1
:20275000800FB8BF6FF07F0000E07F20D07195711A4800681F2910604FF0000008D340F2F1
:20277000FF128A4206D24908401C8A42FBD301E01F219180134F0F39090940EAC10047EA43
:202790000001CBF8FB1F0026CBF8FF6FBDE8F88F0D490E4F4A4608200F60921D1070BDE81A
:2027B000F88FC046EC0100103C1100506E62084024220840D02800209C13005008200940B4
:2027D0003500094000E7A48030100940FDFDA400AC3F00502DE9F0411C4615468C4208BF65
:2027F000854282BF00230022E5E0002C08BF002D0AD100290EBF00286FF000006FF00001DF
:2028100000F0E1F8BDE8F0815FF000085FF0000E002C08BF8D429CBF2C1C0025070C47EA47
:2028300001470E0CB44208BFBD429EBF5FEA044444EA15445FEA0545070A47EA01670E0AA0
:20285000B44208BFBD429EBF5FEA042444EA15645FEA0525470847EAC1774E08B44208BFF9
:20287000BD4200F29380870847EA81778E08B44208BFBD427CD8C70847EA4177CE08B44262
:2028900008BFBD4266D8070947EA01770E09B44208BFBD4250D8470947EAC1674E09B4427A
:2028B00008BFBD423AD8870947EA81678E09B44208BFBD4224D8C70947EA4167CE09B442C2
:2028D00008BFBD420DD8E60146EA5566EF01B14208BFB84201D3C01BB14158EB08085EEB8A
:2028F0000E0EA60146EA95664FEA8517B14208BFB84201D3C01BB14158EB08084EEB0E0E08
:20291000660146EAD5666F01B14208BFB84201D3C01BB14158EB08084EEB0E0E260146EA11
:2029300015762F01B14208BFB84201D3C01BB14158EB08085EEB0E0EE60046EA5576EF00EF
:20295000B14208BFB84201D3C01BB14158EB08084EEB0E0EA60046EA9576AF00B14208BF20
:20297000B84201D3C01BB14158EB08084EEB0E0E660046EAD5766F00B14208BFB84201D32C
:20299000C01BB14158EB08085EEB0E0EA14208BFA84201D3401BA14158EB08085EEB0E0E45
:2029B000A34208BFAA423EBF2D0A45EA0465240A89D3734642461E4617460B460246314607
:2029D0003846BDE8F08170472DE9F04F6C4C22690746880FADF1140DC0F0CF805068406802
:2029F00008B1804722695168664E886808B9CD6875B13568002DFCD00022326010B1804771
:202A100020694168C86800B180475F4804F03EFE4FF00008C6F800805C4846F81C0C5C48C2
:202A300005F028FB40F60A09A4F838906379A4F83A80BD6894F84400C34604F1380A00F06A
:202A5000F00084F84400012BC4F83CB094F84500A5F8028000F0F00040F0010084F8450020
:202A700001D17B7CABB1B8680088A9F10801814208D0B0F5C15F05D0298B4FF60F40084011
:202A9000288304E0298A4FF60F400840288287F811804048016883680193C368406B009177
:202AB0001022694620F0784040F0805003903A48029302F0A3F8494600E01D466B6813B1BD
:202AD00018888142F9D1C5F804A0687B00F0F000687304F1240005F08BFB80680088A9F11C
:202AF0000701814220D0491C81421DD03B8DEBB197F8340097F83530C7F82CB000F0F00060
:202B100087F8340003F0F00040F0010087F8350007F12802E2639AF80D00A7F82A8000F0EB
:202B3000F0008AF80D0001E0C4F8188030680028FCD0C6F80080B968E37A0A8A4FF6FF3081
:202B50001040088283B91548006801680120884701280FD0687B00F0F00040F0010068735A
:202B70000F4805F087FA05E004F08CF90028FBD004F0A6F9B86846F81C0C05B0BDE8F08F35
:202B9000700E00201C1004400100070601010E04851800004C13005018000021E00100107F
:202BB000055E00002DE9F04FADF1840D2090FEF773F904F055FD0026012804D105F07AF83C
:202BD000022808BF01265B490868C0F38150012806D151F80C0C0127010E07FA01F0064362
:202BF0005548007804F0C0FE544D2C46286038B1FF2204F1400107467F1E01F8012BFBD148
:202C1000209909684FF0000901F0FF02FE2A1DD0DDF880C001F0FF074A460123FF2F0ED05F
:202C3000B84203D903FA07F73E4201D002207EE001F0FF0147EA0909611881F840205CF808
:202C5000041F521C01F0FF07FE2FE7D1092001F089FD2098002124220823606017A805F099
:202C70007DFB4FF0010804F1240017AA8DF87480414605F06FFB236843B3002794354FF09B
:202C9000040BBA4608FA07F0064219D119EA000F04BF07F0FF0141F4C04105D0E019209B5F
:202CB00090F8401053F82110254801F0A7FAF8B24FF0FF3104F09EFF2368C5F800A001E03E
:202CD000C5F800B07F1C2D1D9F42DBD301A800213022082305F03AFB1A4E3078002510212C
:202CF00001AB0990184A009504F1080005F02AFB0DA828220823294605F020FB0DAA706839
:202D1000124914952B46139004F1600005F012FB0F4951F80D0C474620F4F85040F400500D
:202D300041F80D0C0B4EC1F8FF7F2846376021B0BDE8F08FB43F0050DE280020E824002012
:202D5000007FC76718880000217C0000396A00000D300940080009402DE9F84F99469246EB
:202D70008B46064605F016FB604C0090B4F93610B4F934000AAF401A40F6F87101400829EC
:202D900080F29E80B4F9340004F5A075401C6FF31F30A0860820B4F93480EB7F33F07F03D9
:202DB00004D0401E05F12005F7D1002506F1780005F0BCFAC5F808B085F81EA0C5F80490AE
:202DD000A5F81C804A48EE6097E80C00202100271940104005F1100383E8030004F124009E
:202DF000EF770368002B5ED1294604F05DFA00285FD0A6F8C080E87F40F08000E87796F8A5
:202E1000C200012804BF86F8C270A771607A40B1607830B10120A0726772A7712079401C8F
:202E30002071009805F0B2FAA06A00285BD16078002834D1E079012855D005F0ABFA0646C8
:202E5000207A40BBA86804F023F92B49294A236909681060B0B1DD681068401BB0FBF1F054
:202E7000012898BF012104D9DB681068C01AB0FBF1F1B0342046FEF7B1F82046FEF7B2F8B4
:202E900030462EE0304605F081FA04F1D400042104F0B8FF27E0194901200870F0E719200D
:202EB00005F0CAF81FE004F12400294604F0FCF948B9B4F9340000F6FF706FF31F30A086BD
:202ED0006FF001080CE0A6F8C080E87F40F08000E87796F8C200012804BF86F8C270A77136
:202EF000009805F053FA4046BDE8F88F700E0020F1EFFF9FCC2800208C880000C8280020E2
:202F10002DE9F843634C5C4D5C4EDFF87881604F94F8E4100846401E0B2864D8DFE800F07D
:202F30007E2C43062343062343067967042907D001220A2945F8212C14BF0220032004E0F6
:202F5000202045F8210C0120024684F8E200002045F8390C0827C5F8FF7FC5F8F37F45F878
:202F7000392CBDE8F883052914BF09200620002784F8E400376078E094F8E170383D012083
:202F9000002FC5F81B0004BF0620002102D00021F160032084F8E400032045F8010C31604B
:202FB0003068800861D294F8E4103548012703290ED0006845680021602205230091404688
:202FD000A84794F8E400062814BF0A200720CFE70068456800216022052302200090404662
:202FF000A8470420C4E705F09DF9BDE8F8832648264F0026012506600E203D6001F0F8FA15
:20301000022004F037F984F8E45084F8E360BDE8F883002038600C25786024E04FF08059EE
:20303000D9F8A0010168202088472C3D0F2045F8010C41F61D56C5F80360D9F8A4014668C6
:2030500000214FF4C0720723022540460095B047D9F8A401C66800214FF4C072072340467D
:20307000B0470120386084F8E45004F17800FDF7B9FFBDE8F883C04639400C4038600C40F8
:20309000A401001000A00C402C500C4004800C4034600C40CC1300202DE9F04F8346ADF14C
:2030B000140D0393BBF1000F02920E9801910F9C049000F0AB80081C00F0A880101C00F010
:2030D000A580181C00F0A2800498002800F09E80002C00F0A080206A002800F09780514D10
:2030F000676A281D0068002F00F09080A16A05F049F940B2002808BF6FF0020700F0828096
:2031100084F82C002078618800EB80004018216A143080B288474249086030B928464068F1
:2031300005F03CF94FF0FF376CE08A466088DAF800502178237805EB00096088421800EB60
:203150004106AA18AF1902F1040803EB430283188918EE1840182D18204603F0D9FB2078B8
:20317000C01C8010C9F800002078C01C8010C8F8000020780837C01C8010386020780C3699
:20319000C01C8010306020781035C01C801028602278594609F1040001F030FD22780199C9
:2031B00008F1040001F02AFD22780299381D01F025FD0095484641463A46334605F0AEF80F
:2031D00047B222780398331D194601F017FD22780498291D01F012FD22786188DAF800002C
:2031F00002EB82025218002102F0A3FA616ADAF8000088470B48406805F0D0F8F8B29928A5
:2032100008BF002784F82C70384606E01CB16FF0010084F82C006FF0010005B0BDE8F08F26
:20323000884F0020CC1B00200FB42DE9F04106AF8046ADF1280D04F06BFF0025FF2414204E
:20325000ADF816003E1DCDF80E5026F003068DF81840361DCDF81A607868CDF81E0005F0DF
:2032700059F8064604F054FF30F0010015D004F007FD4E492A4684460B2031F80C7F4FB1AC
:203290004B681B689E4204D0401E02F10102F4D100E0D4B2604604F0CDFD404603F09CFF3D
:2032B0000146FF2905D0204603220DF11A0302F093FB05F02FF804F0BDF92E46044600967A
:2032D00004F026FF30F0010068D00098A04265D041F2883001A904F07FF8DDF80080002840
:2032F00053D105F013F8019D01272D186068019B31464FF00042FDF7BFFD00282CD00DF161
:2033100022000DF1230102AA02F068FEB8B99DF8220003A903F046FF40B9029A04F0F2FED0
:2033300000281CBFDDF80880371C15D10299684604F06AF960684FF0004104F0E3FF01988D
:20335000B0F1FF3FD2D00028D0D004F0DFFF281A02D00199814216D204F03EFC009E04F029
:203370008FFC083401463EB1324652F80C0C40B9206842F80C0C2660084604F05BFD3846F5
:2033900003E00246F1E70190B0E7012806D028B9B8F1000F02D0404604F013FFDDF81A000D
:2033B00000680AB0BDE8F04104B070475C1500202DE9F8435A4DA5F1300404F1240004F03A
:2033D00017FF16460F46009004F0E4FF06F001088146B7F1FF3F0CD1A06A20B9B4F9360060
:2033F000401C07B202E0A06AB0F91C70002084F87700384604F08CF90327002800F08A8031
:20341000A16A814258D0009B98422ED03BB100990A68904209D0096800290091F7D1832FEC
:2034300041D0484604F0B2FF3DE004F1B00004F07DFF00980168B20802D20A680260084655
:20345000002202600091009818B9484604F09EFF28E0C17F41F00401C177684604F04EFC1D
:203470000146284603F020FFEDE704F1B00004F05DFFB0083ABF606A006800206062484659
:2034900004F084FF0099C87F40F00400C877684604F034FC0146284603F006FF009808B182
:2034B000B008EFD28327E079012836D004F1D400022104F0A7FC30E0B10803D3616A0091D3
:2034D00000276762C27F012101FA08F11143C17704F04CFF0446B8F1000F14BF1148124842
:2034F00004F0D4F8484604F051FFB00801D3009820B9204604F036FF83270EE0C17F41F095
:203510000401C177684604F0F9FB0146284603F0CBFEECE7484604F039FF3846BDE8F8832C
:20353000A00E002001000204010001042DE9F04704466668A7680D46ADF1400D04F02AFFD1
:2035500096F8DC10012903D104F020FF002097E04FF0010A86F8DCA004F018FF28783070AA
:2035700068687060287AF060786801F0FBF8204603F016FAE868656828B9A06890F814904A
:2035900090F8158003E090F8009090F80180B9F1FF0F15D0B8F1FF0F12D03B4840EA09010D
:2035B0000D91FE230F9340EA08000DA90E9005F1980001F071FBC5F8A400D5F8A40070B92E
:2035D000324800240460324D2C60786801F010F804F0E0FE86F8DC4004F0D8FE4FE0494601
:2035F0000D2204F069F8D5F8A40041460E2204F063F801A800213022082304F0A7FE0025BB
:20361000387B069401AB234A0095B968099006F1100004F097FE01A828220823294604F0D4
:203630008DFE38691C49059401AA2B46079006F12C0004F07FFE01A824220823294604F08C
:203650008DFE8DF81CA006F16000514601AA04F081FE307838B906F17C00294601AA04F068
:2036700079FE0E4870603572C6F8BC500C4AC6F8C05006F1C8000421234604F0B3F82046B6
:2036900010B0BDE8F087C046002000840428004010040542393D0000CD620000898100001E
:2036B000398000002DE9F84F5FEA00091C46924600917DD0081C7BD0BAF1000F78D0002CDD
:2036D0007BD0206A002873D03F4D616A281D006800296DD0A16A04F055FE40B2002808BFFD
:2036F0006FF002055FD084F82C002078618800EB40004018216A0C3080B288473149AB4646
:20371000086030B9DBF8040004F048FE4FF0FF3549E08846638860882178D8F800605A18BF
:203730003518B71803EB41003618204603F0F0F82078C01C8010286020783F1DC01C8010B3
:20375000386020780836C01C8010306022784946281D01F053FA28463A463346014604F0A1
:20377000CDFD45B2227800983B1D194601F046FA22785046311D01F041FA22786188D8F861
:20379000000002EB42025218002101F0D2FF616AD8F800008847DBF8040004F0FFFDE8B2D0
:2037B000992808BF002584F82C502846BDE8F88F1CB16FF0010084F82C006FF00100BDE8E0
:2037D000F88FC046884F0020CC1B00202DE9F04F0C464649CA7AADF12C0D84460592487BD9
:2037F00009900D7900958A7A088B0B8A0E7B91F805A091F802800492B1F846E008904A7A56
:20381000C88A0392CD7807900A7A888A02920F6A0690CA79488A01928A79E146A9F5407973
:20383000B9F11D0F10D8DFE809F05D575553514F4D4B484543413E3C3A0F3633302D2B257C
:2038500022201E0F1B1A1918BCF1280F4BDA624610207E21FFF7E8FC21E0099EB246D04673
:20387000CDF814801DE00898079007980690DDF818E005E03831086820608888A08032E029
:2038900070460AE0B1F8440009E0B1F8420004E0B1F8400001E091F83E00034612E0208067
:2038B00021E0059804900498039001E03231E2E7039802900298009006E0019A87310DE00D
:2038D00068310BE01846EAE7009D0BE02C31D2E7276008E0583100E048311022204601F0AD
:2038F0008DF900E025700BB0BDE8F08F280B00202DE9F0413B483A4908603B48FFF752F912
:203910003B48021D116841F00C011160374909684A6801219047374804683748026800233A
:20393000D907500822600143D007801A99414FF47A720023FEF74EFF002908BFB0F1004FBA
:2039500028BF6FF0004060602E4C0025082004F11C0141F80C5F401E8D60FAD104F1880100
:203970000B20401E21F80C5BFBD1244A2449121D22F00303CF1A2762A361E361A66904F182
:203990001C08944618460A4601E026F8025BB142FBD8B910E82700EB810121F8045C4FF646
:2039B000FC761F8006EA0C0300F1E807D21A276106EA0201EC39A0F8E810284601F038FC58
:2039D0006061D8F80000206101F0D0FF03F07EF903F0FCF904F08EFC2846BDE8F081C046AB
:2039F0003C19002019620000F0840000D801001000400340741B00208C880000E0280020FC
:203A1000F03B0020E0140020F8B53B4C0D46A8084FD2E8086ED301250420257303F0F4FCE9
:203A300036480068006B8047A06104F1240004F0DFFB00280EBF2069C06820614168304A2C
:203A500009781160416812680978914207D087692FB16FF0FF0100224FF00073B8470220F2
:203A700003F0D2FC112000F07DFE2169E571087C10B16079012803D00E2000F073FE2169C6
:203A9000496820488F680FB9CF681FB10021C1611D4F07601D4A40F2FF7111600027876198
:203AB0001B4941611B4804F0E5FA192004F01EFCF8BD04F13006304604F09AFB00F0AEFAFC
:203AD000304604F095FB25F0020504F1240158B9E80803D2084604F08BFB58B104F1B0005A
:203AF00004F024FC042101E045F0020104F1D40004F088F9F8BDC046700E00208C01001030
:203B1000D021084000100440510007060000046002000040D9290000F8B504F0D7F83F4E05
:203B30003D4F0446A00822D3B96A01B33D460020A8628A69086906F108032040104340F035
:203B5000020088610A6918689043186001F1100090E80C0030681A1C9043306005F130004F
:203B700003F0A2FB022105F1D40004F04BF9B86AA10815D200F110020CCA002122400B4027
:203B9000002B08BF002A0BD0016985690C40F8622C434FF48041846107F1D40004F032F9DD
:203BB000B86A002837D107F12404204604F020FB051C30D03869E968884226D1A86803F037
:203BD00067FA17490860E0B906F1080128690A6810430860326805F1100393E80300081C10
:203BF0001043306000233361A86846F80C0C06F1100000680028FAD0204604F07FF8BD6264
:203C1000F8BD086802F05CF8F8BD07F1D4004FF4805104F0F7F8F8BD700E00200C100440FE
:203C3000CC280020F0B5ADF1340DFDF735F9354908682822082340F00200086001A80021F3
:203C500004F07CFB374C30490525002301AA079504F1D40004F06EFB00213022082301A8EC
:203C700004F074FB0026FF271921284AADF81C6001AB099704F17800009604F063FB2822CD
:203C9000082301A8314604F059FB2149079504F5847001AA334604F04DFB01A831463022BC
:203CB000082304F053FB0125ADF81C50099704F194001A2101AB174A009604F043FB1649B8
:203CD000324604F1B0001346FDF784F9134804F0D1F9134A3346042104F14C0003F082FD26
:203CF00084F877606671E67126726672A672E6722673A5713746A7614FF6FF70A4F874005B
:203D10000DB0F0BD00200940CD7D0000C1790000455600002D64000019800000193A000024
:203D3000F1670000700E0020B0B544688068006803F0B8FE3A4A012302F114052B6050B133
:203D5000217AFF2907D0FF214009217263D2042045F8180C44E0207A00285CD03149401E19
:203D70001AD0401E02D0FD3855D051E01568D4F8B4000570D4F8B870D4F8B400401CC4F890
:203D9000B400781EC4F8B800D4F8B87027B3012F3BD9092202201BE0D4F8B000401EC4F865
:203DB000B000D4F8B070EFB9D4F8B870A7B10220D4F8A83020721B7C083A012F4FEA430383
:203DD00043F0010313609CBF0321516001D90B220A6004F0F9F9B0BD0020207204230B60F1
:203DF0000220F6E7D4F8AC0000781060D4F8AC00022F00F10100C4F8AC00F0D2D4F8B8709B
:203E1000002FECD100202072052342F8043CE7E7FF202072B0BD04F12C0004F063FAB0BD87
:203E300008280040042800402DE9FC4191EA03084CBF4FF000484FF000084FEAC32545EA94
:203E500052554FEAC2264FEA43077F0D11BF45F0004500210020BDE8FC815FF4E06E1EF11E
:203E7000FF0E774555D04FEAC12343EA50534FEAC0224FEA4104640D11BF43F000430021E6
:203E90000020BDE8FC81744543D0E419A3FB0501A3FB06E7A2FB06631EEB030E57F1000769
:203EB00051F10001A2FB05631EEB060E57F1000751F10001FF1851F10001C01951F1000185
:203ED0004CBF4FF4806E4FF4007E10EB0E0051F1000148BF641C01D4400049415FF4407759
:203EF000FF37E41BDEBF00210020BDE8FC8117F58067BC420DD24FEAD02040EA41504FEA90
:203F100041014FEA113141EA045141EA0801BDE8FC810020FF21C900C91D090551EA0801BD
:203F3000BDE8FC812DE9F043DFF8E0808946054617464FF0FF31ADF13C0D404604F022FA6C
:203F5000334C04EBC5046668256804F023FA2168096800290BD42968002905DCB9F1000F58
:203F700009D04FF0FF3108E0B9F1000F03D004F00DFA002442E02968491C296004F006FAC1
:203F9000286802283ADA1FB90DA804F0F1F80DAF38686860B76800213022082301A804F05B
:203FB000D5F94FF00009069401AB307B194A09903946CDF8009005F12C0004F0C3F901A89F
:203FD00024220823494604F0C9F9012705F1640001AA8DF81C70494604F0BCF905F1480067
:203FF00001AA394604F0B6F9706800F0BBFB0A4A05F118002346042103F0F4FB404604F01A
:20401000CDF920460FB0BDE8F083C04698280020108800000D790000A1810000F8B5071C97
:2040300073D0B86840F6030120264A1C02E04068761EF6B260B15EB10388994218BF9A4228
:20405000F5D1F9681CC828311CC149C881E849007868BA690025BD61C8B1F87F42F00202E0
:20407000002300F00700401E09D0401E04D0801E08D14FF0805304E04FF0804301E04FF01E
:2040900000532A467C68F868B7F91C10A04704F081F91E4C0646383CB4F93600401C6FF30D
:2040B0001F30E08604F130000168CD7703F026FE304604F06BF9F868B0F9C010B4F93620A8
:2040D000914222D1217801291FD090F8C260BEB90668AEB122690E4912680968B2F1FF3FBC
:2040F00013D0B6FBF1F2012A8CBFB6FBF1F101217830FCF773FFF8687830FCF773FFF8BDDF
:2041100080F8C250284601F0DBFDF8BDA80E00208C8800002DE9FE4F0CAF3D8883460E462F
:2041300008469846144601A903F01EFB012808BF01205FD0BDF80400DFF8BCA042F60211BC
:2041500000274FF0FF09401A40D048F2FF21401A2BD0401E13D0401E36D1002D32D1B8F149
:20417000020F2DD1207806281DDAF06821880180F16855468D4231D14FF0020931E00DBBF9
:20419000B8F1060F1CDA207810280CDCF0682146424600F033FDF1685046083088421DD15D
:2041B0004FF001091DE0802718E05DB9B8F1100F06DCF0682146424600F020FDB94610E007
:2041D0000D270BE00B2709E00A2707E00095584643463146224601F070FE0746B9F1FF0F7E
:2041F00007D05046001D006818B1016809B1484688473846BDE8FE8F341700202DE9F0470C
:204210000D4606465FFA85FA280824BF2E4845402E494FEA8A03C85885EA00023240C2F314
:2042300000672B4A06EA0504B043224006F4E0240243B4F5E02F01D1500E14D306F4E02038
:20425000074310D002F4E027B7F5A02707D0B7F5803704BF22F4003242F4A02203E022F47E
:20427000803242F4C022DFF86C80CA5008F1D00739680122002002FA0AF40C4218BF101C88
:204290005FEA000906D1F00D04D34146C5F3805001F80A00300E0BD304F07CF8290E34BF51
:2042B0000021211C3A68A2431143396004F06EF8B9F1000F06D0F00D04D34046C5F3805150
:2042D00000F80A10BDE8F087006000A000100840007F077F00200240F8B503F0DDFE01F075
:2042F00087FC03F0F1FE054605F00C000C284CD0E8081ED203F022FA264E37680446012040
:20431000014603F03EFC31686143884211D2224E8220B0FBF7F0211A3046FCF75FFE304614
:20433000FCF760FE0120FEF73FF8304603F0FEFF2DE0280929D2194CA4F12006206881689F
:20435000174888470746042FF8D01648690905D227B101460A6822F0010203E001460A68EE
:2043700042F001020A6098310A6842F003020A6030688169202088470B4C37682068B86B80
:20439000804701202060206801E0FCF72FFE03F089FEF8BD8C880000D8130020D8010010E5
:2043B000004003408C2108402C2009402DE9F0412D4D0446A8781F4616468846ADF1400D3B
:2043D000012803D0FFF72EFC0120A870B8F1000F09D0C4F8048036B1A66003F0DBFFE9788C
:2043F00019B103F0D3FF00203BE0491CC9B2E97003F0CCFF01251FB909A803F07DFD09AF18
:20441000386820607868E060387C2074B86865746061788A6082F86800B1A0610021A02271
:2044300004F1280001F085F9684600212422082303F094FF8DF8185004F1400000216A4627
:2044500003F088FF6846002124220823FCF7BEFD0649069404F1780000226B46FCF7BAFD11
:20447000204610B0BDE8F081700E0020DF8100002DE9F8430D46064668687468B7684FF0F8
:20449000000810B9E86800284FD02078012814D103F080FFD4F8BC1049B1D4F8C0108D6170
:2044B000C4F8C05003F072FF0120BDE8F883C4F8BC50C4F8C05003F069FF022002F0A4FFD5
:2044D00004F160004FF0FF31814603F05BFFB86803F004FF3046294600F096FD0546B8680B
:2044F00003F004FF207888B9B5F1FF3F08D004F17C004FF0FF3103F045FF207A48B111E086
:2045100003202072022002F0B5FE0BE0B5F1FF3F02D04FF0010805E00320207204F12C006B
:2045300003F0E0FE484603F039FF4046BDE8F8832DE9FC470AAF3F8882460C46084699461B
:20455000154601A903F010F9012808BF01204AD0BDF80400DFF8948042F60211FF26401AB1
:204570002ED048F26311401A012827D827BBB9F1010F1FD1BDF804104AF6662000278842F1
:2045900002D12978032913DA2978E2681170BDF80410884205D0E1684046884218D13E46A4
:2045B00018E0E1684046401C884211D1012611E080270DE00D270BE00B2709E00A2707E01E
:2045D000009750464B4621462A4601F076FC0746FF2E07D04046001D006818B1016809B18B
:2045F000304688473846BDE8FC87C0463C1800202DE9B043044603F0CDFE814627480219E4
:2046100092F8EE10491ECFB2002F82F8EE703FD1254901EB84014A880C78904634F07F074E
:2046300018D1E1090FD24FF0805000F5DC75D0F8B8018169104688472868416B4046884740
:204650000228F9D11EE000EB8800D0F804110020884717E04FF08055D5F8B801016A1046C7
:204670008847D5F8B801816A40468847D5F8B801016B404688470A490120086009490868B0
:204690008008FCD304F03F003F2801D0FFF7B0FF484603F07BFE0020BDE8B083CC130020B2
:2046B000282008602820084000840000294838B5001D0468B4F1FF3F08BF002402F0D0FFB0
:2046D000032833D12448254B194A002501211038056003F15C00224B0160181D116000683C
:2046F000806C80471348006820B113480068204600F042FC114812490560124C0A686FF3C1
:204710005B4244EA020008600F490868C0F30130012806D10A680D48104040F400320A60C1
:2047300008600B4908680028FCD138BDFEE7C0460822044380012843000120438C210840B2
:20475000482003400000390104000940FFFFFCFC0C006842181300509404604200600C400A
:20477000EC010010F8B5064603F014FE264D0746A91991F8EE00421C002881F8EE203ED119
:20479000224C04EB8604267806F03F003F2801D0FFF7E8FF648836F07F0018D1F0090FD2E6
:2047B0004FF0805000F5DC75D0F8B8014169204688472868416B204688470128F9D11EE0D2
:2047D00005EB8405D5F804110120884717E04FF08055D5F8B801C16920468847D5F8B80108
:2047F000416A20468847D5F8B801C16A20468847074901200860074908688008FCD3384675
:2048100003F0C4FD0020F8BDCC1300200084000028200860282008402DE9F04114460F4646
:2048300003F0B8FD1FFA80F824480068007808B903F018FA0FB338684FF0FF3518B1402817
:204850000AD3810B08D17E681EB1310A04D0310E02D1B9680F2908D93DB10CB1284620704D
:204870000820FFF7C5FE002422E04FF08055D5F8CC11BA680B68796808E04FF08055D5F824
:20489000CC01036801224FF48070014698470C49012008600B4905F5E67508684008FCD346
:2048B00028684168022088470CB1002121700446404603F06BFD2046BDE8F081E084000044
:2048D000A8025042088002402DE9F0410E46294990461C4606AF8C4672680878BB88517890
:2048F0003F881278002502EB012242F62321521A29D0521E052A18D9921F0CD0263A34D1BF
:20491000072F30D8C7F10700984298BF83B2674407F1080121E0B84225DBC01B9842D8BF31
:2049300083B22380DCF804000BE0F06803F00CFB80B2B84217DBC01B9842D8BF83B2238038
:20495000F06839180AE0082F0DD8C7F10800984298BF83B207EB0C010F31238040461A46AA
:2049700000F04CF903E0072501E025800A252846BDE8F081B0100020F8B50D46254C2649EA
:204990000728164644D8DFE800F03C2E2A26221E1904284600F04CFC071C39D0606804F103
:2049B0001701814202D0606802F018FE384631462A4600F023F967602570F8BD142D27DCA4
:2049D0000C46153412E0142D22DC0C460EE0142D1EDC64340AE0142D1ADC4F3406E0142D1D
:2049F00016DC3A3402E0142D12DC253420460021152200F09EFE204631462A4600F0FEF860
:204A1000F8BD082D04D130680F34206077686760F8BDC046B0100020291100202DE9F84F74
:204A3000071C93468846DDF828A0009308D0B8F1000F05D0BBF1000F18BFBAF1000F02D1E8
:204A50000220BDE8F88F1C480178002634462DE0A0003D18385A4FF6FF71814222D0AB785A
:204A700003B358460099C268904504D0491E00F11000F8D116E05FEA000913D0A8784108A1
:204A900007D3288801214A46534600F017FD0643A878800806D3288802214A46534600F077
:204AB0000DFD064304480178641CE4B2A142CFDC3046BDE8F88FC046280B0020F0B5264C18
:204AD000207EADF1140D012802D9401F1AD01EE000F034FD071C09D0207F69468DF810001E
:204AF00004A801F0E5FF074603F0FAFA012F0ED0A27EFF210020824209DD00F80D10401C68
:204B1000C0B2F8E7E169A27E684600F077F8A27E1346002A08BF00200BD0E51CADF10106B2
:204B300015F8011F16F8010F814201D15B1EF7D1401A002700B1012718B1201D694600F045
:204B50005DF83FB1A17E00206A4602F0F5F96069401C606105B0F0BDC0190020F0B52048E3
:204B70000127F84201D001F0ADFE204D204F214EBD4206D203CD0478A4003459401CA04774
:204B9000F6E71D48002800D08047164D164FBD4202D210CDA047FAE7F0BD03251BE041684B
:204BB00008300A1C2A400BD11A1C2A40AB4305D0046804300C600431043BF9D1131C05D090
:204BD000047801300C700131013BF9D1021C2A4001D0A84304300368002BE0D17047C046E8
:204BF000FFFFFFFF0000000000000000148F00007C8F0000CC8E000015C40110002A4AD073
:204C10005FEA000C8B071CD1830722D1102A08D370B4103A78C978C0103AFBD270BC1032B2
:204C300038D0042A2CD3082A05D30C2A24BF08C908C008C908C008C908C092072AD0920F0D
:204C500022E00B780370491C401C521E22D08B07F7D1C30714D18307D8D0121F12D308C907
:204C700003801B0C4380001D121FF8D20AE008C903701B0A43701B0A83701B0AC370001D0C
:204C9000121FF4D2121D05D00B780370491C401C521EF9D1604670472DE9F843234D88462C
:204CB00006464FF0FF3105F12400814603F06AFB00200CE0FF2909D02A688A4204D905EBB8
:204CD0008101D1F894700FB1002627E0401CB8F1000F03D018F82010FE29EBD100243460C6
:204CF00074600127B46011E0FF280ED005EB80000B787268C0F8946007FA03F0104370600E
:204D10000A680949304602F09BFA641CB8F1000F04D008EB84010878FE28E5D1484603F061
:204D30003DFB3046BDE8F883007FC767E82400202DE9F8432020EFF3118780F31188214C38
:204D5000A068012103F0C6FA4FF001094FF0000865692168A4F81C906A1A2168A4F81E80F0
:204D7000461B401A904227D387F3118840464519361A4846294603F0A9FAB042F7D92021BF
:204D9000EFF3118781F31188E18B012903D14046294603F09BFAB0F1FF3F06D0A169801B3B
:204DB000814238BF081C411901E0A069291803F089FAA4F820902560A4F81C8087F31188EE
:204DD000BDE8F883780100202DE9F04107467E68D6F8BC00C8B303F0DDFA1D4D002480466D
:204DF000042305F10C00046002202B6003F0ECF97368D6F8A810384622469847022002F057
:204E100039FA0BE08069C6F8BC007368D6F8BC10224638469847022002F02CFAD6F8BC0003
:204E3000D6F8C0108142EDD134722046C6F8A800C6F8BC00C6F8C000064B2C6038461C6002
:204E500001F0AEFD404603F0A1FABDE8F081C04604280040100405422DE9F04180461E483C
:204E700000680D46416927208847012404FA05F61A4DC5F80064C5F87C470327C5F88077A3
:204E900017480460C5F88477D5F80404012818BFC5F80444C5F8FC6312480460C5F8008096
:204EB0001023AB60204603F08FF9D5F88C074008F8D3D5F88C17204611F0404F09D1C5F853
:204ED00084770021C5F8FC16D5F80024164218BF081CBDE8F081C046B00100100440024030
:204EF00000E0484200004842B0B5224C2278A1889308084603D3491C401CA18080B261885C
:204F100052080F4603D3491C7F1C6180BFB2062F0EDB06280CDB04F10800054603F06CF8D8
:204F300028B3284603F068F900202021608019E003280BDA38431AD104F10800044603F0DA
:204F50005BF8A0B1204603F057F9B0BD7FB904F10800054603F050F848B1284603F04CF92D
:204F700000204021A0800248006803F0CBF9B0BD1C070020801A0020204A2DE9F041804636
:204F90000124A2F13000046019480768002FFCD01B49184DC0200B1F28601868800806D2AF
:204FB00053F8040C144B000C40F0F000187000204FF080571060D7F8F0010E6801683046B8
:204FD0008847D7F8F0014268314640469047D7F8F001816830468847D7F8A001C16802200B
:204FF000884740202860074E3460BDE8F081C0469402224300600C405662084040100940A5
:20501000B43F00509404604298B54368C3F8A8100868C3F8AC004868C3F8B0008868D3F8EB
:20503000B070C3F8B400C8681949C3F8B80017488FB9D3F8A820127C520042F0010202601B
:20505000022018720A68D20916D2D3F8B820022A16D30B2215E0D3F8A820127C01275200EA
:205070000260D3F8AC201F72541CC3F8AC40127882600868C00902D34FF0FF3098BD022020
:2050900003220A6003F0A0F8002098BD00280040042800407CB51F4C3C3CE06B01680420B1
:2050B0008847022818D0032816D018480068C0F38150032814BF41F288324FF47A72164929
:2050D000164C09684C342046B2FBF1F1FBF786FF2046FBF787FF7CBD20680D4E4568002139
:2050F0004FF040521C23032000903046A8472068012500214FF40072092344680095304611
:20511000A047022002F0B6F87CBDC046B43F005000A00C40E00100108C880000D41300205C
:205130002DE9FC4108AF0D78DFF878803E88FF24022D28D14F687D783F7807EB052742F637
:2051500002157F1B1AD0B7F5827715D196B9022B0EDA1078022809DCCA681070C9684746AE
:2051700000258F4214BF01242C1C0FE080250BE00D2509E00B2507E00A2505E0009600F09E
:205190009CFE054600E00125FF2C07D04046001D006818B1016809B1204688472846BDE8D3
:2051B000FC81C046EC1500202DE9FC4108AF38881D4690460E46002818BF0B2033D1084668
:2051D000694602F0D1FA012804D1002028800120BDE8FC81BDF800004AF601410024401A95
:2051F00016D0401E0BD0401E1CBF2C800A2419D102202880F06800884146088012E00520B3
:205210002880F068026841460A600079087109E0FFF754FC0548083002782A80F16840467A
:20523000FFF7ECFC2046BDE8FC81C04634170020F8B5001D84B214F0030002D0241A241D2F
:20525000A4B202F01DFD1A4A102C01461769D160C8BF5769388800221646C30BDD0319D127
:2052700026B984420ADD3A46012617E01388C3189BB29C42138011DC174618469FB1001BAD
:2052900080B20428B4BF3C88385344F400443C803F1D08E080F40040002680B2C7193888B6
:2052B0000028DAD10027084602F0C4FD3846F8BDE01400202DE9F0411C46276815460E46B5
:2052D0008046ADF1280DFFB90C20FFF7B1FF071C08BF6FF0030029D0684600212422082316
:2052F000FBF774FE0023069741466A46ADF810301048059302F0E2FF386008B902F072FFDF
:205310007E60BD60276009E002F0BAFC0446386803F00CF8BD60204602F08CFD3868414664
:20533000FBF75CFE3868FBF75DFE00200AB0BDE8F081C046918000002DE9B84103F02AF8F9
:205350001D4C1B4D804604F1E000007848B92C46A168022088470746102001F031FC0FB38F
:205370001DE000F06FFB70B9124800683221B1FBF0F101B9012130342046FBF72FFE2046D0
:20539000FBF730FE0EE0002084F8E0002C46A168022088470746102001F012FC17B1A168BA
:2053B00003208847404602F0F1FFBDE8B881C0465C8700008C880000CC1300202DE9F04162
:2053D0001E4615460F46044602F0D0FF8046384602F09EF9071C03D1404602F0C3FF26E09A
:2053F000F87F10F0070F1BD113487968884202D07968A166786004F1600080E860004046E9
:2054100002F0B0FF04F140004FF0FF3102F0BAFF04F170070020A06697E80300BDE8F08162
:20543000404602F09FFFF87F10F0070FFBD102200021BDE8F081C046B96600002DE9FF4119
:205450000E4605461C4C7188A08A81420CDCB188814209DBF088E18A884205D13089218B9F
:20547000884208BF182722D010207E210522FDF7DBFE77881FFA80F8F288B388ADF802703B
:20549000608AADF806208521ADF800003789ADF804306A461020ADF80870FDF7C5FEC7B236
:2054B0002FB9A57304F1F000414601F0B9FD38460090BDE8FF81C046280B00202DE9F043F4
:2054D0000F4616461C4680464FF6FF71ADF11C0D06AA02F065FB024605924AB300250095CF
:2054F000BDF818004FF0FF090DF11203314601904046CDF80890A047041C14D17089ADF800
:205510001000780824BF0095A52105D2484602F007FA0095A42101904246102004ABFDF70F
:2055300083FEC4B22CB104A81B2102F047FB00E01524204607B0BDE8F083704770B51748E2
:205550001949174C174A067E457E096804F11400B2FBF1F102F016FF002808BF00201BD0C4
:2055700012480570124D20682978B14210D02E7002F0E5FD201D064602F01EFD2878012820
:2055900004BF0C4820613146002001F0BFFB2060002100B10121084670BDC046C019002033
:2055B0002028002020A107008C880000DD280020DC280020C28800002DE9FF471C4D1B4ED6
:2055D000287800244FF6FF7A0127A14628E0716931F82400824520D0804602F0E5FC400863
:2055F0001BD3404639464A4602F0DAFA0390A0B1B6F84210ADF808107178ADF80A70424621
:2056100002AB01701020A521CDF80090FDF70CFE18B102A81B2102F0D1FA2878641CE4B2F1
:20563000A042D4DC0090BDE8FF87C046C4170020280B0020F8B502F0ADFE1C4C0746206F2B
:2056500010F4602F27D0206F400CC6B2700807D2B00803D2F00828BF022602E0012600E08F
:205670000026751D68B200F003FF236F06F111010120884023EA00013846216702F086FE48
:2056900004EB8600476E4FB1206E294600224FF00063B84702E0384602F078FE206F20B1E8
:2056B00004F58470002102F0ADFBF8BD700E0020F8B500680E4617464FF0FF3104464830E8
:2056D00002F060FE4FF0FF35092E08D0217A0120B040084211D108433546207210E0227A2C
:2056F0000721012303FA01F0104202D0491EF9D503E0227A0D4610432072B5F1FF3F0ED08E
:205710006FB129463846FFF7A7FB40B1217A0120A8404FF0FF3580F0FF000840207204F18E
:20573000480002F03BFE2846F8BD002213460A46194671B510F0030F0BD0002A82BF00F823
:20575000011BB2F1010210F0030FF6D1002A08BF71BD11F0FF0141EA0121042A18D341EAED
:205770000141082A0FD30E46102A08D30C460D46B2F10F0312F00F0272C0103BFCD812F09A
:20579000080F18BF42C012F0040F18BF40F8041B12F0020F18BF20F8021B12F0010F18BFBE
:2057B000017071BDF8B506AF0D783E88FF24022D24D14F687D783F7807EB052742F6021576
:2057D0007F1B16D04DF29F603F1A10D16EB9022B09DA1278002532F0010004BFC868027053
:2057F0000FD0802513E00D2509E00B2507E00A2505E0009600F061FB054600E00125FF2C7E
:2058100005D00448006810B1006800B180472846F8BDC0468C1200202DE9F8438146EFF36D
:205830001188202080F31188174D154C134F012605F11C000660A4F114000660F86A016AD1
:2058500014208847D9F81000810C14BF000C04202060386802682321002090470948066048
:2058700054F8180C20F4C02040F4803044F8180C2E6088F31188BDE8F883C0468401001013
:205890001820094080022443000024432DE9FC41194E052706F11400002506F11C0420607A
:2058B0001022377606F120087576294675610420B0764046FFF73DFF10212846424601F090
:2058D0003BFBB07E8DF8000021680DF101006A4601600120394601F02FFB307E8DF8000048
:2058F000707E6A468DF801000220014601F024FBFFF7E4F8BDE8FC81C019002038B51A4CBB
:20591000606901F029F8E1792079032907D0022929D16079401E17D0401E07D003E0401EED
:2059300012D0401E02D001F087FD38BD022060704FF4FA6000F068FE0120607204F1EC0022
:2059500002F058FC05210BE001254FF49660657000F05AFE04F1EC00657202F04BFC294604
:20597000142001F0C7F838BD0C070020B0B5ADF1400D02F003FD044600213C220823684627
:2059900002F098FC1148416806918168006804900F480068002205900E480891694602F0ED
:2059B00085FC071C0DD002F06BF90546384600F0F1FE30B1284602F03DFA204602F0DAFCB2
:2059D00001E000F081FD10B0B0BDC04618860000E0140020D97F00002DE9F0410D461E462D
:2059F000904607460B2D26DA0B2F24DA02F048F9134CA900024601EBC5016C3464186068EB
:205A1000B0B1104602F016FA06F8087C06F8075C06F8068C60683146083001F0F5FD606828
:205A300040684FF0004102F06DFC0020BDE8F081104602F0FFF96FF00200BDE8F081C046E0
:205A5000FC14002038B54FF08055D5F8E001016801208847012822D0D5F8A401C4681148EC
:205A7000342101220023A047002808BF002017D0D5F8800001F0DEFED5F88C01C06A804739
:205A90000A4A094C93681168D060C01AA1EB910104FB00F3180C884228BF011C116001203B
:205AB00038BDC04600A00C4040420F00B428002030B5401E4FF00004ADF12C0D0AD0401ECD
:205AD00004D0401E20D1FDF71BFA1DE000F026F8044619E001A8214624220823FBF776FA59
:205AF00006940D4DADF8144009490794012201AB05F17800FBF76EFA064A23462C2105F129
:205B10009C00009302F01EFC20460BB030BDC046A9600000C91B0000CC13002098B5164C8B
:205B300094F8E100002710B91448007860B102F031FC94F8E310002906BF012184F8E310F6
:205B5000012702F023FC0FB1002098BD022001F05BFC0E20FEF706FE094A106848B9094918
:205B70004020C86008600127D761002084F8E20098BD012098BDC046CC1300206A87000086
:205B900004800C402C500C4070B544688668D4F8A40001F0E7FF154800250C30056040F8FC
:205BB0000C5C114805607068FEF722FD04F1100002F078FB04F12C0002F070FB04F1600086
:205BD00002F068FB207818B904F17C0002F062FB04F1C80001F076FF02F0DCFB84F8DC50A3
:205BF00002F0D4FB70BDC0461004054204280040164880B507683FB315498B6803EA530055
:205C1000C00E21D2134A106880081DD2486880081AD21068096810F0050F4FEA114101F0CA
:205C3000F00101F5E0710AD1B9420DD2190F38BF40F00100D90E38BF40F0040003E0B94227
:205C500002D920F00500106080BDC04628500940AC3F005000000940012898B525D1154883
:205C7000006801680120884701281ED001F06AFE124C012104F1D800017002F025FA80098B
:205C900015D20D4800683222B2FBF0F707B90F46083C3034204602F049FB20463946FBF738
:205CB0009DF92046FBF79EF901E000F09BFE002098BDC046E00100108C880000D41300205E
:205CD000B0B5074602F066FB154C0546207918B3401EC0B22071F8B904F1D400082102F0A9
:205CF00091F8CFB12069783002F020FB21690D48CA680068BA1AB2FBF0F2012A98BF0121CD
:205D100003D9C9687F1AB7FBF0F1B0342046FBF765F92046FBF766F9284602F037FBB0BDEA
:205D3000700E00208C880000F8B5844640F6FF741CF8013B002210E0481B401E10F8015BFA
:205D50007F1E01F8015BF9D103E01CF8010B01F8010B521C5B08082AEADA5808F5D21CF86D
:205D7000010B1CF8015B05F00F07FF1CC5F30315122F45EA001508D11CF8016B300A24BFA6
:205D90001CF8010B60F3DF16F719AC42D4D1F8BDB0B5174C241D20680004070C23D012483E
:205DB000006800688047114991F90720824205DD10F1800FB8BF6FF07F00C8718D88BD4259
:205DD00010D80A68D4F8D40F801A801C1F2888BF1F207F1B4008C7404FF6FF70EF19B84208
:205DF00038BF071C8F80B0BDEC010010D028002030100940084610B500F0005100F0040017
:205E100008431ED00F480068016801208847114C012811D00C4801683220B0FBF1F2012AF2
:205E30008CBFB0FBF1F1012178342046FBF7D6F82046FBF7D7F810BD044802F01BF90448F4
:205E5000046010BDE00100108C8800008518000000100440A80E0020B0B504AF3F88002F27
:205E700018BF0B2028D10878022821D14868457800784FF6A177002400EB0520C01B07D053
:205E9000401E0BD0401E022884BF201C0A2411D801201880C868007810700CE00220188014
:205EB000C86800781070C86800880012507002E00020012418802046B0BDF8B506AF3F8865
:205ED0000E4605463FBB022B23D15078147804EB002434F001001AD1F1680968284602F057
:205EF00063F8844211D0F06806683146284601F0F9FD48B94FF6FF70314601F0F3FD0028C9
:205F100008BF112008D0058084700020F8BD8020F8BD0D20F8BD0B20F8BDFEE72DE9F04110
:205F30001D4616468846044602F0F4F900F032FC071C08BF6FF002041BD001F0A1FE0E4A5B
:205F5000002132F80C3F53B914805760C2F80880317079680024296001F06CFF09E0A342A9
:205F700008BF6FF00204F7D0491C0B29E9D300F0ABFA2046BDE8F0815C15002010B502F070
:205F900009FA154C611C097829B110490C6802F0FDF9204610BD02F0F9F90D480068006BC1
:205FB00080470C4A002301F0FDFEA26C002314001B184FF07A024FF0905044EB0104C11846
:205FD00042EB04021046001C10BDC046043004408C01001000093D00700E00202DE9F041F9
:205FF00014460D46804602F095F901F023FB061C08BF6FF004001ED001F042FEB768002FD6
:2060100008BF002708D057F80C1CB160002347F80C3CFF2207F8022C01F00CFF57B117F817
:20603000080C88F8000017F8070C287000202760BDE8F0810220BDE8F081704770B5154CD0
:2060500001284FF0010510D001F01AFE217851B1491EC9B2217031B901F0ECFE606801F04D
:206070004BFA002513E006460EE001F009FE064621460878FF2807D0401CC0B201280870E1
:2060900002D1486801F04FFA304601F0D3FE284670BDC046AC1B002008B51348134A1449A1
:2060B0000078801E0A2807D8DFE800F01814100614100614100609C002F034F911E010680B
:2060D0008008FCD250688008FCD20AE008688008FCD306E008688008FCD202E0106880080D
:2060F000FCD3FCF70DFF08BDB014002034600C4038600C4010B5144C08460D380FD0401E60
:2061100020D10E2001F0EEFE20B92046017841F0020111E02046017801F0FD010CE00D20AF
:2061300001F0E0FE20B92046017841F0010103E02046017801F0FE0101700448006810218D
:2061500002F0E0F810BDC046801A00201C070020F8B506AF3F881D461446002F18BF0B207E
:2061700021D148684278007842F61927002600EB022087420BD042F60812824218BF0A26CF
:2061900010D102202880C868008820800AE000F063FF05494A788242C4BF021C4A70012060
:2061B000288022703046F8BDC41700201549096821280ADC212819D00C380FD00D380FD0F8
:2061D000001F0FD0C01E0FD01AE0253810D0001F10D0401E10D0401E10D011E0086870472A
:2061F0004868704788687047C8687047086970474869704788697047C8697047086A704751
:2062100000207047F0010020801EADF1080D26D0801E24D0401E1BD0401E11D0401E07D0F0
:2062300001208DF803009DF803000028FBD116E001208DF802009DF802000028FBD10EE002
:2062500001208DF801009DF801000028FBD106E001208DF800009DF800000028FBD102B036
:2062700070477047BCB5134A0B460146D4681069E9B1114D491E14D0491E08D0491E18D1B3
:2062900093F90000D07000955069D11C04E093F900109170911C009518321323FEF7BEFBF6
:2062B000BCBD93F90000511C50702046F3E718781070BCBD84120020695E000038B505461E
:2062D0006C68D4F8A810237A002203B9012263689847D4F8BC00D4F8C010814211D080695D
:2062F000C4F8BC00D4F8BC102846FEF78DFEB0F1FF3F0ED10320207204F12C0001F0F2FF1A
:2063100038BD0020C4F8A800C4F8BC00022000F0B1FF38BDC8B5074601F0FCFF01F08AF99B
:20633000064601F0F5FE30F0010014BF002E6FF004001AD067B1B7F1FF3F06D038466946AD
:2063500001F04AF830B107460EE04FF0FF3000E0002000907068009B00274FF00042394646
:20637000FAF78AFD00B901273846C8BD38B50C4620B141680122A240114201D1022038BDB7
:20639000914341600E480025231800EB8401C1F8945003F140010978FF291ABF406850F80E
:2063B000211044F020410548FDF728FF20464FF0FF3101F01FFC284638BDC046007FC767A8
:2063D000E82400201CB5144C2078062814D040F205306946FDF7FAF99DF8000000280CBF21
:2063F0000120002001210DF101028DF8010040F20530FBF76BFD207806280BD101248DF896
:20641000024001F0D5F840F205300DF102022146FBF75CFD1CBDC0460C07002038B51248F8
:20643000104C0168114D0C40E1430160A10908D34068800905D328464FF40051D43001F0D3
:20645000E1FC14F4602F0CD0284600F170010A6804F4602400F5847014430C60002101F060
:20647000D1FC38BD20000E0008100440700E002098B5044601F08EFF8446104890F87710DC
:20649000C90803D390F87610A14213D0B0F874300B4F012202FA04F11943A0F87410391DE9
:2064B0000B6804F10C07BA4093430B600F680FB900210170604601F069FF98BD700E002053
:2064D0000810044000BF704708B5FFF7FBFFFEE738B50D4C0546A06820B10C48B0F1FF3FAB
:2064F00000D080470A4800688047606810B1014628468847206800B18047064800688047EA
:20651000FFF7E2FF38BDC046941B0020FFFFFFFFC41B0020C81B0020202101704FF42B713B
:206530004180032101710A4981604FF0FF3282620849C16008490161084941610849816121
:206550000849C16100210162416280F82C107047089801102C98011050980110749801108A
:2065700098980110BC980110F8B50C46054601F0D1FE00F00FF9071C18D001F081FB844621
:206590000C480021603030F80C6F66B94FF6F87202802970476000228260786820606046A9
:2065B00001F048FCF8BD491C0B29ECD3FFF78CFFF8BDC046FC140020F8B516460C4601F0D1
:2065D000E9FE02460F484178832554B1641E02D0641E10D00DE08179012904D0B0F87410F8
:2065F00005E0876A0FB9802506E0806A818B318002E0032500E03170104601F0C7FE2846B6
:20661000F8BDC046700E0020114910B504460868D8B1104B0D4803F10C010A68B0FBF4F0FD
:20663000040422F0010228330A60220CCA61C0F307441C61C0F34F049C60DC60C0F347421A
:206650009A61086840F00100086010BD006CDC02481C002000000140F0B50D4614461F4693
:206670000646002124220823ADF1240D6846FAF7ADFC0E9806900B4800684FF47A716B463F
:20669000B1FBF0F082B2B8B22946504305900020ADF81000A0B242433046FAF79BFC09B0C6
:2066B000F0BDC0468C8800002DE998430446A76E9946904607B1B8470020022100EA090011
:2066D00001EA0801002808BF00290BD104F1600090E8060008EA010109EA0200002808BF17
:2066F000002907D004F1700080E8000304F1400001F054FEBDE89883F8B506AF38881D46FD
:2067100014460E46002818BF0B201BD10846694601F02AF8012803D1002028800120F8BDFA
:20673000BDF800004CF6C141814208D106202880F068016821608088A0800020F8BD002087
:2067500028800A20F8BDF8B506AF38881C4616460D46002818BF0B201BD10846694601F06B
:2067700003F8012808BF012013D0BDF800204AF665210020914207D0BDF80020491C9142A8
:206790001CBF20800A2004D101212180E96809783170F8BD2DE9F843804601F071FA0F4CB6
