:20000000A43C00201599000001C9011001C9011001C9011001C9011001C9011001C9011010
:1C00200001C9011001C9011001C9011001C9011001C9011001C901103FC9011089
:20003C0000B5ADF1140D02928DF80E10ADF80C0000208DF80F004BE29DF80E00102805D1B6
:20005C000299AC48102206F00FFD81E218208DF80F007DE29DF80E00102805D10299AF48F0
:20007C00102206F001FD73E218208DF80F006FE29DF80E00042804D10298B04900680860C5
:20009C0066E218208DF80F0062E29DF80E00012844D1AD48007801283CD0AC4800788DF878
:2000BC0010000298A949007808709DF81000B0B1A648007898B9AF480078022804D0AD4879
:2000DC000078052840F04482AB480178502009F08BFB02468221102006F08CFB38E29DF8C7
:2000FC001000002840F0348298480078002800F02F82A0480078012808D09E4800780428BA
:20011C0004D09C480078052840F0228201200AF08DFF1DE212208DF80F0019E218208DF86E
:20013C000F0015E29DF80E0001284CD187480078012844D0844800788DF8100002988249F2
:20015C00007808709DF81000D0B17F480078B8B988480078032808D086480078072804D029
:20017C0084480078052840F0F38183480178502009F03AFB02468221102006F03BFBE7E15D
:20019C009DF81000002840F0E3816F480078002800F0DE817748007801280CD075480078CB
:2001BC00042808D073480078062804D071480078052840F0CD8101200AF038FFC8E11220E1
:2001DC008DF80F00C4E118208DF80F00C0E19DF80E00022804D10298B94900880880B7E177
:2001FC0018208DF80F00B3E19DF80E001F2821DCB44800211F2207F09FFB02999DF80E204F
:20021C00B04806F031FC9DF80E00AF4908705A480178502009F0E8FA0246AB4800780090EB
:20023C00A848832101230190102006F0E3FA8DF80F008DE118208DF80F0089E19DF80E007B
:20025C001F2821DCA14800211F2207F075FB02999DF80E209D4806F007FC9DF80E00BE49A6
:20027C00087045480178502009F0BEFA0246BA48007800909548832100230190102006F016
:20029C00B9FA8DF80F0063E118208DF80F005FE19DF80E00012808D102980078042804DCE8
:2002BC000298AE490078087052E118208DF80F004EE19DF80E00012808D102980078032891
:2002DC0004DC0298A6490078087041E118208DF80F003DE19DF80E00062806D10298A14971
:2002FC0002680A608088888032E118208DF80F002EE1C046C02200209DF80E00012808D163
:20031C0002980078072804DC02989749007808701EE118208DF80F001AE1C046D022002058
:20033C009DF80E0001280BD102980078032807DC02988E49007808700AE1C046B82200208D
:20035C0018208DF80F0003E1E5090020E40900209DF80E00012808D102980078062804DAF3
:20037C000298834900780870F2E018208DF80F00EEE0C046B4220020AC2200200298008893
:20039C00ADF810009DF80E0002280DD1BDF81000062809DBBDF81000B0F5486F04DCBDF854
:2003BC00100074490880D3E018208DF80F00CFE002980088ADF810009DF80E0002280DD11C
:2003DC00BDF81000062809DBBDF81000B0F5486F04DCBDF8100068490880B9E018208DF8D5
:2003FC000F00B5E002980088ADF810009DF80E00022809D1BDF81000B0F5FA7F04DABDF849
:20041C0010005E490880A3E018208DF80F009FE002980088ADF810009DF80E0002280DD131
:20043C00BDF810000A2809DBBDF81000B0F5486F04DCBDF810005249088089E018208DF8B6
:20045C000F0085E0029800788DF810009DF80E00012819D19DF81000012815D149480AF070
:20047C00A3FB68B94249002005F0FEFB8DF80F009DF80F0000286BD143480AF0CDFD67E0D6
:20049C0016208DF80F0063E018208DF80F005FE0BDF80C0028280EDA9DF80E0002280AD187
:2004BC000298BDF80C2003887D21102006F0A2F98DF80F004CE002208DF80F0048E0C04617
:2004DC00E609002088090020E8090020A7090020BDF80C00A0F201301A28D9D801A151F8FD
:2004FC002000874655000000710000008D000000AD040000A7000000EB0100000502000055
:20051C0059020000AD020000CF020000F1020000150300003D030000AD040000AD04000037
:20053C006D03000099030000CD030000010400002D040000AD040000AD040000AD0400007A
:20055C00AD04000061040000AD040000410100009DF80F0005B000BDE9090020BC22002050
:20057C00BD220020D50C0020BE220020BF220020080C00200A0C00200C0C00200E0C002082
:20059C00100C0020742100202C21002010B5ADF1200D019100900198C00B2CD300F0A2FA40
:2005BC0004908D480AF00BFE02900298806905900598800817D20298A8B10299059A8869DD
:2005DC0090438861049800F091FA0298406868B1029802994468059A0298B1F91C10C068B9
:2005FC000023A04702E0049800F080FA019820F48040019038E201988008C0F0B180AB48E0
:20061C000AF0DDFD0028029000F09A80029808F0EBF9029880690490029800218161029862
:20063C004068002830D00498002106AA40F0020082E8030014E000204FF0005106AA82E804
:20065C00030017E000204FF0804106AA82E8030010E000204FF0805106AA82E8030009E021
:20067C000298C07F00F00700401EE4D0401EE9D0801EEED006AA0CCA029802994468029808
:20069C00B1F91C10C068A04700F02CFA05909A489949B0F90000401C6FF31F3008808348E1
:2006BC0000680021C17781480AF028F8059800F01DFA0298C0689049B0F9B800B1F9001020
:2006DC0088423DD1AB480078002839D10298C06890F8BA0018B90298C068006840B90298F7
:2006FC00C068002180F8BA10002006F033F827E0B54800680068B0F1FF3F21D00299B348D8
:20071C00C96800680968B1FBF0F0012807D90299AE48C96800680968B1FBF0F000E00120F6
:20073C0006900298C06870300AF0CAFD069900F0E1F90298C06870300AF0C2FD00F0DEF999
:20075C00019820F00200019058480AF038FD0028029000F08981019840F00200019083E1FE
:20077C000198800FC0F0BA8000988068008840F60201814209D1009880681030018821F40F
:20079C007C7141F43471018008E0009880681830018821F47C7141F434710180A34800680C
:2007BC00002839D0A2480068016804208847002832D0B2480068006B804704909B4804996C
:2007DC00006888420AD2994801680498401A0099000BC8600BE0C046642200209348016808
:2007FC000498401A009900F1FF30000BC86000990098CA68408A8018C8600098C06840F618
:20081C00C411814204D30098C068B0F5FA7F03D2009840F6C411C16000988069D0B100983C
:20083C0097498069814215D09648007810F00F0F10D10098408C40F6090181420AD10098FC
:20085C0080690590059C00986FF4807100224FF00073A0478C480AF02DFD8C4900220AF0CD
:20087C0093FD8B4803908B48007860B10220ADF8140005A80AF058F8BDF81C0003998882C1
:20089C0084490020087084490120087083490878401C087082490020087082480AF08FFC9F
:2008BC0030B119200AF07CFC06E0C04668220020019840F0020001900098406948B10098CC
:2008DC0040690590059C0098002100224FF08063A047019820F000500190C5E072480078D8
:2008FC0060B10198000909D36F4900200870019820F008000190B7E06E22002001980009D2
:20091C00C0F09880644900200870684901200870002005F088F866480AF010FB5A480AF080
:20093C00C9FC644900220AF02FFD6348007810B15848007800B36049012008705F4940F612
:20095C00090008804F484F49007820F00F0040F0010008705A49002008805A49087820F0FD
:20097C000F00087058490020086054485749086053E0C0461A0A002055480068002845D048
:20099C003E480068006B8047524908602748016850480068401A4F49000B08604E494D48AF
:2009BC000A6800688018086049484B4900680968B1EBC01F0CD249480AF0A6FC4FF000512D
:2009DC000AF0ECF929E0C0462C20002034BA0000414900200860394940F6090008802948E7
:2009FC002849007820F00F0040F0010008703449002008803349087820F00F0008703249F7
:200A1C00002008602D483149086006E033480AF07BFC4FF000510AF0C1F9044900200860F0
:200A3C00019820F0080001901EE0C0463C200020E00100100198800B16D329480AF0BFFBB5
:200A5C000290029860B10298406848B10298029944680298B1F91C10C06800222023A0473D
:200A7C00019820F400500190019828B11B480AF04BFC01990AF092F908B010BD8C01001075
:200A9C009DB1000091220020D4210020CD3B0000442200204D200020302000203920002000
:200ABC004E2000205C220020512000204F2000204D760000B1A300004C2000208422002065
:200ADC0086220020902200208822002000100440482000204020002044200020C41F0020B3
:200AFC0060220020DFF800F085BF0110DFF800F061C00110DFF800F0E5C00110DFF800F0DF
:200B1C001FBE011000B5ADF11C0DB548B54906F045F8B2490860B148B34900680AF088FBE4
:200B3C00B248B34905F01CFAB2490A6802A802608988818010204C2102AA05F05BFEAF487F
:200B5C000AF056FAAC4908600020AE49009004200190AB484FF47A72002307F015FF002006
:200B7C0000904FF48070A7490190A7483222002307F00AFF002000904FF48060A149019061
:200B9C00A248C8224FF4487307F0FEFE10207D211F22052305F02EFE01208DF81A0000203C
:200BBC00ADF8100001208DF81B000820ADF812004FF44870ADF814000020ADF816004FF4F2
:200BDC007A70ADF8180001210DF11A0240F20530FFF726FA40F20630022104AAFFF720FA50
:200BFC008B4A4FF442701E21FFF71AFA894A40F207301421FFF714FA4FF4447001210DF13A
:200C1C001B02FFF70DFA40F2113002210DF11202FFF706FA40F21230022105AAFFF700FACA
:200C3C0040F2133002210DF11602FFF7F9F94FF44570022106AAFFF7F3F9774800686A21A3
:200C5C00002215230090102005F0D4FDA020ADF81000BDF810307D210622102005F0CAFD7C
:200C7C00BDF8103010207D21072205F0C3FDBDF8103010207D21082205F0BCFDBDF8103027
:200C9C0010207D21092205F0B5FD0020049001208DF8140000208DF8150003208DF81600B2
:200CBC0001208DF8170004A870214FF4816204230090102005F09EFD05A870214FF480621E
:200CDC0001230090102005F095FD0DF11500702140F2024201230090102005F08BFD0DF114
:200CFC001600702140F2034201230090102005F081FD0DF11700702140F20642012300908F
:200D1C00102005F077FD10206B214FF0FF3205F071FD1020C8214FF0FF3205F06BFD09F0B0
:200D3C00A5FC4FF0FF3005F05FF84FF0FF3004F021FA08F0ABF809F0EDF809F0E9F909F072
:200D5C00FDFA09F0E3FF35490020087034490020087000208DF8100004AA0220012104F0DF
:200D7C003FFD30490020087009F04EFE2E4809F00BFE2E4809F098FD2D4A0020012104F09C
:200D9C002FFD2C4A0120012104F02AFD2A4A0220012104F025FD294809F090FB284A1020D2
:200DBC00742105F027FD11480178502008F01CFD02467C21102005F01DFD0C4801785020B5
:200DDC0008F012FD0246A621102005F013FD0348054900680AF02CFA07B000BD6C23002068
:200DFC0014230020CC0A002019A6000079230020702300200CBA000024230020FC220020F1
:200E1C00E4200020D1AF00005420002050210020C60900201C0B0020100A00202823002012
:200E3C00202300207A230020E80C0020E40C0020090A00200A0A00200B0A0020F40C002096
:200E5C00580C002080B502AFADF1180D029301920091ADF80C0000208DF8100000990098F9
:200E7C00496840680978407801F0FF0100F0FF0001EB0021ADF80E108AE03888082803D9DE
:200E9C0007208DF81000A1E03888B988C0F10800884201D9B88802E03888C0F10800029965
:200EBC0008803A884B498918029A0198128805F0DBFD8BE00098C0680AF0CCF8ADF8140059
:200EDC003988BDF81400884203DA07208DF810007CE03988BDF81400401AB988884201DDE0
:200EFC00B88803E03988BDF81400401A029908800099CA6839888918029A0198128805F0BB
:200F1C00B3FD63E0344839880078884203DA07208DF810005AE0304839880078401AB98824
:200F3C00884201DDB88803E02B4839880078401A0299088029490A6839888918029A019826
:200F5C00128805F091FD41E03888072803D907208DF810003AE03888B988C0F10700884213
:200F7C0001D9B88802E03888C0F10700029908803A881B498918029A0198128805F074FDC2
:200F9C0024E00298002101800A208DF810001DE0BDF80E0042F62321401A072802D92D3831
:200FBC00D2D0EEE701A151F820008746970E0000D10E0000D10E0000D10E0000D10E0000A5
:200FDC00D10E0000D10E0000210F00009DF8100006B080BD400C0020C80B0020C40B002021
:040FFC00C00C002005
:20100000B41200001810000015AB0110FDB301106DC00110FDAE011099B5011000000000F7
:08102000000000002F00000099
:20102800B01200003C100000B1C00110A9BF011067C0011069B80110000000000000000035
:041048002D00000077
:20104C00B012000060100000BDC00110CDB30110D9BD01106DB3011000000000000000005B
:04106C002E00000052
:2010700000000000600C002004000000000000000000000020000000E8C9011030000000BE
:2010900028100000680C00200400000000000000000000000C000000D8CA01101800000099
:2010B0004C100000700C002004000000000000000000000024000000F0CA0110180000001D
:2010D00000000000780C00200400000000000000000000001000000018CA01102C00000029
:2010F00000100000800C0020040000000000000000000000200000006CCA01102400000095
:20111000FFFFFFFF880C00200400000000000000000000002800000090CA01102400000054
:20113000FFFFFFFF900C00200400000000000000000000001400000008CB011018000000D3
:20115000FFFFFFFF980C002004000000000000000000000058000000B4C9011034000000A1
:20117000FFFFFFFFA00C00200400000000000000000000001000000020CB0110180000006F
:20119000FFFFFFFFA80C00200400000000000000000000001C000000B4CA0110240000009C
:2011B000FFFFFFFFB00C00200400000000000000000000003800000044CA011028000000C4
:2011D000FFFFFFFFB80C00200400000000000000000000005400000078C901103C00000039
:0811F0000100000038BA000004
:0411F80001000000F2
:0411FC0000000E00E1
:0412000000000F00DB
:0412040032000000B4
:0412080001000000E1
:04120C001C0A002098
:0412100000020000D8
:0412140000000000D6
:0412180001C90110F7
:04121C0000000000CE
:0412200000000000CA
:0412240008000000BE
:04122800000023009F
:04122C004008002056
:0412300001000000B9
:04123400340A002058
:0412380008000000AA
:04123C00680900201D
:0412400000000000AA
:0412440000000000A6
:04124800080000009A
:04124C00000000009E
:04125000000000009A
:041254000000000096
:041258000000000092
:04125C00010000008D
:041260000809002059
:041264000600000080
:041268000100000081
:04126C0068070020EF
:04127000000000007A
:041274000000000076
:041278000002000070
:04127C00000000006E
:02128000290043
:02128200010069
:02128400250043
:021286002D0039
:021288002E0036
:02128A002F0033
:02128C0001005F
:01128E00015E
:081290000300000090B900000A
:0812980000000000000000004E
:0412A0000000010049
:0412A4000000030043
:0412A80013C401105A
:0412AC0015AE00007B
:0412B000B812000070
:0412B400B81200006C
:0412B8000000000032
:0412BC00340A0020D0
:0412C00019B1000060
:0412C4002000000006
:0412C800FAB7000071
:0412CC0028B700003F
:0412D00029C101101F
:0412D400C7790000D6
:0412D800CF7E0000C5
:0412DC00A1C7011095
:0412E000A3C701108F
:0412E4000000000006
:0412E80027B7000024
:0412EC003CB600000C
:0412F00054B60000F0
:0412F40024B600001C
:0212F8000200F2
:0212FA000900E9
:0212FC000100EF
:0212FE000000EE
:0113000001EB
:0413040085B00000B0
:04130800B99D00008B
:04130C005DA80000D8
:0413100035A0000004
:0413140069A00000CC
:04131800F19D000043
:04131C00E97D000067
:04132000F7B1000021
:04132400E98C000050
:0413280015C70110D4
:04132C0025C70110C0
:2013300000B5ADF1240D029000208DF80C003BE202980490049840788DF814009DF81400F5
:2013500058BBAA48ED21022210230090102005F057FAA748ED21032210230090102005F003
:201370004FFA0498A749C01C02680A6080888880A54801210170A5480178502008F03AFA46
:201390000246A34800780090A248832101230190102005F035FA8DF814009DF8140010B168
:2013B00099480821017001208DF80C0028E20298049004984078002830D10498C07890B126
:2013D00092480178502008F015FA0246A84800780090A848832100230190102005F010FA7C
:2013F000049948701AE088480078022816D086480078072812D084480078062803D1AA48A7
:20141000007801280AD180480078032806D0A74809F0D0FB10B9012009F00EFE0498407809
:20143000002800F0ED8178480821017001208DF80C00E5E1029804900498407800283CD18D
:2014500002988078032812D16F480078062803D16D480721017033E0AE48007818B16A4861
:20147000022101702CE068480321017028E0AA48008858B1A748007810B98B48007880B140
:20149000A5480188894808F0C1F80AE0A1480078012803D19F490020087002E082490020AF
:2014B000087059480078072803D157480621017006E055480421017002E053480821017021
:2014D00001208DF80C009BE10298049004984078002842D10498B249001D02680A60808881
:2014F00088800498AF49408908804748062101700498B749C08908800498B649008A0880AE
:201510000498B549408A08800498B449C0780870B3480078012803D0B148007802280ED19D
:2015300010207E211F2205F06BF9ADF81400BDF814004FF47A714143AA4808F067F8049819
:2015500040890090042001900498049BC27872211B1D102005F054F90DE004984078312821
:2015700006D16C490020087027480421017002E025480821017001208DF80C0040E10298DC
:201590000490049882887321102005F039F984480021062206F0D6F98D49002008808D49E8
:2015B000002008808C490020088004989E49807908708C4809F036FD9C4809F033FD0120D4
:2015D0008DF80C0077494FF6FF7008803648007818B10D480321017012E10498807908280D
:2015F00008D109480521017007E0C046C0220020D0220020044804210170012009F01CFD04
:20161000FEE0C04629230020B4220020AC220020E80900208809002002980490834809F0D2
:2016300001FD04984078002840F0EA8004986849C0880880049867490089088004986649C1
:2016500040890880674809F0B5FA002840F0D88077480068002800F0D38075485D490068C5
:201670005D4A036809885A48128800889847C7E0E9090020A70900200298049004988288B7
:201690008C210523102005F0BBF8B9E00298049004988088ADF8140051480078052807D153
:2016B00000208DF81E0074E0E50900200821002001208DF81E004B4809F0B4FC48480078A4
:2016D000012803D046480078042839D1594804990088C988884202DD5648008801E004985F
:2016F000C088ADF816005448049900880989884202DD5148008801E004980089ADF81800F7
:201710004E48049900884989884207DD4B48008806E0C046E4090020E609002004984089F6
:20173000ADF81A004648049900888989884202DD4348008801E004988089ADF81C0028E00A
:2017500027480078032803D025480078022810D138480088ADF8160037480088ADF818001D
:2017700036480088ADF81A0035480088ADF81C000FE00498C088ADF8160004980089ADF876
:20179000180004984089ADF81A0004988089ADF81C001020872105AA05F032F830E0C046DB
:2017B000DB0C0020EA0900200298807805281BDC05283FF489AE00283FF4BAAD801E3FF41F
:2017D000F6AD401E3FF436AE401E3FF433AE17E0EC090020EE090020F0090020F209002018
:2017F000080C00202C210020801F3FF4C8AE401E3FF412AF08383FF43FAF801E3FF446AF77
:201810009DF80C0001280CD10E48006848B10D480068006828B10B48006801680A4800786E
:20183000884709B000BDC046F309002074210020FC0900200A0C00200C0C00200E0C0020AF
:20185000100C0020F8090020B4220020BB492DE9F84F00254820C1F8F35FB94CC1F8FF0F60
:2018700094F8E200002800F06581012800F02F81B44E02283CD0032840F05C8151F8310C2D
:20189000D4F8B8100029A0F5C060C4F8D400B8BF49420028B8BF4042814226DA4FF080573A
:2018B000D7F8A4014568B4F8BC0030214FF47F42082300903046A847D7F8A4014568B4F84D
:2018D000C00004214FF4F802122300903046A847D7F8A401B4F8D070456820214FF4406279
:2018F0000A2330460097A847012584F8D8501CE151F8318C09F090FC2F4600B90127394688
:20191000914F38680028FCD0B146012609F10409D9F82CA03E6009B109F084FCCAF30720CC
:20193000C4F8BC0009F078FCAA4600B9B2463B68002BFCD0D9F800B0BAF1000F3E6001D0CD
:2019500009F070FCCBF38440C4F8C00009F064FCAA4600B9B2463B68002BFCD0D9F81C9003
:20197000BAF1000F3E6001D009F05CFCC9F38120C4F8D000B8F5C061C4F8B81000F09C8096
:2019900094F8D80068B9C4F8D410D4F8C000C4F8C800D4F8BC70C4F8C470D4F8D030C4F892
:2019B000CC30D4F8D410D4F8BC30002954BF02206FF0010004F1C802176801EB4101401831
:2019D000411000EB917107EBA1001060D4F8C810C4F8C43000291CDD1E293CDDD4F8CC0048
:2019F00030B93429B4BF15391E21C4F8C81025E02A29BABFD4F8C8000B381E20C4F8C80093
:201A1000D4F8C4003F28B4BF401C3F20C4F8C4001FE0D4F8CC00032812D011F10B0FC6BFCC
:201A3000D4F8C8000B30301CC4F8C800D4F8C4000028C4BF401E051CC4F8C450032508E05D
:201A500011F1150FC6BFD4F8C8001530301CC4F8C800C4F8CC504FF08057D7F8A401B4F814
:201A7000C43030214FF47F424568364800930823A847D7F8A40104214FF400321123456846
:201A900030480096A847B4F8C860D7F8A40104214FF4F802122345682A480096A847D7F8E7
:201AB000A40120214FF440620A23B4F8CC60456824480096A84701E084F8D85040F2FF50A2
:201AD000404502D8801C40452FD2082030E051F8311C1E4F4BF2F5204843060A3868C0F3FA
:201AF000814001280CD11A4800680068804708F0ADF809F09DFB3111C010484306EBE03644
:201B100094F8E50030B91348006820F07F408019460801E084F8E5500F48310C066001272E
:201B300041600E4D8760287808B90B2000E0052084F8E40001F086FCBDE8F88F39400C405D
:201B50006804002000A00C4000800C40B43F0050EC010010102009403C600C40DAB80000FE
:201B700090B503AFADF11C0D02938DF8162001910090FEF7BDFF04908B48B0F90010894883
:201B9000B0F90000401A00F580506FF31F30082811DA84488349B0F90000401C6FF31F3053
:201BB000088080480088ADF81400BDF9140007F03BFB039005E00498FEF79EFF6FF0010087
:201BD000EDE00098703009F081FB09F0D3FC0198039988609DF8160003998877029803991A
:201BF0004860BDF814000399888300980399C86097E818006D49039820222240103019403C
:201C100080E8060003980021C1776948006800282FD06748039906F06BFD70B961486149ED
:201C3000B0F9000000F6FF706FF31F3008800498FEF762FF6FF00100B1E0BDF81400009908
:201C5000A1F8B8000399C87F40F08000C877009890F8BA00012806D10099002081F8BA008B
:201C70005449002008700498FEF746FFBDF9140095E04F48039906F03BFD70B9494849495D
:201C9000B0F9000000F6FF706FF31F3008800498FEF732FF6FF0010081E0BDF81400009908
:201CB000A1F8B8000399C87F40F08000C877009890F8BA00012806D10099002081F8BA002B
:201CD0003C49002008703C48007878B13B48007860B13B49012008703749002008703549F3
:201CF0000020087037490878401C08700498FEF703FF3548006800284FD13048007818B1EF
:201D1000192009F053FA48E030480078002844D1FEF7EEFE04902E48007830B12D49012004
:201D300008700498FEF7E8FE37E00398806807F00BFE2949086038B328480068C1682648D6
:201D50000068401A26490968B0FBF1F001280AD922480068C16820480068401A204909683A
:201D7000B0FBF1F000E0012006901E4809F0AEFA0699FEF7C5FE1B4809F0A8FAFEF7C4FE1D
:201D90000498FEF7B9FE08E00498FEF7B5FE164809F0C0FA042109F007F8BDF9140007B010
:201DB00090BDC0466C2200206E220020F1EFFF9F5C2200204D2000205020002030200020B9
:201DD0005120002039200020602200204E2000204F2000203A200020482000202C200020BC
:201DF00034BA000078200020C41F00200EB50091ADF8040000208DF80600A8E079480099A0
:201E100000780870EAE000987749102204F032FEE4E000987549102204F02CFEDEE0744866
:201E3000009900680860D9E0724900980A68026089888180D2E07048009900780870CDE097
:201E50006E48009900780870C8E06D48009900880880C3E06B4900980A786B4904F00AFE0C
:201E7000BCE06A4900980A78694904F003FEB5E06848009900780870B0E067480099007824
:201E90000870ABE0654900980A68026089888180A4E063480099007808709FE0614800998A
:201EB000007808709AE0604800990088088095E05E4800990078088090E05D48009900886D
:201ED00008808BE05B4800990088088086E05A4800990088088081E0584800990088088058
:201EF0007CE0574900980A6802608988818075E0544800990088088070E0534800990088B2
:201F100008806BE0514800990088088066E0504800990078087061E04E48009900780870D5
:201F30005CE04D4800990078087057E0BDF80400282808DABDF8042010207E2104F060FC1D
:201F5000009908804AE002208DF8060046E0BDF80400A0F540701D28E8D802A151F8200044
:201F70008746C0460D1E0000171E0000231E00002F1E0000391E0000471E00005B1E00005B
:201F9000651E0000731E0000811E00008B1E0000951E0000A31E0000AD1E0000B71E0000C1
:201FB0003D1F0000C11E0000CB1E0000D51E0000DF1E0000E91E0000F31E0000011F0000C5
:201FD0000B1F0000151F00003D1F0000291F0000511E00001F1F0000331F00009DF8060055
:201FF0000EBDC046B5220020C0220020D0220020B822002029230020E4090020E509002074
:20201000E6090020E809002088090020E9090020A7090020BC220020BD220020D50C0020FF
:20203000BE220020BF220020EA090020080C00200A0C00200C0C00200E0C0020100C002064
:20205000DB0C0020EC090020EE090020F0090020F2090020B4220020F309002000B5ADF1A4
:20207000240D8DF81620ADF814100090854809F0ACF80190844802909DF816100020490886
:2020900000D301208DF8170003208DF81800FEF72FFD0390BDF91400B0F1FF3F11D17B48DE
:2020B000006828B179480068808BADF8140005E07748B0F90000401CADF8140002980021C5
:2020D000C175BDF9140006F07DF904900498002840D06E480499006888423BD19DF81600E0
:2020F000800805D36748006801906649002008609DF81720049901209040CA7F1043C8775C
:2021100009F034FA07909DF8170008B1614800E0614808F00FFC0398FEF7EEFC9DF8160032
:20213000800810D3019870B10199C87F40F00400C87701A808F0E8FA0146584806F0D8FAE4
:2021500001980028F0D1079809F00CFA83208DF8180093E00498002800F08D8004980199A5
:2021700088422AD14E4809F0B1F809F003FA9DF81600800803D343490020086004E04148D2
:2021900000684049006808600398FEF7B5FC0199C87F40F00400C87701A808F0B5FA014642
:2021B0003E4806F0A5FA019818B19DF816008008EDD283208DF8180047E0019800283DD06B
:2021D000019904980968884232D1354809F07EF809F0D0F90198006807909DF81600800802
:2021F00005D30198002101600798019008E00798019900680860079800210160079801906A
:20221000019870B10199C87F40F00400C87701A808F07AFA0146214806F06AFA01980028C0
:20223000F0D10398FEF768FC83208DF8180005E001980068019001980028C1D19DF8180022
:20225000832802D00398FEF757FC16480078A8B91548007890B9154808F076FE144809F09B
:2022700059F8022108F0A0FD1248007830B9124808F06AFE02E00398FEF73EFC9DF8180077
:2022900009B000BD5C22002044220020602200206E2200200100020401000104682200208B
:2022B000782000204E2000204F200020A9050000C41F002030200020054E00002DE9F04F70
:2022D0008246DAF800600C465FEA0208ADF11C0D14BF00214FF0FF3106F14800834609F024
:2022F0003DF9002808BF0B2000F00681002565708448F460B8F1010F057004D065700220F4
:20231000F46007F0F3FE2078012840F2AB80801E012868D9801E012833D9801E012800F2BF
:20233000DF80FEF7E5FB06904FF0805000F5EE77D0F8DC01A378466A009321782846062921
:2023500008BF0120019001200290A068228AE1686368B04781460698FEF7CEFBB9F1000FA6
:2023700040F0C080B8F1000F02D008F0EDFC02E0504608F05CF9002800F0A4803868806AE7
:202390002AE0FEF7B5FB06904FF0805000F5EE77D0F8DC01012306680093A168A2786068CA
:2023B0002478AC46042C08BF9C466346B04781460698FEF7A1FBB9F1000F40F09380B8F16B
:2023D000000F02D008F0C0FC02E0504608F02FF9002877D03868406880474949C1F8B051F6
:2023F0000D6081467EE0FEF783FB06904FF0805000F5EE76D0F8DC01E38A87690093E068ED
:202410000190208B0290A0780390207D04900121059122782846022A08BF081CE178626808
:20243000A368B84781460698FEF766FBB9F1000F58D1B8F1000F02D008F086FC02E0504669
:2024500008F0F5F800283DD03068006A80475FEA000947D13068C569A168E28A2369E07800
:20247000A847BEE7FEF744FB06904FF0805000F5EE76D0F8DC01E38AC7680093E0680190D9
:20249000208B0290A0780390207D2946049001200590257805B9014608466268A368E178D0
:2024B000B84781460698FEF727FBB9F1000F19D1B8F1000F02D008F047FC02E0504608F0B9
:2024D000B6F808B9142017E03068406980475FEA000907D1306802692169E078904780E7FD
:2024F0004FF0FF39B8F1010F02D0022007F0E6FD584609F02FF8484607B0BDE8F08FC046A1
:2025100050450240332300202DE9F04F0128ADF1140D40F0E780DFF8D891D9F8DC00012874
:2025300040F0DD800220C9F8DC0009F00FF80290012007F02BFA5FEA000806D00120C9F867
:20255000DC00029808F0FEFFCEE009F00FF8002403906848684D0460A86A01680120884767
:20257000012818BF009404D1204606F059FB012000906248624F04603868112008F06AFE91
:2025900000280CBF261C0126102008F063FE08B146F002060F2008F05DFE08B146F00406D4
:2025B0000B2008F057FE20B12868564F016B388888470A2008F04EFE20B12868524F016BB6
:2025D000388888475148012707602868816946F0200088474E48076008F036FE00F001017A
:2025F000DFF834B10191400814D2286A8168494888478246BAF1040FF7D0BAF1010F04D197
:20261000286A42684348032190475946086820F003000860204600F083F839482B68006811
:20263000986B8047019801280CD0BAF1010F04D1286A42683748394690475946086840F042
:20265000030008602D48076028684169304688470B2008F0FFFD20B128682A4BC16A1888E4
:2026700088470A2008F0F6FD20B12868264BC16A18888847254807600322C9F8DC20244BD5
:202690001C602868416B304688470128F9D1042007F07CF904461A4E164820490760306832
:2026B00008688009FCD30098012802D1384606F0B7FA08F0B7FD082007F068F90646039876
:2026D000C9F8DC7008F04EFF05F07CFF029808F039FF56EA040018BF4FF0FF3804E06FF08A
:2026F000040801E06FF00108404605B0BDE8F08F680400200C400940B801001000022243C5
:202710002C200940BAB50000B6B50000282008608001044300400340242208401410094044
:202730002DE9F84FDFF8F0B10746ABF13500DFF8DC910068800880F0D88070480068006812
:20275000804779490831D1F8008000254FEA28725FEA985102F101020AD2C0F13E0110F171
:202770000A0F4FEAE101D8BF08218A42B8BF0A1C634BD3F87C11C1F304611629A8BF2039CE
:202790001B68C3F30443162BA8BF203B9A465118162905DA11F10A0FB8BF6FF0090100E064
:2027B0001521584B584E01F01F0242F4F8521A80326812F0030F18BF0125D20828BF45F0BD
:2027D00002050FB145F004054A4692F90730C31A052B04DA9379AB4208BF918865D0DFF8C2
:2027F00030E10F28A0F10F0C25DB0CEB0013A3F1F00C4FEA2C26072E88BF07263446062C5B
:2028100088BF06245EF82470042303EB84037446E358DB1B03F0FF04EF0824BFC3F3072712
:202830003C44AF0824BFC3F307473C446F0828BF04EB136401E0002426465EF826E0EF0862
:202850000EF0FF0324BFCEF307273B44AF0824BFCEF307473B446F0828BF03EB1E63A4B2CC
:20287000ACEB0626BAEB010104FB06F404F1800403EB1423D8BF0121342408F0FF074C43A9
:202890007C43B4FBF3F14FF6FF738B4238BF191C802889B2918005DA10F1800FB8BF6FF0ED
:2028B0007F0000E07F20D07195711A4800681F2910604FF0000008D340F2FF128A4206D240
:2028D0004908401C8A42FBD301E01F219180134F0F39090940EAC10047EA0001CBF8FB1FB9
:2028F0000026CBF8FF6FBDE8F88F0D490D4F4A4608200F60921D1070BDE8F88FEC01001014
:202910003C1100506E62084024220840342300209C130050082009403500094000E7A480F4
:2029300030100940FDFDA400AC3F00500EB500928DF805108DF8040000208DF80600BBE067
:202950009DF80500082806D100999DF80520694804F090F8CAE018208DF80600C6E09DF89E
:20297000050014280BDC64480021152204F0EAFF00999DF80520604804F07CF8B6E018200D
:202990008DF80600B2E09DF8050014280BDC5B480021152204F0D6FF00999DF80520574897
:2029B00004F068F8A2E018208DF806009EE09DF8050014280BDC52480021152204F0C2FF8C
:2029D00000999DF805204E4804F054F88EE018208DF806008AE09DF8050014280BDC4948D5
:2029F0000021152204F0AEFF00999DF80520454804F040F87AE018208DF8060076E09DF8BA
:202A1000050014280BDC40480021152204F09AFF00999DF805203C4804F02CF866E01820A4
:202A30008DF8060062E09DF8050014280BDC37480021152204F086FF00999DF805203348DE
:202A500004F018F852E018208DF806004EE09DF8050008F073FB02900298B0B12C482D49C8
:202A70000068814203D02A48006808F0C9FB029800999DF8052003F0FDFF02982449086067
:202A90009DF805002449087030E013208DF806002CE09DF80500072806D100999DF80520DA
:202AB0001E4803F0E7FF21E018208DF806001DE002208DF8060019E09DF804000828F7D8C8
:202AD00001A151F820008746512900006F29000097290000BF290000E72900000F2A00000B
:202AF000372A00005F2A0000A32A00009DF806000EBDC046400C00208B0A0020A00A0020B8
:202B10004C0A0020610A0020B50A0020760A0020C40B0020AE0B0020C80B0020C00C00207E
:202B30002DE9F0411C4615468C4208BF854282BF00230022E5E0002C08BF002D0AD10029B6
:202B50000EBF00286FF000006FF0000100F0E1F8BDE8F0815FF000085FF0000E002C08BF2B
:202B70008D429CBF2C1C0025070C47EA01470E0CB44208BFBD429EBF5FEA044444EA1544D7
:202B90005FEA0545070A47EA01670E0AB44208BFBD429EBF5FEA042444EA15645FEA05252C
:202BB000470847EAC1774E08B44208BFBD4200F29380870847EA81778E08B44208BFBD422C
:202BD0007CD8C70847EA4177CE08B44208BFBD4266D8070947EA01770E09B44208BFBD427D
:202BF00050D8470947EAC1674E09B44208BFBD423AD8870947EA81678E09B44208BFBD42D3
:202C100024D8C70947EA4167CE09B44208BFBD420DD8E60146EA5566EF01B14208BFB84211
:202C300001D3C01BB14158EB08085EEB0E0EA60146EA95664FEA8517B14208BFB84201D3FC
:202C5000C01BB14158EB08084EEB0E0E660146EAD5666F01B14208BFB84201D3C01BB14158
:202C700058EB08084EEB0E0E260146EA15762F01B14208BFB84201D3C01BB14158EB0808E2
:202C90005EEB0E0EE60046EA5576EF00B14208BFB84201D3C01BB14158EB08084EEB0E0EF2
:202CB000A60046EA9576AF00B14208BFB84201D3C01BB14158EB08084EEB0E0E660046EAE1
:202CD000D5766F00B14208BFB84201D3C01BB14158EB08085EEB0E0EA14208BFA84201D3B5
:202CF000401BA14158EB08085EEB0E0EA34208BFAA423EBF2D0A45EA0465240A89D3734628
:202D100042461E4617460B46024631463846BDE8F081704700B5ADF12C0D049303920291B4
:202D30000190019878B1029868B1039858B1049848B10C9838B10D9828B10D98006A10B169
:202D50000D98406A48B90D9820B10D986FF0010180F82C106FF00100CDE00D98816A674897
:202D7000006808F0FBFB0D9981F82C000D9890F92C0038B90D986FF0020180F82C106FF03D
:202D90000200B8E00D980D9A016A0D985288007800EB80008018143080B28847584908608A
:202DB00058B95648006808F0D5FB0D984FF0FF3180F82C104FF0FF309DE0514801680D98CA
:202DD0004088401805900D9805990078001D091806910D9806990078001D091807910D9867
:202DF00007990078001D091808910D9808990078001D091809910D9805F0ACFC0D980078DF
:202E1000C01C411000EB91700599801008600D980078C01C411000EB917006998010086026
:202E30000D980078C01C411000EB91700799801008600D980078C01C411000EB91700899DD
:202E5000801008600D980078C01C411000EB91700999801008600D9A059801991278001D15
:202E700003F008FE0D9A069802991278001D03F001FE0D9A079803991278001D03F0FAFD5D
:202E900009980090089B0699079A059808F056FB8DF828000D9A089904981278091D03F0F4
:202EB000E9FD0D98099902780C98091D03F0E2FD0D9802780D98408802EB82021218104840
:202ED0000068002104F03EFD0D98416A0C48006888470A48006808F03DFB9DF828009928E7
:202EF00002D100208DF828009DF928000D9981F82C009DF928000BB000BDC0464C1600205B
:202F1000884F002000B5ADF12C0D019100900198800FC0F0C480002004F094FC6149002072
:202F30000860624860490860012002F082FD604808F00AF85F4940F60A0008805E490020F3
:202F500008805E49087820F00F0008705C49002008605C485B49007820F00F0040F00100DE
:202F700008700098806806900698002141805648007810B10098407CC0B10098806800888F
:202F900040F60201814205D10699088A20F47C70088204E00699088B20F47C70088300985B
:202FB000002141740098806802F023FF0098806802A907F0CFFC02A808F0D8F80698079003
:202FD00002E00798406807900798406830B107984068008840F60A018142F2D13549079846
:202FF00041600799487B20F00F004873374808F0ECF8806809900998008840F603018142E1
:2030100005D00998008840F60401814203D130490020086020E00098008CE8B1009820302A
:2030300008900898002141800898002141600899087B20F00F00087308980D30017821F0DF
:203050000F0141F0010101701D49089808601D49087820F00F000870124800680028FBD00C
:203070001049002008601B48006801680120884701280AD007980D30017821F00F0141F091
:2030900001010170144807F05FFF00988168487C20F00400487400980349806808600BB0F8
:2030B00000BDC0461C1004400010044001010E04A905000084220020862200209022002057
:2030D00088220020912200204C2000205C2200203C200020E0010010D17800002DE9F04F0E
:2030F000ADF1840D209001F051F907F0D5F80026012804D107F0D4FD022808BF01265B493A
:203110000868C0F38150012806D151F80C0C0127010E07FA01F006435548007807F0E2FAF0
:20313000544D2C46286038B1FF2204F1400107467F1E01F8012BFBD1209909684FF0000957
:2031500001F0FF02FE2A1DD0DDF880C001F0FF074A460123FF2F0ED0B84203D903FA07F7BB
:203170003E4201D002207EE001F0FF0147EA0909611881F840205CF8041F521C01F0FF070C
:20319000FE2FE7D1092002F0CFFA2098002124220823606017A808F0CDF94FF0010804F192
:2031B000240017AA8DF87480414608F0BFF9236843B3002794354FF0040BBA4608FA07F0B2
:2031D000064219D119EA000F04BF07F0FF0141F4C04105D0E019209B90F8401053F82110CE
:2031F000254801F05FFFF8B24FF0FF3107F0AAFC2368C5F800A001E0C5F800B07F1C2D1D32
:203210009F42DBD301A800213022082308F08AF91A4E30780025102101AB0990184A0095AB
:2032300004F1080008F07AF90DA828220823294608F070F90DAA7068124914952B46139075
:2032500004F1600008F062F90F4951F80D0C474620F4F85040F4005041F80D0C0B4EC1F82B
:20327000FF7F2846376021B0BDE8F08FB43F005032230020081A0020007FC767A4B90000C2
:2032900071AB00008D9800000D3009400800094000B5ADF1140D8DF8000000208DF8010067
:2032B000A7E00720052104F00BFE4FF4417001A9FEF79CFD9DF804008DF80C009DF805003D
:2032D0008DF80D009DF806008DF80E0000208DF8100000208DF80F009DF809008DF813007F
:2032F0009DF808008DF812009DF807008DF81100082103AA0020FFF719FB8CE0494807F064
:2033100059FC10B9474807F083FE002007F056FA81E04548007840B144490220087001F0A2
:20333000F3FB43490020087004E040490120087006F0C6FA3B4807F03DFC10B9394807F0BB
:2033500067FE3C4800680621002206F0F5FC394800680721002206F0EFFC04F034FA5AE06C
:203370003249002008700DF101020120012102F03DFA2D49002008700DF10102002001216C
:2033900000F022FE07F012FE2A4800680721002206F0D2FC2848007800283CD006F090FA82
:2033B00039E02249032008700DF101020120012102F01CFA1C49002008700DF10102002074
:2033D000012100F001FE07F0F1FD1C48007820B101F09AFB16490020087007F0FBFD1AE0D4
:2033F00007F0F8FD134800680621012206F0A4FC11E09DF80000401E3FF453AF401E3FF484
:203410007DAF801EACD0401ECBD0401E81D0401E01D0401EE4D09DF800000949087005B059
:2034300000BDC046E42000200A0A002020230020150A00206C2300207A230020090A002020
:20345000000A00202DE9F843634C5C4D5C4EDFF87881604F94F8E4100846401E0B2864D8C5
:20347000DFE800F07E2C43062343062343067967042907D001220A2945F8212C14BF022001
:20349000032004E0202045F8210C0120024684F8E200002045F8390C0827C5F8FF7FC5F8DB
:2034B000F37F45F8392CBDE8F883052914BF09200620002784F8E400376078E094F8E17025
:2034D000383D0120002FC5F81B0004BF0620002102D00021F160032084F8E400032045F80E
:2034F000010C31603068800861D294F8E4103548012703290ED000684568002160220523BC
:2035100000914046A84794F8E400062814BF0A200720CFE70068456800216022052302201B
:2035300000904046A8470420C4E707F0EBFFBDE8F8832648264F0026012506600E203D6046
:2035500001F0C4FF022006F0B9FD84F8E45084F8E360BDE8F883002038600C25786024E085
:203570004FF08059D9F8A0010168202088472C3D0F2045F8010C41F61D56C5F80360D9F8BC
:20359000A401466800214FF4C0720723022540460095B047D9F8A401C66800214FF4C07295
:2035B00007234046B0470120386084F8E45004F17800FDF7A9FABDE8F883C04639400C40FC
:2035D00038600C40A401001000A00C402C500C4004800C4034600C406804002000B5ADF1FF
:2035F000240D0393029201910090009858B1019848B1029838B1039828B10398006A10B14E
:203610000398406A48B9039820B103986FF0010180F82C106FF001009FE00398816A50483B
:20363000006807F09BFF039981F82C00039890F92C0038B903986FF0020180F82C106FF0EF
:2036500002008AE00398039A016A03985288007800EB400080180C3080B28847414908606C
:2036700058B93F48006807F075FF03984FF0FF3180F82C104FF0FF306FE03A4801680398CE
:20369000408840180490039804990078001D09180591039805990078001D091806910398C1
:2036B00005F058F803980078C01C411000EB917004998010086003980078C01C411000EBC9
:2036D000917005998010086003980078C01C411000EB9170069980100860039A04980099AE
:2036F0001278001D03F0C6F904980499059A069B07F004FF8DF81C00039A059901981278EF
:20371000091D03F0B7F9039A069902981278091D03F0B0F9039802780398408802EB420205
:20373000121810480068002104F00CF90398416A0C48006888470A48006807F00BFF9DF854
:203750001C00992802D100208DF81C009DF91C00039981F82C009DF91C0009B000BDC046C7
:203770004C160020884F002080B502AFADF1180DADF8123003920291ADF8100000208DF8AE
:203790001600FF208DF81700029805A904F0D0FB012840F081800120A1E0388838B9BDF8DF
:2037B0001200102806DD0D208DF8160002E00B208DF816009DF8160000287DD10298039905
:2037D000BDF81220C06803F055F900208DF8170072E0388838B9BDF81200052806DD0D20C6
:2037F0008DF8160002E00B208DF816009DF81600002861D10398007810280FDC0298039905
:20381000BDF81220C06803F035F902983549C068814251D101208DF817004DE080208DF834
:20383000160049E0388838B9BDF81200022806D00D208DF8160002E00B208DF816009DF8BC
:203850001600002838D10398007806280DDA02980399C0680988018002982349C068814288
:203870002AD102208DF8170026E080208DF8160022E03888009001200190BDF812300299A8
:20389000039ABDF8100003F0BFFA8DF8160013E00A208DF816000FE0BDF8140042F60211B4
:2038B000401AE6D048F2FF21401A3FF476AF401E8FD0401EB6D0EBE79DF81700FF280CD0BA
:2038D0000A48006848B109480068006828B10748006801689DF8170088479DF8160006B02F
:2038F00080BDC0463C2300205C230020C80C002000B5ADF11C0D01910090FDF709F94F4838
:20391000504A006800214FF0FF3307F0F3FD4C4908604B4800680028F1D0002002900DF18B
:203930000E0102AA03A805F028FE40BB01208DF81000BDF80C00102819D143489DF80E1024
:203950000078884213D102980590059800884FF6FF71814206D105984088C00F07D304F08C
:2039700019F904E0029806F043FB8DF81000029828B19DF8100010B1029807F08FFB304872
:203990000068C00F13D30CE03048006806F014FE0490049828B1049806F067FC049807F095
:2039B0002FFC2A48006807F0A1FD0028ECD024480068400907D222480068800903D22048EB
:2039D0000068C00901D301F099F91D480068000A01D306F0F3FA1A480068400A01D306F0E3
:2039F000CDFB17480068C00A01D305F0EBF814480068000901D307F083F911480068C00815
:203A1000FFF47DAF12480078062803D010480078022802D10F4807F0FBFA0D480078062899
:203A300001D107F0A3FC0A48007802287FF467AF0720012104F044FA61E7C0467023002015
:203A500068230020F70700C07923002024230020000A0020E420002000B5ADF1240D029165
:203A7000019000F049FE4748474A006800214FF0FF3307F03FFD039003980028F3D00020E8
:203A900004900DF1160104AA05A805F076FD30BBBDF8140010281DD13C489DF81610007819
:203AB000884217D104980690069800884FF6FF7181420CD106984088C00B0BD33448ED21FE
:203AD000042204230090102002F09AFE02E0049804F0D4F8049810B1049807F0DFFA03989D
:203AF000400840D32B48007818B92B480078002839D02948007818B103208DF818000EE023
:203B1000264800788DF81800254800788DF8190024490A680DF11A000260898881802248BA
:203B300000788DF82000214800788DF8210017480178502005F05EFE0246842106AB10206A
:203B500002F05EFE78B11A49082008701948006848B118480068006828B1164800680168E1
:203B70001348007888470398800803D31249002002F080F80398C008FFF475AF05F08CFCBE
:203B900071E7C046B022002007000080AC220020B8220020E4090020E5090020BC2200203D
:203BB000BD220020D50C0020BE220020BF220020B4220020F8090020080C00200EB5009056
:203BD00007F07AF802900298800829D349480068019028B3474900200860029A0198019970
:203BF000006910408A69104340F0020088610198414902690868904308600198103090E811
:203C10000C003E4908681A1C904308603C48019904F06EFD3B4807F07DFB022107F0C4F8DB
:203C3000344800680190029880081DD201990298103106C90023014002EA0300002800D15E
:203C5000002911D0019830490860029A01980199006910408A69104388612A4807F05AFB5B
:203C70004FF4804107F0A0F82248006800283FD1264807F0AAFA0028019039D024480199C6
:203C90000068C968884207D01E4807F043FB4FF4805107F089F82BE00198806805F054FEE0
:203CB0001C49086020B11B48006802F059FD1FE0114901980A6800691043086001981030E2
:203CD00090E80C000D490A68181C1043086012490020086001981149806808600E480068B5
:203CF0000028FBD0094806F00FFD0198014908600EBDC04660220020141004400C100440E8
:203D100068220020C41F0020642200205C2200202C200020482000201C10044000100440EA
:203D30002DE9F04F04466568A7688846ADF1440DFCF7DEFE95F8DC10012903D1FCF7DCFE28
:203D500000208DE04FF0010B85F8DCB0FCF7D4FED8F80C00666828B9A06890F814A090F856
:203D7000159003E090F800A090F80190BAF1FF0FE6D0B9F1FF0FE3D03B4941EA0A000D903A
:203D9000FE230F9341EA090106F198000E910DA902F00AFFC6F8A400D6F8A4000028CFD0A1
:203DB00051460D2206F08EFAD6F8A40049460E2206F088FA98F800002870D8F80400686042
:203DD00098F80800002130220823E86001A807F0A9FB0026387B069401AB244A0096B968CD
:203DF000099005F1100007F099FB01A828220823314607F08FFB38691D49059401AA3346AF
:203E1000079005F12C0007F081FB01A824220823314607F08FFB8DF81CB005F1600059460E
:203E300001AA07F083FB287838B905F17C00314601AA07F07BFB0F4868602E72C5F8BC6028
:203E5000C5F8C060786801F06FFC204605F0B0FC094A05F1C8000421234606F05DFB2046DF
:203E700011B0BDE8F08FC04600200084194800009F8D00006DB30000ADB1000000B5ADF145
:203E9000140DADF808000020009000208DF80C00BDF80800001DADF80800FFE7BDF80800B9
:203EB00000F003008DF810009DF8100038B19DF81010BDF80800401A001DADF8080006F050
:203ED0008BFF3E490860BDF80800102803DC3C480068019002E03B48006801900198008889
:203EF000ADF80A00BDF80A00000C09D3BDF80A0080F40040ADF80A0000208DF80C0020E089
:203F10009DF80C0090B1009901980A880088801808800099BDF808000988884211DC00980D
:203F3000019001980088ADF80A001AE0BDF80800BDF80A10884214DD01208DF80C00019884
:203F500000900199BDF80A004018019001980088ADF80A00BDF80A000028C3D10020019083
:203F7000FFE7019810B3BDF80810BDF80A00401AADF80A00BDF80A0004280FDB0199BDF836
:203F9000080040180490BDF80A0004990880BDF80800019940F40040088004E001990888D8
:203FB00040F4004008800198001D01900348006806F02AFE019805B000BDC046702200201A
:203FD000742200207822002000B5ADF1140D03928DF811108DF8100000208DF8120072E014
:203FF0009DF81100012804D103983F490078087076E018208DF8120072E09DF811000228B3
:2040100008D103980078502804DC039837490088088065E018208DF8120061E09DF8110026
:20403000012812D10398324990F90000087013200090FF2001903048304B02902D482C496B
:204050000068002200F0C0FF4AE018208DF8120046E09DF81100012812D10398284990F9B1
:204070000000087013200090FF2001902248234B0290244822490068002200F0A5FF2FE0D7
:2040900018208DF812002BE09DF81100012812D103981D4990F90000087013200090FF20A0
:2040B00001901548154B0290184817490068002200F08AFF14E018208DF8120010E0022078
:2040D0008DF812000CE09DF81000002888D0401EA4D0401EBDD0401ED6D0401E8DD0EEE7D7
:2040F0009DF8120005B000BD350B0020380B00203D0B0020F0220020455D0000080200206E
:204110003E0B0020F42200203F0B0020F822002000B5ADF1340D039302920191009007F075
:20413000E1F90490049804F01BFA05900020069007F0C0F88DF828009DF8280018B19DF89A
:204150002800012802D16FF004007FE0059810B96FF004007AE0009810B90020079010E03E
:204170000098B0F1FF3F03D14FF0FF30079008E0009807A904F06EFC0990099808B10998BD
:2041900064E00120099007F0A9F90799081808904AE00DF12E000DF12F010AAA04F023FED3
:2041B00009900998002829D19DF82E000BA904F07FFCC8B9019BBDF82C009DF82F100A9A37
:2041D000984788B1029818B1BDF82C0002990880039818B19DF82F00039908700A980E99CB
:2041F00008600020099029E00A9906A804F07BFF059840684FF0004107F06CF901200990EB
:204210000798B0F1FF3F0FD0079868B107F066F90899081A0C900C9880B107980C998842E1
:2042300000D20BE00C9807900598079B406800214FF0004207F05EF90028AAD105F007FE02
:2042500005980699083005F073F909980DB000BD00B5ADF13C0D00F099F83449086840F024
:204270000200086001A806F025FE31480078079031493048002301AA07F048F901A806F0E3
:20429000D7FD0020ADF81C002C480078099000202C4A00902A48192101AB07F03FF901A87E
:2042B00006F008FE2848007807902949274801AA002307F02BF901A806F0BAFD0120ADF88D
:2042D0001C002448007809900020244A009022481A2101AB07F022F921482249002200239B
:2042F00007F0F4F8204806F02FFE20480D900D984FF6FF7181821E49012008700D98002118
:20431000C1751C49002008701B49002008701B49002008701A49002008701A49002008706C
:204330001949002008600FB000BDC046002009402ABA0000C41F0020FDAB000028BA000027
:20435000D4210020B1A300002BBA0000F81F00200D54000029BA0000F0210020017D0000D5
:2043700078200020D59C0000054E0000442200204D2000204C2000204E2000204F200020F5
:2043900050200020512000203C2000202DE9F0434A4D95F8E700ADF12C0D00287AD13F4F44
:2043B000387B01240021242285F8E7407E6885F8E6000823C5F80C6101A807F083F800262B
:2043D00005F10C00069601ABADF8146034490796324607F07BF8334905F1300001AB3246A8
:2043F00007F074F8304905F1540001AB324607F06DF8B96820468847DFF8BC802B4808F132
:2044100004037A7B00781868C0F3815922B1B9F1030F04D185F8E140B9F1030F1ED0B9F1B5
:20443000020F1BD0B9F1010F2DD14FF08059D9F8A4011F4F456831464FF040521C23032065
:2044500000903846A847D9F8A40131464FF400720923456800943846A84714E0022005F0C8
:2044700045FEB9F1030F0CBF4FF47A7142F21071104800685435B1FBF0F12846FCF740FB0D
:204490002846FCF741FB40460068C00802D2304605F02CFE0BB00020BDE8F083CCB80000D9
:2044B0003F6F0000D1760000957200003223002000A00C4034BA0000B03F005068040020D6
:2044D00080B502AFADF1200DADF8123003920291ADF8100000208DF81600FF208DF81700E1
:2044F000029805A903F024FD012852D1012070E03888A8B9BDF8120001280DD1BDF81400DB
:204510004AF6662181420ED10398007803280ADB80208DF8160006E00D208DF8160002E034
:204530000B208DF816009DF8160000283ED10298C06806900398069900780870BDF8140078
:204550004AF66621814208D102982349C06881422CD101208DF8170028E002981F49C0680B
:20457000814223D100208DF817001FE03888009001200190BDF812300299039ABDF81000C3
:2045900002F042FC8DF8160010E00A208DF816000CE0BDF8140042F60211401AE6D048F241
:2045B0006311401AA4D0401EA2D0EEE79DF81700FF280CD00A48006848B109480068006881
:2045D00028B10748006801689DF8170088479DF8160008B080BDC046570C0020550C0020AD
:2045F000500C002080B502AFADF1200DADF8123003920291ADF8100000208DF81400FF20E2
:204610008DF8150002980078022858D102980299406849684078097800F0FF0001F0FF01E4
:2046300001EB0021ADF818103FE0388878B9BDF81200012803DD0D208DF814000AE0039865
:204650000078022806DD80208DF8140002E00B208DF814009DF81400002833D10298C0684F
:204670000790039807990078087002982049C068814203D100208DF8150023E001208DF843
:2046900015001FE03888009001200190BDF812300299039ABDF8100002F0B6FB8DF81400C4
:2046B00010E00A208DF814000CE0BDF8180042F60211401AE6D0B0F58270B6D0F1E701200D
:2046D0008DF814009DF81500FF280CD00948006848B108480068006828B1064800680168BA
:2046F0009DF8150088479DF8140008B080BDC046190C0020140C00200EB53248324901F05F
:2047100035FC32490020087031494FF6FF7008801020D72102F074F82E49087000202F4982
:204730000090012001902C480022002304F032F900202A49009002200190294800220023C3
:2047500004F028F90020254900900420019025480022002304F01EF9234904200870234831
:204770001022002103F0EEF821480021102203F0E9F82049002008601F49002008701F4914
:20479000002008701E49072008701E4900200870164802221023EC210090102002F030F8D0
:2047B0001348EC21032210230090102002F028F81048EC21042204230090102002F020F8DB
:2047D0000EBDC046AC220020B0220020B4220020EA0900207823002008210020B9B20000A0
:2047F0002C21002074210020B5220020C0220020D0220020B8220020BC220020BD22002085
:20481000BE220020BF220020B0B544688068006806F07CF93A4A012302F114052B6050B17B
:20483000217AFF2907D0FF214009217263D2042045F8180C44E0207A00285CD03149401E2E
:204850001AD0401E02D0FD3855D051E01568D4F8B4000570D4F8B870D4F8B400401CC4F8A5
:20487000B400781EC4F8B800D4F8B87027B3012F3BD9092202201BE0D4F8B000401EC4F87A
:20489000B000D4F8B070EFB9D4F8B870A7B10220D4F8A83020721B7C083A012F4FEA430398
:2048B00043F0010313609CBF0321516001D90B220A6006F06CFDB0BD0020207204230B608D
:2048D0000220F6E7D4F8AC0000781060D4F8AC00022F00F10100C4F8AC00F0D2D4F8B870B0
:2048F000002FECD100202072052342F8043CE7E7FF202072B0BD04F12C0006F0DFFDB0BD1C
:20491000082800400428004000B5ADF14C0D119310920F910E903948007820B9FFF798FC1F
:204930003649012008700F9818B10F980E99486001E000205FE0109818B110980E99886001
:2049500001E0002057E0FCF7D3F812902C480078002804DC2A490878401C087004E0129866
:20497000FCF7CAF8002046E01298FCF7C5F8119820B909A806F0B8F909A8119011980E9956
:204990000068086011980E994068C86011980E99007C087411980E99806848610E98012126
:2049B000417411980E99408A48821198C06818B111980E99C06888610E980021A02220307A
:2049D00002F0C0FF684606F06AFA01208DF818000E9800216A46383006F0A8FD684606F032
:2049F00032FA0E9806900E98064900226B46703006F06CFD0E9813B000BDC0461B0A002007
:204A100038200020A1B2000080B502AFADF1200DADF8123003920291ADF8100000208DF8A1
:204A30001400FF208DF8150002980078022852D102980299406849684078097800F0FF0084
:204A500001F0FF0101EB0021ADF8181038E0388890B9BDF81200012803DD0D208DF81400C4
:204A70000DE00398007850B103980078012806D080208DF8140002E00B208DF814009DF89F
:204A9000140058BB0298C0680790039807990078087000208DF8150020E038880090012030
:204AB0000190BDF812300299039ABDF8100002F0ABF98DF8140011E00A208DF814000DE091
:204AD000BDF8180042F60211401AE6D04DF29F61401ABCD0F0E701208DF814009DF815003E
:204AF000FF280AD00748006838B106480068006818B104480068006880479DF8140008B0DA
:204B100080BDC046300B002008B53748006805F005FC36480078032830D126E03449012087
:204B300008704FF4966001F081FC324901200870314806F06DFA0720012103F0C1F952E034
:204B50002B49022008704FF4FA6001F06FFC294901200870284806F05BFA0720052103F038
:204B7000AFF940E004F0ACFE3DE0244800780028F8D0401ED2D0401EE2D0F3E71B48007809
:204B9000022830D126E01A49012008704FF4966001F04CFC174901200870174806F038FAE6
:204BB0000720012103F08CF91DE01149022008704FF4FA6001F03AFC0E49012008700E4829
:204BD00006F026FA0720052103F07AF90BE004F077FE08E00A4800780028F8D0401ED2D006
:204BF000401EE2D0F3E708BD6C230020202300207A230020140A002050210020090A002025
:204C10000A0A00202DE9F043DFF8E0808946054617464FF0FF31ADF13C0D404606F09EFCED
:204C3000334C04EBC50466682568FBF761FF2168096800290BD42968002905DCB9F1000F2A
:204C500009D04FF0FF3108E0B9F1000F03D0FBF753FF002442E02968491C2960FBF74CFF42
:204C7000286802283ADA1FB90DA806F073FB0DAF38686860B76800213022082301A806F0E5
:204C900051FC4FF00009069401AB307B194A09903946CDF8009005F12C0006F03FFC01A8B2
:204CB00024220823494606F045FC012705F1640001AA8DF81C70494606F038FC05F1480078
:204CD00001AA394606F032FC706800F02DFD0A4A05F118002346042105F01EFC404606F009
:204CF00039FC20460FB0BDE8F083C046B82100209CB9000065A6000085B3000008B5364860
:204D10000068800903D306200A2103F0D9F832480068C00905D331480078062801D103F040
:204D3000ADFF30482E490078097888424FD02D4A0020012102F07CFE29480078400806D3B7
:204D500028480078400802D227490020088024480078800806D323480078800802D2234937
:204D7000002008801D480078022803D11D48007805F024FD1A480078400805D319480078DA
:204D9000400801D202F0EEFF15480078800809D314480078800805D210480078062801D0CE
:204DB00003F06CFF0F48007810F0030F0FD00C48007860B90E4805F0FDFE40B90C4806F057
:204DD00027F90A4900200880074900200880054803490078087008BD68230020000A00208D
:204DF000E10C00204A2300204C2300204E230020C02000201FB5019100900198042858D105
:204E10002D4806F0E2F9029018B102982B49C06808602A4800684068294900780860274800
:204E300000682749406809680078884210D023480068806960B121480068806903901F48CE
:204E5000039C00686FF0FF0100224FF00073A047022005F04BF9112000F066FC19490120C0
:204E7000087016480068007C10B11748007810B90E2000F059FC114800684068806820B96A
:204E90000E4800684068C06828B110490020086010480F49086006F071F90F490020086062
:204EB0000F480E4908600F4806F04EF8192006F001FB00901FBDC0465C2200202C20002092
:204ED000D02108404E2000204C2000201C1004400010044051000706181004401410044079
:204EF00002000040152F000030B5ADF1140D8DF808100090324801903BE001208DF80C0073
:204F10009DF80C00A8B1019801990079497901F087FB8DF80C009DF80C0050B10199019840
:204F30008A79007A009905F037FE8DF80C0006F033F89DF80C0020BB00208DF8100009E055
:204F500000989DF81010FF220A549DF81000401C8DF8100001989DF8101080798842EFDC03
:204F70000FE00199019A00988968927901F082FD07E0019800790028BFD0401EBDD0001F3F
:204F9000EFD0019882790F49009805F029FC0025002400B1012404B101258DF809509DF837
:204FB000090040B19DF8080028B1019800998279044801F05FFD9DF8090005B030BDC04665
:204FD00028220020500B002080B502AFADF1200D04938DF814200391029000208DF81600FA
:204FF000029828B1039818B1049808B1B86808B9022052E000208DF8150046E09DF81510A6
:20501000029800EB81000690069800884FF6FF71814235D006988078002831D03988049825
:20503000039A04F079F90790079848B306988078400810D338790090B868019006989DF846
:205050001420079B0088012100F032FC9DF8161008438DF8160006988078800810D338794F
:205070000090B868019006989DF81420079B0088022100F01DFC9DF8161008438DF8160081
:205090009DF81500401C8DF8150005489DF8151000788842B2DC9DF8160008B080BDC046E3
:2050B000782300202DE9F0470D4606465FFA85FA280824BF2E4845402E494FEA8A03C858F6
:2050D00085EA00023240C2F300672B4A06EA0504B043224006F4E0240243B4F5E02F01D131
:2050F000500E14D306F4E020074310D002F4E027B7F5A02707D0B7F5803704BF22F4003282
:2051100042F4A02203E022F4803242F4C022DFF86C80CA5008F1D00739680122002002FA37
:205130000AF40C4218BF101C5FEA000906D1F00D04D34146C5F3805001F80A00300E0BD3E5
:20515000FBF7D6FC290E34BF0021211C3A68A24311433960FBF7D0FCB9F1000F06D0F00D35
:2051700004D34046C5F3805100F80A10BDE8F087006000A000100840007F077F002002404C
:2051900000B5ADF1140D029000208DF810002B48007880000390BDF80C0005F0CFFF284951
:2051B00008602748006808B9132044E0BDF80C0005F0C4FF234908602248006828B9204820
:2051D000006806F01DF8132035E0BDF80C0005F0B5FF1D4908601C48006848B91848006837
:2051F00006F00EF81748006806F00AF8132022E0134909684FF6FF7002F092FC11490968E3
:205210004FF6FF7002F08CFC0F4909684FF6FF7002F086FC029840080BD3102000900C4A89
:205230000A48C72113230190102001F0E9FA8DF810009DF8100005B000BDC04678230020EC
:20525000F0220020F4220020F822002024B900000802002000B5ADF11C0D02930192009160
:20527000ADF8180006F03EF901F088F90490049810B96FF002004EE005F0AEFD05900020E5
:20529000039003980B283FD20399880000EBC1002249085A10BB0399204A880000EBC100EA
:2052B000BDF81810115203991D4A880000EBC1000499115003991B4A880000EBC10000999B
:2052D00011509DF80C00019908700498029940680860059805F098FC00201CE003998800FD
:2052F00000EBC1000D49085ABDF81810884205D1059805F089FC6FF002000CE00398401C62
:20531000039003980B28BFD303F09CFE059805F07BFC6FF0030007B000BDC046C01D00201B
:20533000C41D0020C81D0020F8B505F075FF02F079FF05F089FF054605F00C000C284CD0BE
:20535000E8081ED205F042F8264E376804460120014605F0AEFB31686143884211D2224E71
:205370008220B0FBF7F0211A3046FBF7C9FB3046FBF7CAFB0120FDF7C7F8304606F0FAF823
:205390002DE0280929D2194CA4F1200620688168174888470746042FF8D01648690905D216
:2053B00027B101460A6822F0010203E001460A6842F001020A6098310A6842F003020A6020
:2053D00030688169202088470B4C37682068B86B804701202060206801E005F0DEFF05F0F3
:2053F00021FFF8BD34BA000074040020D8010010004003408C2108402C20094010B5ADF1E9
:20541000180D019100902F480290FBF771FB03900298006910F4602F45D002980069400C41
:205430008DF810009DF81000400803D300208DF810000EE09DF81000800803D301208DF8B8
:20545000100006E09DF81000C00802D302208DF810009DF81000401D40B203F01BF89DF8BE
:205470001010029A0120113188401169814311610398FBF741FB9DF81010029800EB810001
:20549000406898B19DF81010029800EB8100446802989DF81010006800224FF00063491DC3
:2054B00009B2A04702E00398FBF726FB0298006928B1054805F02EFF002105F075FC06B022
:2054D00010BDC04644220020F81F00202DE9F8430446FBF70DFB81462B48021992F8ED10BB
:2054F000491ECFB2002F82F8ED7046D1294901EB84042578618835F07F07884618D1E909D7
:205510000FD24FF0805000F5DC76D0F8B8018169404688473068416B404688470228F9D1F7
:205530001EE000EB8800D0F800110020884717E04FF08056D6F8B801016A40468847D6F801
:20555000B801816A40468847D6F8B801016B404688470E49012008600D4908688008FCD3FD
:2055700005F03F003F2801D0FFF7B0FF607800F03F003F2801D0FFF7A9FF4846FBF7BCFAF7
:205590000020BDE8F883C0466804002028200860282008408CB5000000B5ADF1140D03929F
:2055B0008DF811108DF8100000208DF812003DE09DF81100062815D10398234902680A6037
:2055D0008088888008200090FF2001902048214B02901E481C4900680022FFF7F5FC8DF81C
:2055F00012002CE018208DF8120028E09DF81100082806D10398184902680A6040684860D9
:205610001DE018208DF8120019E09DF81100012804D1039811490078087010E018208DF87F
:2056300012000CE002208DF8120008E09DF810000028BDD0401ED9D0401EE6D0F2E79DF8D8
:20565000120005B000BDC046CF0C002050230020197C000078050020300C00203F0C002029
:2056700008B500208DF8000000208DF8010000208DF802000DF101010DF10202684603F0C8
:2056900009FD26499DF9000091F90010401F884207DC22499DF9000091F90010401D884287
:2056B00008DA9DF900001D4908701C4A01200121FEF78AFC1A499DF9010091F90010401F6D
:2056D000884207DC16499DF9010091F90010401D884208DA9DF9010011490870104A02208F
:2056F0000121FEF771FC0F499DF9020091F90010401F884207DC0B499DF9020091F90010FA
:20571000401D884208DA9DF9020006490870054A03200121FEF758FC08BDC046170A002028
:20573000180A0020190A0020F8B50646FBF7E0F92A4D0746A91991F8ED00421C002881F815
:20575000ED2045D1264C04EB8604267806F03F003F2801D0FFF7E8FF607800F03F003F28D5
:2057700001D0FFF7E1FF648836F07F0018D1F0090FD24FF0805000F5DC75D0F8B80141699E
:20579000204688472868416B204688470128F9D11EE005EB8405D5F800110120884717E024
:2057B0004FF08055D5F8B801C16920468847D5F8B801416A20468847D5F8B801C16A204663
:2057D0008847084901200860074908688008FCD33846FBF791F90020F8BDC0466804002098
:2057F0008CB50000282008602820084000B5ADF1140D03928DF811108DF8100000208DF82F
:2058100012003CE09DF81100012808D103980078022804DC039820490078087038E0182041
:205830008DF8120034E09DF81100012804D103981A49007808702BE018208DF8120027E03A
:205850009DF81100012812D10398154990F90000087004200090FF2001901348134B0290DD
:2058700010480F4900680022FFF7AEFB10E018208DF812000CE002208DF8120008E09DF85E
:2058900010000028BED0401ECDD0401ED8D0F2E79DF8120005B000BD190C00201B0C0020B3
:2058B0001D0C002058230020617000000008002090B503AFADF1240D06938DF821208DF851
:2058D0002010ADF81C00BDF81C001B214FF6FF720DF11E0304F09CF905900598002841D0F1
:2058F00000200090BDF81E000190FF2002907C680699059ABDF81C000DF11203A0478DF861
:2059100022009DF8220028BB06984089ADF810009DF8200040080CD39DF821000090BDF8C8
:205930001C20A52104AB102000F06AFF8DF8220010E03978502003F05DFF9DF821100091BF
:205950000190BDF81C2004ABA421102000F058FF8DF822009DF8220038B104A81B2104F0A7
:205970009DFE02E015208DF822009DF8220009B090BD2DE9F8430D46064668687468B76846
:205990004FF0000810B9E86800284FD02078012814D1FBF7ADF8D4F8BC1049B1D4F8C010E5
:2059B0008D61C4F8C050FBF7A7F80120BDE8F883C4F8BC50C4F8C050FBF79EF8022004F019
:2059D00095FB04F160004FF0FF31814605F0C6FDB86805F06BFD3046294601F081FB0546CA
:2059F000B86805F067FD207888B9B5F1FF3F08D004F17C004FF0FF3105F0B0FD207A48B174
:205A100011E003202072022004F058FB0BE0B5F1FF3F02D04FF0010805E00320207204F1EF
:205A30002C0005F04BFD484605F094FD4046BDE8F88370470EB52848001D20F00300019088
:205A50002648029001990298401A25490860254901980860234824490068086021480068EA
:205A7000009005E00098002101800098801C00901C4801681A480068401800998842F1D888
:205A90001748006881081848006800EB8100001F009000980021018013480068009000989E
:205AB000E821018010480068E83000900C48006881086FF0EB0000EB8100009908800B4974
:205AD000009808600020FEF7D9F90949086006480649006808600EBD7B230020A43C00201F
:205AF000642300207C22002080220020742200207822002000B5ADF13C0D039302920191A7
:205B100000900398006800282FD10C20FEF7B6F90490049810B96FF0030042E005A805F0CB
:205B30009DF90020ADF8240000200A9004980B9000991D4805AA002305F0B4FC049908606B
:205B50000498006838B905F000FC049803F0E2FF6FF0030025E00198049948600298049963
:205B7000886004980399086011E00398006804900E480068804705900498006805F0FAFCFC
:205B90000298049988600A48016805988847049800990068FAF7B4FF04980068FAF7B4FFC6
:205BB00000200FB000BDC0466DAF0000E40B0020E80B002008B58DF800009DF800000128F5
:205BD00023D12949012003F0CFFB27480078022809D105F04BFB25490870244A00200121B5
:205BF00000F0ACFE18E0214A0020012100F0A6FE1F4800680621002204F09EF81C48006854
:205C10000721002204F098F806E09DF8000018B91649002003F0A8FB13480078012821D157
:205C300012480078400806D3114800680621012204F082F805E00E4800680621002204F008
:205C50007BF80A480078800806D3094800680721012204F071F805E0054800680721002251
:205C700004F06AF808BDC04652200020532000206C23002000B5ADF1140D00918DF8040091
:205C90002649009809884088884211DC009823498088098888420BDB00982149C0880988B5
:205CB000884205D100981F490089098888422ED010207E21052200F0A3FDADF812001A48B3
:205CD0000088ADF8080000984088ADF80A0000988088ADF80C000098C088ADF80E000098F4
:205CF0000089ADF81000852102AA102000F088FD8DF805009DF8050060B99DF804000B4935
:205D10000870BDF812100A4803F080FC02E018208DF805009DF8050005B000BDEC0900209E
:205D3000EE090020F0090020EA090020F40900207421002080B502AFADF1180D029301926D
:205D50000091ADF80C0000208DF810003888002801DD0B204BE00098007802283FD100983E
:205D70000099406849684078097800F0FF0001F0FF0101EB0021ADF80E1021E0029802217A
:205D900001800098C0680199008800F0FF0008700098C06801990088C0F30720487024E0B1
:205DB0000298012101800098C0680199007808701BE00298002101800A208DF8100014E062
:205DD000BDF80E004FF6A171401AE9D0401ED5D0401EE5D0401EE3D0401EE1D0E9E70298E6
:205DF0000021018001208DF810009DF8100006B080BD704700B5ADF1140D029000208DF841
:205E10000C00029840080BD310200090234A2248C72103230190102000F0F2FC8DF80C00D1
:205E30009DF80C0070B9029880080BD3102000901B4A1948C72103230190102000F0E0FC67
:205E50008DF80C009DF80C0010BB0298C0081FD315480078800005F071F912490860114811
:205E7000006890B10F4909684FF6FF7001F058FE102000900D4A0848C7210423019010206E
:205E900000F0BEFC8DF80C0002E013208DF80C009DF80C0005B000BD60B90000A808002015
:205EB0007808002058230020782300200008002008B5009028480078800803D32749088821
:205ED000401C088024480078400803D324490888401C088022480088062817DB1F480088EA
:205EF000062813DB1F4804F065FE002832D01D4805F098F81A490020088018490020088090
:205F100019480068202105F0E5FA23E013480088032812DB1248008878B9124804F04AFEEC
:205F3000C0B1104805F07EF80C49002008800E480068402105F0CEFA0CE00948008848B97E
:205F50000648008830B9074804F034FE10B1054805F068F808BDC0464A2300204E230020B1
:205F70004C230020C02000207023002000B5ADF1140D0191009005F0B5FA00F0FFFA039019
:205F9000039820B903F05EF86FF003003EE004F023FF04900020029002980B282FD20299EF
:205FB000880000EBC1001A49085A10BB0299184A880000EBC1004FF6F87111520299154AD1
:205FD000880000EBC100039911500299124A880000EBC100002111509DF808000099087025
:205FF0000398019940680860049804F00DFE00200CE00298401C029002980B28CFD303F0BB
:2060100021F8049804F000FE6FF0030005B000BDC01D0020C41D0020C81D00200EB58DF8AA
:2060300000009DF8000038B92349002002F052FC214802F08DF83DE09DF8000001280DD165
:20605000012001A902F046FC9DF804001B4908700DF105001A49006808602BE09DF80000E6
:20607000022827D1022001A902F034FC14497E2008609DF80400134908709DF8050012493B
:20609000087010480078052803D10C490420087002E00A4902200870084800788DF8040096
:2060B000074909680DF10500016001AA0120052100F092FC0EBDC046342200202E22002084
:2060D000302200202C2200202D22002080B502AFADF1200DADF8123003920291ADF81000EC
:2060F00000208DF8160002990298496840680978407801F0FF0100F0FF0001EB0021ADF87C
:2061100014102DE03888009001200190BDF812300299039ABDF8100000F076FE8DF8160049
:206130009DF8160018BB039803994078097800F0FF0001F0FF0101EB0021ADF818100E4851
:206150000068A0B10C480168BDF8180008B9022000E0012088470AE00A208DF8160006E0A4
:20617000BDF8140042F60211401ACBD0F4E79DF8160008B080BDC0460823002080B502AF54
:20619000ADF1180D029301920091ADF80C0000208DF810003888002801DD0B2041E0009863
:2061B0000DF10E0101F0C4FE01282DD1029800210180012035E003F0C9FF1B480299007845
:2061D0000880029A009901981288C96800F052FC25E00298052101800098C16801980A683E
:2061F0000260097901711AE00298022101800098C16801980988018011E002980021018068
:206210000A208DF810000AE0BDF80E004AF60141401AD0D0401EDCD0401EE5D0EDE79DF800
:20623000100006B080BDC0463C2300201D4838B50468B4F1FF3F08BF002404F0BFFF24481C
:20625000244B194A002501211038056003F15C000160164B11601868806C804714480068EE
:2062700020B114480068204600F0C6FF124813490560134C0A686FF35B4244EA02000860DB
:2062900010490868C0F30130012806D10A680E48104040F400320A6008600C490868002804
:2062B000FCD138BD1C13005008220443F001001080012843000120438C210840482003402B
:2062D0000000390104000940FFFFFCFC0C0068429404604200600C4000B5ADF1140D02928D
:2062F00001910090FAF704FCADF8100023480068007810B9214804F09DFB019848B92048BB
:20631000006803684FF4807101224FF4807098471CE0019802F06AFE70B1029818B1029824
:206330004FF0FF3101700820FFF7D0F8BDF81000FAF7E2FB00201FE0114801990068019ADF
:2063500003684968019892680068984704F094FF04F098FF4008FBD309480068416802208B
:2063700088470390029810B1029800210170BDF81000FAF7C1FB039805B000BDDCB8000011
:20639000CC01001000B5ADF1140D00938DF80E208DF80D108DF80C0000980C3802909DF820
:2063B0000D000B2803DA9DF80C000B2802DB6FF0020037E004F010FD01909DF80D108800BB
:2063D00000EBC1001849085828B9019804F01CFC6FF0020026E0019804F016FC9DF80C0013
:2063F000029908719DF80D00029948719DF80E00029988719DF80D10880000EBC1000A4913
:2064100008580099083002F06EFE9DF80D10880000EBC1000449085840684FF0004105F02D
:2064300059F8002005B000BDC41D002000B5ADF11C0DADF814002448006808B9002041E05D
:20645000BDF81400032806DABDF81400B0F5FA5F01DD002036E01D48FF2104F039FBBDF81B
:2064700014101B48B0FBF1F0009000986FF31F400190009800F47F00000C02900098C0F38B
:206490004F0003900098400800F47F00000C04900E48019AFF2103F0AFFF0C48029AFF2155
:2064B00003F0E9FF0948039A4FF6FF7103F0B9FF0648049AFF2103F0C9FF0448FF2104F07C
:2064D00016FB012007B000BD000D002000000140006CDC0280B502AFADF1180D029301927D
:2064F0000091ADF80C0000208DF810003888002801DD0B203DE00098009940684968407845
:20651000097800F0FF0001F0FF0101EB0021ADF80E10BDF80E0042F61921814215D102F06A
:2065300095FF8DF8140014489DF814100078884203DD9DF814001049087002980121018030
:206550000D4801990078087011E0BDF80E0042F60811814208D10298022101800098C168AC
:2065700001980988018002E00A208DF810009DF8100006B080BDC046AD0B002000B5ADF1F6
:20659000140D009004F028FC029000200190019808283CD20199880000EBC1001F49085872
:2065B000E0B90199880000EBC1001C490918039100980399086003980021816000210020D0
:2065D00004F06CFF039948600398406808B902F039FD029804F018FB03981CE00199880082
:2065F00000EBC1000D4908580099884209D1029804F00AFB0198810001EBC00107484018EB
:2066100009E00198401C019001980828C2D3029804F0FAFA002005B000BDC046C41E002081
:2066300008B58DF801108DF800001E4804F066FE1B491A4A0968B2FBF1F104F08FFF08B9A9
:20665000002029E09DF801001749087017489DF800100078884217D09DF8000013490870FD
:206670001348006804F067FE124804F05FFD0F480078012802D111480F4908600D490020EA
:2066900003F0E8F90A490860094A12680020002102B1012101B1012008BDC04620A1070012
:2066B00034BA00000C220020492300204823002044230020E0220020EC22002076BA000070
:2066D000F0B520480127F84201D002F00BFF204D204F214EBD4206D203CD0478A4003459CF
:2066F000401CA047F6E71D48002800D08047164D164FBD4202D210CDA047FAE7F0BD032531
:206710001BE0416808300A1C2A400BD11A1C2A40AB4305D0046804300C600431043BF9D174
:20673000131C05D0047801300C700131013BF9D1021C2A4001D0A84304300368002BE0D125
:206750007047C046FFFFFFFF0000000000000000ACBF000014C0000064BF000015C4011024
:206770000EB50090FAF7C4F9019020480078002837D01E490878401EC0B20028087030D110
:206790001B4804F0C7FD082104F00EFB009840B318480068703004F099FD04F0EBFE1548F1
